:020000040000fa
:020000040040ba
:10000000f8ef4520a189410003e6410037f74100a0
:1000100027064200730842007310420000000000ef
:10002000000000000000000000000000a1054300e7
:1000300033fb410000000000018542004deb42000f
:10004000abdf4100abdf4100abdf4100abdf410084
:10005000abdf4100abdf410051044300abdf4100a7
:10006000abdf410000000000abdf4100abdf41002f
:10007000abdf4100abdf41006dbe4100abdf4100b3
:10008000abdf4100abdf4100abdf4100ed90410051
:10009000abdf4100c9934100abdf41007504430071
:1000a000abdf4100abdf4100abdf4100abdf410024
:1000b000abdf4100abdf4100abdf4100abdf410014
:1000c000abdf4100abdf4100abdf4100abdf410004
:1000d000abdf4100abdf4100abdf4100612c4300ef
:1000e000abdf4100abdf4100abdf4100abdf4100e4
:1000f000abdf4100abdf4100abdf4100abdf4100d4
:10010000abdf4100abdf4100abdf4100abdf4100c3
:10011000abdf410000000000000000000000000014
:10012000abdf4100abdf4100abdf4100abdf4100a3
:10013000abdf4100abdf4100abdf4100abdf410093
:10014000abdf4100abdf4100abdf4100abdf410083
:10015000abdf4100abdf4100abdf4100abdf410073
:08016000abdf4100abdf410001
:020000040000fa
:020000040040ba
:10016800f8b500bff8bc08bc9e46704785c642007b
:10017800f8b500bff8bc08bc9e46704761c642008f
:020000040000fa
:020000040040ba
:08018800541901000100000000
:020000040000fa
:020000040040ba
:10019000a42640201c00000000000000685a4020f7
:1001a0006400000000000000f8604020040000002f
:1001b00000000000275e4020010000000000000059
:1001c000c046402004030000010000008495420066
:1001d000000000000000000000000000000000001f
:1001e000000000000000000000000000000000000f
:1001f00000000000000000000000000000000000ff
:1002000000000000000000000000000000000000ee
:1004d00000f04520f0000000000000008c56402095
:1004e000a800000000000000000040200400000000
:1004f00000000000fc60402004000000000000003c
:1005000034574020940000000000000000614020ab
:10051000040000000000000004614020040000000e
:1005200000000000086140200400000000000000fe
:10053000e45c402028000000000000000c61402026
:1005400004000000000000001061402004000000d2
:1005500000000000146140200400000000000000c2
:100560001861402004000000000000001c614020d1
:100570000400000000000000206140200400000092
:100580000000000024614020040000000000000082
:10059000706040200c00000000000000f660402069
:1005a000020000000000000028614020040000005c
:1005b000000000002c61402004000000000000004a
:1005c000475e402001000000000000003061402034
:1005d000040000000000000034614020040000001e
:1005e000000000000a50402002000000000000004f
:1005f0003861402004000000000000003c61402001
:1006000004000000000000004061402004000000e1
:1006100000000000446140200400000000000000d1
:100620007c6040200c000000000000006659402063
:1006300002000000000000006a6340200200000089
:1006400000000000886040200c0000000000000056
:100650004861402004000000000000004c61402080
:100660000400000000000000e760402001000000de
:10067000000000006c634020020000000000000049
:100680006e6340200200000000000000a85d4020d2
:100690002000000000000000506140200400000025
:1006a0000000000054614020040000000000000031
:1006b0005861402004000000000000005c61402000
:1006c0000400000000000000606140200400000001
:1006d00000000000646140200400000000000000f1
:1006e000905e4020140000000100000034cf400064
:1006f000acd14000b0d14000b8d14000bcd14000e6
:100700006863402002000000000000006861402093
:1007100004000000000000006c61402004000000a4
:100720000000000070614020040000000000000094
:10073000746140200400000000000000706340204d
:100740000200000000000000726340200200000070
:10075000000000007861402004000000000000005c
:100760007c61402004000000000000008061402007
:10077000040000000000000084614020040000002c
:10078000000000008861402004000000000000001c
:100790008c614020040000000000000074634020d1
:1007a000020000000000000076634020020000000c
:1007b00000000000906140200400000000000000e4
:1007c0009461402004000000000000009861402077
:1007d00004000000000000009c61402004000000b4
:1007e00000000000a45e4020140000000000000093
:1007f000a061402004000000000000007863402059
:100800000200000000000000a4614020040000007d
:1008100000000000ec5b40204800000000000000e9
:10082000f06040200600000001000000ffffffff15
:10083000ffff0000a861402004000000000000004d
:10084000ac6140200400000000000000b85e4020c1
:100850001400000000000000345c40204000000054
:1008600000000000b0614020040000000000000013
:10087000b46140200400000000000000ef60402050
:100880000100000000000000b861402004000000ea
:1008900000000000bc6140200400000000000000d7
:1008a000c06140200400000000000000c46140203e
:1008b0000400000000000000c861402004000000a7
:1008c00000000000cc614020040000000000000097
:1008d000d0614020040000000000000020604020a3
:1008e0001000000000000000cc5e4020140000005a
:1008f00000000000d461402004000000000000005f
:10090000d86140200400000000000000085e402084
:100910001f00000000000000dc6140200400000017
:1009200000000000e0614020040000000000000022
:10093000e46140200400000000000000e861402065
:1009400004000000000000000950402001000000e9
:100950000000000065594020010000000100000077
:1009600001000000ec6140200400000000000000d5
:10097000f06140200400000000000000f46140200d
:100980000400000000000000f861402004000000a6
:1009900000000000fc614020040000000000000096
:1009a000e05e40201400000000000000f45e4020e3
:1009b000140000000000000000624020040000005d
:1009c000000000000462402004000000000000005d
:1009d000085f402014000000000000000862402072
:1009e00004000000000000008a63402001000000b5
:1009f000000000000c624020040000000000000025
:100a00001062402004000000000000008b634020c2
:100a100001000000000000007a6340200200000096
:100a200000000000146240200400000000000000ec
:100a30001862402004000000000000001c5f4020fd
:100a400014000000000000008c6340200100000042
:100a5000000000007c634020020000000000000055
:100a60007e63402002000000000000001c62402065
:100a70000400000000000000305f4020140000006f
:100a80000000000020624020040000000000000080
:100a90002462402004000000000000002862402082
:100aa00004000000000000002c6240200400000050
:100ab0000000000030624020040000000000000040
:100ac0003462402004000000000000003862402032
:100ad00004000000000000003c6240200400000010
:100ae00000000000946040200c00000000000000a6
:100af000a06040200c00000000000000084e4020d4
:100b000001020000000000004062402004000000dc
:100b100000000000446240200400000000000000cb
:100b20004862402004000000000000004c624020a9
:100b3000040000000000000080634020020000006c
:100b4000000000008263402002000000000000005e
:100b50005062402004000000000000000c5d4020b6
:100b60002800000001000000bb010300d1010100ca
:100b70004b020100330203007c020300dd0303008b
:100b8000de030300e0030300e103010000000000b6
:100b9000c8574020900000000000000010fd4520d4
:100ba00050020000000000005462402004000000d9
:100bb0000000000058624020040000000000000017
:100bc0005c624020040000000000000060624020e1
:100bd00004000000000000006462402004000000e7
:100be00000000000686240200400000000000000d7
:100bf0006c624020040000000000000030604020d3
:100c00001000000000000000445f402014000000bd
:100c100000000000c85d402020000000000000002f
:100c20008d63402001000000000000007062402041
:100c30000400000000000000746240200400000076
:100c400001000000ffffffff786240200400000069
:100c5000000000007c624020040000000000000052
:100c60008e6340200100000000000000e85d40208d
:100c7000200000000000000080624020040000000e
:100c8000000000008f634020010000000000000011
:100c900040604020100000000000000084624020fe
:100ca00004000000000000008862402004000000f2
:100cb000000000008c6240200400000000000000e2
:100cc000285e40201f0000000000000090624020cd
:100cd00004000000000000009063402001000000bc
:100ce00000000000946240200400000000000000aa
:100cf0009862402004000000000000009c62402038
:100d00000400000000000000a06240200400000079
:100d10000000000084634020020000000100000089
:100d2000ffff0000845d4020240000000000000060
:100d3000a46240200400000000000000a8624020df
:100d40000400000000000000ac624020040000002d
:100d500000000000b062402004000000000000001d
:100d6000866340200200000000000000b4624020c2
:100d70000400000000000000b862402004000000f1
:100d800000000000bc6240200400000000000000e1
:100d9000040040201c03000000000000c06240204e
:100da00004000000000000002003402008000000b4
:100db00000000000916340200100000000000000de
:100dc00028034020280000000000000050034020bd
:100dd0000800000000000000345d402028000000f2
:100de0000000000058034020300000000000000018
:100df000ac6040200c00000000000000cc5a4020f5
:100e00006400000000000000485e40201800000060
:100e100000000000d060402008000000000000003a
:100e2000c462402004000000000000006859402017
:100e30008000000000000000b86040200c000000ae
:100e40000000000010f94520000400000000000030
:100e5000c86240200400000000000000e859402063
:100e60008000000000000000e458402081000000e5
:100e700000000000ac514020900100000000000084
:100e8000605e4020180000000000000092634020d7
:100e90000100000000000000585f40201400000026
:100ea00001000000ff000000000000000000000042
:100eb000ff000000ff000000a0034020f81d00001c
:100ec00000000000785e40201800000001000000d3
:100ed000a0214020e0234020f42b4300000000002c
:100ee000e0214020000000006c5f40201400000062
:100ef00001000000d0fc4200d4fc4200d8fc4200bb
:100f0000e0fc4200e4fc4200a02140205c02000022
:100f100000000000745c4020380000000000000069
:100f200060ff4520a0000000000000008863402012
:100f3000020000000100000001000000cc6240201f
:100f40000400000000000000fc2340200800000016
:100f50000000000050604020100000000000000071
:100f6000c02640200020000000000000945b4020cc
:100f70005800000000000000004c40200802000063
:100f800000000000ac5c40203800000001000000c0
:100f9000d0624200d8624200e4624200f86242003d
:100fa000086342001863420018634200286342004d
:100fb00030634200090000008495420000000000f8
:100fc0000000000000000000805f402014000000ce
:100fd000010000000101000081264300712643004a
:100fe00091264300c0fd00000424402018000000aa
:100ff00000000000d062402004000000000000005b
:10100000d46240200400000001000000aaaaaaaa9d
:10101000d86240200400000000000000dc62402094
:101020000400000000000000e06240200400000016
:1010300000000000305b4020640000000000000061
:10104000e46240200400000000000000e86240204c
:101050000400000000000000ec62402004000000da
:1010600000000000f06240200400000000000000ca
:10107000f46240200400000000000000f8624020fc
:101080000400000000000000945f402014000000f5
:1010900000000000a85f40201400000000000000d5
:1010a000fc624020040000000000000000634020bb
:1010b0000400000000000000046340200400000061
:1010c00000000000bc5f4020140000000000000091
:1010d000086340200400000000000000d05f4020b2
:1010e0001400000000000000e45f40201400000035
:1010f000000000000c63402004000000000000001d
:101100001063402004000000000000001463402031
:1011100004000000000000001863402004000000ec
:1011200000000000f85f40201400000000000000f4
:101130000c60402014000000000000001c634020f0
:1011400004000000000000002063402004000000b4
:1011500000000000246340200400000000000000a4
:101160002863402004000000000000001c244020f0
:101170000002000000000000c46040200c000000dd
:1011800001000000000000009c7540000a10207d56
:101190000c504020a001000000000000a854402096
:1011a0002801000001000000fc4c410069bb420026
:1011b000084d4100a1b24200144d4100edb2420081
:1011c000204d4100712243002c4d410085224300f7
:1011d000384d4100a1cd42003c4d410085ad42005b
:1011e000484d410099224300504d4100ad2243003b
:1011f000584d4100c1224300604d41005d924200c4
:10120000644d410095e54200684d4100d522430000
:10121000744d4100112343007c4d4100112f4300c8
:10122000884d4100152f4300944d410025f54200a3
:10123000a04d410095a64200ac4d410041bc42008a
:10124000bc4d410055064300d04d4100e1cd420068
:10125000dc4d410021ce4200e84d410061ce42000c
:10126000f84d4100a1ce4200044e4100e1ce4200c3
:10127000104e4100f96b4200184e41000dec420047
:10128000244e4100f9f44200304e4100e92243006f
:101290003c4e4100fd2243004c4e41000d2f4300c7
:1012a0005c4e4100012f4300684e4100052f430072
:1012b000744e4100092f4300804e4100a950420066
:1012c000884e4100b1bb4200904e4100f9bb420044
:1012d0002c634020040000000000000093634020c5
:1012e00001000000000000009463402001000000a5
:1012f00000000000606040201000000000000000be
:10130000e060402007000000010000003939393951
:1013100039393900585840208c0000000100000085
:10132000312e436f63612d436f6c6100000000003c
:1013300000000000322e446965742d436f6b650018
:101340000000000000000000332e5065707369003b
:10135000000000000000000000000000342e447275
:1013600020506570706572000000000000000000f1
:10137000352e537072697465000000000000000093
:1013800000000000362e46616e746100000000000f
:101390000000000000000000372e446173616e6998
:1013a0000000000000000000000000001c2640209b
:1013b00008000000000000009563402001000000cc
:1013c0000000000030634020040000000000000026
:1013d0003463402004000000000000003863402017
:1013e000040000000000000096634020010000009f
:1013f000000000003c6340200400000001000000e9
:1014000001000000406340200400000001000000d3
:1014100002000000d8604020080000000100000029
:10142000ffffffffffffffff2426402076000000a4
:1014300000000000d0554020bc000000000000006b
:1014400097634020010000000000000098634020e6
:101450000100000000000000446340200400000080
:1014600000000000c44940203c02000000000000d1
:10147000486340200400000000000000e8604020b5
:1014800007000000010000003939393939393900c5
:101490009c26402004000000000000004c63402017
:1014a0000400000001000000f0f04520f0f04520ad
:1014b000180400000100000000000000dcf34520db
:1014c00040f44520a4f44520000000000000000086
:1014d000000000000000000000000000000000000c
:1014e00000000000000000000000000000000000fc
:1014f00000000000000000000000000000000000ec
:1015000000000000000000000000000000000000db
:1015100000000000000000000000000000000000cb
:1015200000000000000000000000000000000000bb
:1015300000000000000000000000000000000000ab
:10154000000000000000000000000000000000009b
:10155000000000000000000000000000000000008b
:1015600001000000000000000e33cdab34126de628
:10157000ecde05000b000000000000000000000091
:10158000000000000000000000000000000000005b
:10159000000000000000000000000000000000004b
:1015a000000000000000000000000000000000003b
:1015b000000000000000000000000000000000002b
:1018d0003c5340206c010000010000004300000068
:1018e00000000000000000000000000000000000f8
:1018f00000000000000000000000000043000000a5
:1019000000000000000000000000000000000000d7
:101910000000000000000000000000004300000084
:1019200000000000000000000000000000000000b7
:101930000000000000000000000000004300000064
:101940000000000000000000000000000000000097
:101950000000000000000000000000004300000044
:101960000000000000000000000000000000000077
:101970000000000000000000000000004300000024
:101980000000000000000000000000000000000057
:101990000000000000000000000000004300000004
:1019a0000000000000000000000000000000000037
:1019b000000000000000000000000000c918430003
:1019c0009d0643000000000056cc41005d2c430002
:1019d0005c2c43005c2c43005c2c43005c2c4300db
:1019e0005c2c43005c2c43005c2c43005c2c4300cb
:1019f0005c2c4300ffffffffffffffffffffffff28
:101a0000ffff00000100415343494900000000006e
:101a100000000000000000000000000000000000c6
:101a2000000000000000415343494900000000004d
:101a300000000000000000000000000000000000a6
:101a400000000000000000005c5d40202800000055
:101a5000000000005063402004000000000000006f
:101a60005463402004000000000000005863402040
:101a7000040000000000000008f5452008040000f4
:101a800001000000000000000000000008f54520f3
:101a900008f5452010f5452010f5452018f545209e
:101aa00018f5452020f5452020f5452028f545204e
:101ab00028f5452030f5452030f5452038f54520fe
:101ac00038f5452040f5452040f5452048f54520ae
:101ad00048f5452050f5452050f5452058f545205e
:101ae00058f5452060f5452060f5452068f545200e
:101af00068f5452070f5452070f5452078f54520be
:101b000078f5452080f5452080f5452088f545206d
:101b100088f5452090f5452090f5452098f545201d
:101b200098f54520a0f54520a0f54520a8f54520cd
:101b3000a8f54520b0f54520b0f54520b8f545207d
:101b4000b8f54520c0f54520c0f54520c8f545202d
:101b5000c8f54520d0f54520d0f54520d8f54520dd
:101b6000d8f54520e0f54520e0f54520e8f545208d
:101b7000e8f54520f0f54520f0f54520f8f545203d
:101b8000f8f5452000f6452000f6452008f64520ea
:101b900008f6452010f6452010f6452018f6452099
:101ba00018f6452020f6452020f6452028f6452049
:101bb00028f6452030f6452030f6452038f64520f9
:101bc00038f6452040f6452040f6452048f64520a9
:101bd00048f6452050f6452050f6452058f6452059
:101be00058f6452060f6452060f6452068f6452009
:101bf00068f6452070f6452070f6452078f64520b9
:101c000078f6452080f6452080f6452088f6452068
:101c100088f6452090f6452090f6452098f6452018
:101c200098f64520a0f64520a0f64520a8f64520c8
:101c3000a8f64520b0f64520b0f64520b8f6452078
:101c4000b8f64520c0f64520c0f64520c8f6452028
:101c5000c8f64520d0f64520d0f64520d8f64520d8
:101c6000d8f64520e0f64520e0f64520e8f6452088
:101c7000e8f64520f0f64520f0f64520f8f6452038
:101c8000f8f6452000f7452000f7452008f74520e5
:101c900008f7452010f7452010f7452018f7452094
:101ca00018f7452020f7452020f7452028f7452044
:101cb00028f7452030f7452030f7452038f74520f4
:101cc00038f7452040f7452040f7452048f74520a4
:101cd00048f7452050f7452050f7452058f7452054
:101ce00058f7452060f7452060f7452068f7452004
:101cf00068f7452070f7452070f7452078f74520b4
:101d000078f7452080f7452080f7452088f7452063
:101d100088f7452090f7452090f7452098f7452013
:101d200098f74520a0f74520a0f74520a8f74520c3
:101d3000a8f74520b0f74520b0f74520b8f7452073
:101d4000b8f74520c0f74520c0f74520c8f7452023
:101d5000c8f74520d0f74520d0f74520d8f74520d3
:101d6000d8f74520e0f74520e0f74520e8f7452083
:101d7000e8f74520f0f74520f0f74520f8f7452033
:101d8000f8f7452000f8452000f8452008f84520e0
:101d900008f8452010f8452010f8452018f845208f
:101da00018f8452020f8452020f8452028f845203f
:101db00028f8452030f8452030f8452038f84520ef
:101dc00038f8452040f8452040f8452048f845209f
:101dd00048f8452050f8452050f8452058f845204f
:101de00058f8452060f8452060f8452068f84520ff
:101df00068f8452070f8452070f8452078f84520af
:101e000078f8452080f8452080f8452088f845205e
:101e100088f8452090f8452090f8452098f845200e
:101e200098f84520a0f84520a0f84520a8f84520be
:101e3000a8f84520b0f84520b0f84520b8f845206e
:101e4000b8f84520c0f84520c0f84520c8f845201e
:101e5000c8f84520d0f84520d0f84520d8f84520ce
:101e6000d8f84520e0f84520e0f84520e8f845207e
:101e7000e8f84520f0f84520f0f84520f8f845202e
:101e8000f8f8452000f9452000f945205c63402022
:101e90000400000001000000ffffffff606340201e
:101ea000040000000100000000000200a026402005
:101eb00004000000000000006463402004000000f3
:101ec000000000000000000000000000222222228a
:020000040000fa
:020000040040ba
:101ed0004c696d6974656400446972656374656416
:101ee0000000000055736167653a20616e6e6f7582
:101ef0006e636520302f310d0a00000025732062cb
:101f000063617374207375626d69747465643a20db
:101f100025640d0a0000000055736167653a20735f
:101f2000736920696e666f0d0a000000696e666f46
:101f300000000000535349207661726961626c654c
:101f400020736c6f7473202d206163746976653a19
:101f50002025642c20746f74616c3a2025640d0a6e
:101f600000000000535349207661726961626c651c
:101f7000202564206e616d653a2025732c207661e2
:101f80006c75653a2025732c20747970653a20258c
:101f9000640d0a0055736167653a20687474702097
:101fa000696e666f2f737461740d0a004854545043
:101fb00020636f6e6e656374696f6e73202d206190
:101fc00063746976653a2025642c206f70656e3adb
:101fd0002025640d0a0000004854545020636f6ea1
:101fe0006e3a202564207374617475733a203078da
:101ff0002534782c20736d3a2030782534782c20c5
:102000006368756e6b733a2025642c206368756e67
:102010006b20656d7074793a2025642c2066696c9c
:102020006520656d7074793a2025640d0a00000002
:102030000948545450206368756e6b3a202564201b
:10204000666c6167733a2030782534782c2073747d
:10205000617475733a2030782534782c20664e618f
:102060006d653a2025730d0a00000000094854549c
:1020700050206368756e6b3a2064796e20627566d5
:10208000666572733a2025642c20766172204e6159
:102090006d653a2025730d0a000000004854545025
:1020a0003a206661696c656420746f2067657420ee
:1020b000696e666f20666f7220636f6e6e3a2025c0
:1020c000640d0a0073746174000000004854545099
:1020d00020636f6e6e656374696f6e733a2025645a
:1020e0002c206163746976653a2025642c206f701a
:1020f000656e3a2025640d0a0000000048545450d3
:1021000020706f6f6c20656d7074793a2025642c97
:10211000206d61782064657074683a2025642c20f5
:10212000706172736520726574726965733a2025f7
:10213000640d0a00485454503a20756e6b6e6f77e8
:102140006e20706172616d657465720d0a00000029
:1021500055736167653a206d6163696e666f200d26
:102160000a00000045783a206d6163696e666f2051
:102170000d0a0000496e746572666163653a202538
:102180007320447269766572205374617469737444
:102190006963730d0a0000000d0a205265636569ca
:1021a000766520537461746973746963730d0a00f2
:1021b00009206e52784f6b5061636b6574733a20df
:1021c00025640d0a09206e527850656e644275666a
:1021d000666572733a2025640d0a09206e527853a1
:1021e00063686564427566666572733a2025640d9e
:1021f0000a00000009206e52784572726f725061b9
:10220000636b6574733a2025640d0a09206e527859
:10221000467261676d656e744572726f72733a20b3
:1022200025640d0a09206e5278427566664e6f74f9
:10223000417661696c61626c653a2025640d0a0023
:102240000d0a205472616e736d6974205374617449
:102250006973746963730d0a0000000009206e54ed
:10226000784f6b5061636b6574733a2025640d0a77
:1022700009206e547850656e6442756666657273a7
:102280003a2025640d0a09206e54784572726f72e7
:102290005061636b6574733a2025640d0a09206ee2
:1022a0005478517565756546756c6c3a2025640dda
:1022b0000a0d0a00096e6f7420737570706f727466
:1022c00065640d0a00000000496e74657266616302
:1022d000653a2025732048617264776172652052e7
:1022e00065676973746572205374617475730d0a40
:1022f00000000000092025733a20307825780d0a67
:102300000000000064697361626c65640000000095
:1023100064697361626c6500656e61626c6564001e
:10232000656e61626c65000055736167653a2025d2
:1023300073203c696e746572666163653e203c6f14
:102340006e2f6f66663e200d0a00000045783a2029
:102350002573205049433332494e54206f6e200d6f
:102360000a000000556e6b6e6f776e20696e7465a3
:1023700072666163650d0a006f6e00006f6666002d
:10238000556e6b6e6f776e206f7074696f6e0d0a8d
:102390000000000025732025730d0a004661696c5a
:1023a000656420746f2025732025730d0a000000da
:1023b000556e6b6e6f776e207365727669636520fc
:1023c00025730d0a000000006e6f6e6500000000ae
:1023d000cc354000010000002c1f4000020000002e
:1023e00078234000030000007c234000030000002d
:1023f000d03540000400000055736167653a2064e1
:102400006e7363203c64656c2f696e666f2f6f6e10
:102410002f6f66662f6c6f6f6b75703e200d0a0014
:1024200055736167653a202573203c6f6e2f6f6688
:10243000663e203c696e746572666163653e203c51
:102440007374726963742f707265663e2f3c636c9f
:102450006561723e200d0a0045783a202573206f91
:102460006e20657468300d0a000000007374726994
:10247000637400007072656600000000636c656143
:102480007200000055736167653a20646e736320c3
:102490006c6f6f6b7570203c747970653e203c6882
:1024a0006f73744e616d653e200d0a0048656c7057
:1024b0003a203c686f73744e616d653e2855524cee
:1024c00029202d206c6f6f6b20757020666f722035
:1024d000686f73746e616d650d0a000048656c70fd
:1024e0003a203c747970653e203a2061206f72205a
:1024f0004120666f722049507634206164647265b1
:102500007373206c6f6f6b75700d0a0048656c708b
:102510003a203c747970653e203a20616161612007
:102520006f72204141414120666f722049507636da
:102530002061646472657373206c6f6f6b75700dce
:102540000a00000048656c703a203c747970653e62
:10255000203a20616e7920666f7220626f74682065
:102560004950763420616e6420495076362061648b
:102570006472657373206c6f6f6b75700d0a000069
:10258000646e7363206c6f6f6b75703a20636f6d50
:102590006d616e6420696e2070726f67726573730f
:1025a0002e205265747279206c617465722e0d0a4a
:1025b0000000000041000000610000004141414175
:1025c000000000006161616100000000414e59009f
:1025d000616e7900646e7363206c6f6f6b75703a17
:1025e000205b25735d204c6f6f6b75702054797084
:1025f00065206e6f7420737570706f727465642ed1
:102600000d0a0000646e7363206c6f6f6b75703a17
:1026100020486f7374206e616d6520746f6f206c3d
:102620006f6e672e2052657472792e0d0a000000bd
:10263000646e7363206c6f6f6b75703a2072657394
:102640006f6c76696e6720686f73743a202573200b
:10265000666f7220747970653a2573200d0a000048
:1026600055736167653a20646e73632064656c20fe
:102670003c686f73744e616d653e7c616c6c200dbf
:102680000a00000048656c703a203c686f73744e15
:10269000616d653e2855524c29202d2052656d6f85
:1026a00076652074686520656e747279206966208d
:1026b000657869737473200d0a00000048656c70ba
:1026c0003a20616c6c202d2052656d6f766520611b
:1026d0006c6c20746865207265736f6c766564201d
:1026e000656e747279200d0a00000000616c6c0048
:1026f0005b25735d206e6f742070617274206f664d
:102700002074686520444e532043616368652065ea
:102710006e747279200d0a00496e636f6d706c657e
:10272000746520636f6d6d616e64200d0a0000009a
:1027300055736167653a20646e736320696e666fd6
:10274000200d0a0048656c703a20646973706c61f2
:10275000792074686520444e532063616368652066
:10276000656e7472792064657461696c73200d0afa
:1027700000000000444e5320436c69656e7420696c
:102780007320646f776e210d0a000000444e5320c1
:10279000436c69656e74204946202d20537472691c
:1027a00063743a2025732c205072656665727265d9
:1027b000643a2025730d0a00444e5320436c69652a
:1027c0006e74202d2074696d653a2025642c20706c
:1027d000656e64696e673a2025642c206375727299
:1027e000656e743a2025642c20746f74616c3a20f5
:1027f00025640d0a00000000486f73746e616d65fa
:10280000203d202573200d0a54696d656f75742075
:102810003d202564200d0a0049507634203d257363
:102820000d0a000049507636203d2025730d0a0020
:102830002d2d2d2d2d2d2d2d2d2d2d2d2d2d2d2dc8
:102840002d2d2d2d2d2d2d2d2d2d2d2d2d2d2d2db8
:102850002d2d2d2d2d2d2d2d2d2d2d2d2d2d2d2da8
:102860002d2d2d2d0d0a00004e6f20444e53204378
:102870006c69656e7420436163686520656e74726f
:10288000696573200d0a0000496e76616c696420e9
:10289000496e70757420436f6d6d616e64203a5b94
:1028a000202573205d200d0a000000006172703a3f
:1028b000206164647265737320616c726561647910
:1028c000207175657565640d0a0000006172703acb
:1028d0002061646472657373206e65776c79207112
:1028e00075657565640d0a006172703a20717565d1
:1028f00075652066756c6c2f6572726f720d0a00bb
:1029000055736167653a20617270203c696e746529
:1029100072666163653e203c722f712f642f6c3e9e
:10292000203c6970416464723e200d0a0000000082
:1029300045783a20617270205049433332494e54f1
:102940002072203139322e3136382e312e31303549
:10295000200d0a006c0000006172703a202564208e
:10296000736c6f747320696e207468652063616393
:1029700068650d0a000000006172703a20495076c7
:102980003420616464726573733a2025730000001b
:102990002c204d414320416464726573733a2025b5
:1029a000730000002c20636f6d706c6574650d0af8
:1029b000000000002c207065726d616e656e740df4
:1029c0000a0000006172703a204950763420616438
:1029d00064726573733a2025732c20717565756573
:1029e000640d0a00496e76616c696420495020616b
:1029f00064647265737320737472696e67200d0a64
:102a000000000000720000006172703a207265736d
:102a10006f6c766564202d204950763420616464a3
:102a2000726573733a2025732c204d414320416415
:102a300064726573733a2025730d0a0071000000fb
:102a40006172703a20495076342061646472657313
:102a5000733a2025732c204d4143204164647265f4
:102a600073733a2025730d0a000000006172703afa
:102a7000206e6f207375636820656e7472790d0a1d
:102a800000000000640000006172703a2072656d01
:102a90006f7665642025730d0a0000006172703a3c
:102aa00020556e6b6e6f776e206f7074696f6e0d50
:102ab0000a000000696e7465726e616c00000000af
:102ac000706f6f6c0000000065787465726e616ce9
:102ad00000000000756e6b6e6f776e005573616756
:102ae000653a2068656170696e666f20312f322ffc
:102af00033200d0a0000000045783a2068656170b7
:102b0000696e666f20310d0a000000004e6f20686c
:102b100065617020696e666f2065786973747320d3
:102b2000666f7220747970653a202573210d0a0052
:102b30004865617020747970653a2025732e2049ac
:102b40006e697469616c2063726561746564206884
:102b50006561702073697a653a2025642042797432
:102b600065730d0a00000000416c6c6f6361626c5c
:102b70006520626c6f636b20686561702073697a91
:102b8000653a2025642042797465730d0a000000bf
:102b9000416c6c20617661696c61626c652068656e
:102ba00061702073697a653a2025642042797465e2
:102bb000732c20686967682077617465726d617233
:102bc0006b3a2025640d0a004c61737420686561be
:102bd00070206572726f723a20307825780d0a0085
:102be0004e6f20547261636520696e666f20657850
:102bf000697374732e0d0a00537461636b207570d2
:102c0000206661696c65640d0a000000537461639d
:102c10006b207570207375636365656465640d0a68
:102c20000000000055736167653a20737461636b3f
:102c3000203c75702f646f776e3e203c7072657318
:102c4000657276653e0d0a0045783a2073746163bb
:102c50006b20646f776e2070726573657276650d98
:102c60000a00000075700000537461636b20616c92
:102c70007265616479207570210d0a005475726e59
:102c800020537461636b20646f776e20616e6420e3
:102c90007468656e207570210d0a000052657374aa
:102ca000617274696e672074686520737461636b08
:102cb000207769746820256420696e746572666186
:102cc00063652873290d0a00646f776e00000000a9
:102cd000537461636b20646f776e3a2063616e6e2c
:102ce0006f7420676574206120737461636b206862
:102cf000616e646c650d0a00537461636b20646fd0
:102d0000776e207375636365656465640d0a000002
:102d100055736167653a206966203c696e74657217
:102d2000666163653e203c646f776e2f75703e2050
:102d30000d0a000045783a20696620504943333235
:102d4000494e5420646f776e200d0a00556e6b6eed
:102d50006f776e20696e746572666163652073704b
:102d600065636966696564200d0a000054686973cb
:102d700020696e7465726661636520616c7265615d
:102d800064792075700d0a005468697320696e7447
:102d900065726661636520616c7265616479206447
:102da0006f776e0d0a00000057726f6e67207061ba
:102db00072616d65746572207370656369666965bb
:102dc00064200d0a000000004f7065726174696f25
:102dd0006e207375636365737366756c210d0a00ed
:102de0004f7065726174696f6e206661696c6564ad
:102df000210d0a0055736167653a207365746d6132
:102e000063203c696e746572666163653e203c7840
:102e10003a783a783a783a783a783e200d0a0000c3
:102e200045783a207365746d6163205049433332ad
:102e3000494e542061613a62623a63633a64643a8b
:102e400065653a6666200d0a0000000061726776cb
:102e50005b325d3a2025730d0a000000496e7661f1
:102e60006c6964204d414320616464726573732012
:102e7000737472696e67200d0a0000005365742038
:102e80004d41432061646472657373206661696caf
:102e900065640d0a000000005365742042494f53d9
:102ea000204e616d65204f4b0d0a00005365742064
:102eb00042494f53204e616d65206661696c6564bf
:102ec0000d0a000055736167653a20736574626985
:102ed0006f73203c696e746572666163653e203c69
:102ee000782e782e782e783e200d0a0045783a20ec
:102ef00073657462696f73205049433332494e548d
:102f0000204d434850424f4152445f3239200d0a10
:102f10000000000053657420676174657761792053
:102f200061646472657373204f4b0d0a00000000ea
:102f30005365742067617465776179206164647298
:102f4000657373206661696c65640d0a000000009a
:102f500055736167653a207365746777203c696ec5
:102f6000746572666163653e203c697076342f3605
:102f700020616464726573733e203c76616c6964a1
:102f800054696d653e200d0a0000000045783a2026
:102f90007365746777205049433332494e5420316a
:102fa00039322e3136382e302e31200d0a000000f5
:102fb0005365742069702061646472657373204f77
:102fc0004b0d0a005365742069702061646472655a
:102fd0007373206661696c65640d0a0055736167df
:102fe000653a207365746970203c696e7465726619
:102ff0006163653e203c697076342f3620616464dd
:10300000726573733e203c697076346d61736b2f0b
:103010006970763620707265666978206c656e3ee0
:103020000d0a000045783a20736574697020504994
:10303000433332494e54203139322e3136382e3016
:103040002e38203235352e3235352e3235352e306c
:10305000200d0a00416e20616464726573732073f1
:1030600065727669636520697320616c726561645d
:10307000792072756e6e696e672e2053746f7020a2
:10308000444843502c205a434c4c2c206574632eea
:103090002066697273740d0a00000000496e766143
:1030a0006c6964204950206d61736b207374726980
:1030b0006e67200d0a0000004e6f20737563682054
:1030c000696e746572666163652069732075700d41
:1030d0000a00000055736167653a20736574646e79
:1030e00073203c696e746572666163653e203c784e
:1030f0002e782e782e783e200d0a000045783a2052
:10310000736574646e73205049433332494e5420c2
:103110003235352e3235352e3235352e30200d0aea
:103120000000000053657420444e532061646472b3
:10313000657373206661696c65640d0a00000000a8
:103140006e6f7420676976656e0000007375636347
:10315000657373006661696c0000000055736167f8
:10316000653a202573203c696e74657266616365fb
:103170003e203c6f6e2f6f66662f72656e65772fef
:10318000726571756573742f696e666f3e200d0ae6
:103190000000000072656e65770000007265717551
:1031a0006573740052657175657374206e6565642e
:1031b0007320616e20495020616464726573730de1
:1031c0000a00000044484350207374617475733ad8
:1031d0002025642028202564203d3d20426f756e07
:1031e00064292c2074696d653a2025640d0a00005d
:1031f00044484350206c6561736520737461727438
:103200003a2025642c206475726174696f6e3a20cf
:103210002564730d0a000000444843502072656e17
:1032200065772074696d653a2025642c207265628b
:10323000696e642074696d653a2025640d0a00008a
:103240004448435020616464726573733a20257367
:103250000d0a000044484350207365727665723a47
:103260002025730d0a0000004448435020626f6f10
:1032700074206e616d653a2025730d0a0000000010
:10328000444843503a206661696c656420746f203d
:1032900067657420696e666f0d0a0000257320252e
:1032a000732025730d0a000073756363657373667d
:1032b000756c00006661696c656421004e6f6e6517
:1032c0000000000073657400676574004465666102
:1032d000756c7420696e74657266616365207365d0
:1032e000742025730d0a000044656661756c7420b6
:1032f000696e746572666163652069733a2025732f
:103300000d0a000055736167653a206465666e6555
:1033100074207365742f676574203c696e746572e0
:10332000666163653e0d0a0045783a206465666e05
:1033300065742073657420657468300d0a000000a0
:1033400055500000444f574e000000005265616424
:10335000790000004e6f74205265616479000000ae
:1033600055736167653a206e6574696e666f0d0a04
:103370000000000045783a206e6574696e666f0d36
:103380000a0000002d2d2d2d2d2d2d2d2d2d204908
:103390006e74657266616365203c25732f25733eec
:1033a000202d2d2d2d2d2d2d2d2d2d200d0a000004
:1033b000496e7465726661636520697320646f7716
:1033c0006e0d0a00486f7374204e616d653a2025ba
:1033d00073202d204e424e5320656e61626c6564f1
:1033e0000d0a00004950763420416464726573739d
:1033f0003a2025730d0a00004d61736b3a20257346
:103400000d0a0000476174657761793a2025730dd4
:103410000a000000444e533a2025730d0a000000b4
:103420004d414320416464726573733a2025730de6
:103430000a0000004950763620556e696361737446
:10344000206164647265737365733a0d0a0000004d
:103450002020202025730d0a0000000020202020bd
:10346000556e6b6e6f776e0d0a0000004950763610
:10347000204d756c74696361737420616464726556
:10348000737365733a0d0a00646863702069732072
:1034900025730d0a000000004c696e6b20697320d3
:1034a00025730d0a000000005374617475733a208f
:1034b00025730d0a0000000064656661756c742058
:1034c000495020616464726573730000257320693c
:1034d00073204f4e0d0a0000646863700000000006
:1034e000444e53204c6f6f6b75703a20444e5320fe
:1034f0006661696c75726520666f722025730d0aae
:1035000000000000444e53204c6f6f6b75703a20e2
:10351000726571756573742074696d656f75742e4d
:103520000d0a00004c6f6f6b757020416e737765ec
:10353000723a0d0a2d2d2d2d2d2d2d2d2d2d2d2dac
:103540002d2d2d2d2d2d2d2d2d2d0d0a00000000a2
:103550004e6f204c6f6f6b757020656e74727920a2
:10356000666f72205b25735d0d0a00005b25735d3d
:103570002041204950763420416464726573732081
:103580003a2025642e25642e25642e25640d0a001c
:103590005b25735d204141414120495076362041f1
:1035a000646472657373203a25730d0a000000008d
:1035b0003a20737461636b20636f6d6d616e647329
:1035c00000000000746370697000000064656c00a6
:1035d0006c6f6f6b757000006e6574696e666f005e
:1035e0003a20476574206e6574776f726b20696e40
:1035f000666f726d6174696f6e0000006465666e5f
:10360000657400003a205365742f47657420646523
:103610006661756c7420696e7465726661636500bd
:103620003a204448435020636c69656e7420636f90
:103630006d6d616e647300006468637073000000f8
:103640003a205475726e2044484350207365727658
:103650006572206f6e2f6f66660000007a636c6c77
:10366000000000003a205475726e205a434c4c20e2
:103670006f6e2f6f66660000736574646e73000072
:103680003a2053657420444e53206164647265731c
:103690007300000073657469700000003a20536580
:1036a00074204950206164647265737320616e6494
:1036b000206d61736b000000736574677700000014
:1036c0003a2053657420476174657761792061649d
:1036d000647265737300000073657462696f7300d0
:1036e0003a2053657420686f73742773204e657495
:1036f00042494f53206e616d650000007365746d23
:10370000616300003a20536574204d414320616499
:103710006472657373000000696600003a204272ab
:10372000696e6720616e20696e746572666163659b
:103730002075702f646f776e0000000073746163f2
:103740006b0000003a20537461636b207475726ed5
:10375000206f6e2f6f66660068656170696e666fb8
:10376000000000003a20436865636b206865617063
:103770002073746174757300617270003a20415255
:103780005020636f6d6d616e64730000646e7363cf
:10379000000000003a20444e5320636c69656e744b
:1037a00020636f6d6d616e64730000006d6163690d
:1037b0006e666f003a20436865636b204d4143207d
:1037c00073746174697374696373000068747470ee
:1037d000000000003a204854545020696e666f7211
:1037e0006d6174696f6e0000737369003a20535302
:1037f0004920696e666f726d6174696f6e000000ba
:10380000616e6e6f756e6365000000003a20416e58
:083810006e6f756e6365000028
:020000040000fa
:020000040040ba
:103818002de9f04f2ded048bcbb08b4691461e461b
:1038280002902df055ff03680f9318462ef044ffc1
:10383800bbf80c30099018061ad5dbf81030bbb964
:103848004021029809f08affcbf80000cbf810005d
:1038580058b9029a0c2313604ff0ff330a930a9861
:103868004bb0bdec048bbde8f08f4023cbf814308f
:103878009fed9b9b002321ac1e9420931f930493e0
:103888001293119306930e9310930a934d462b4669
:1038980013f8012b12b1252a40f08580b5eb0907f2
:1038a8000ed0209bc4f800903b4420931f9b676078
:1038b8000133072b1f9378dc08340a9b3b440a9397
:1038c8002b78002b01f0ef8000226b1c8df85b2019
:1038d8004ff0ff380b9215462b275a1c1b7808927d
:1038e8000393039b203b5a2b00f23e85dfe813f03d
:1038f800a3003c053c05ab003c053c053c058900a4
:103908003c053c05ae00ba003c05b700bd003c05cf
:10391800dd00e000e000e000e000e000e000e000a2
:10392800e000e0003c053c053c053c053c053c0549
:103938003c0559013c0518012a0159015901590151
:103948003c053c053c053c05f4003c053c052f04c2
:103958003c053c053c057e043c059e043c053c05b5
:103968006a003c053c053c053c053c053c053c051e
:103978003c0559013c0518012c015901590159010f
:10398800fe002c0112013c050b013c050704310423
:103998006d0412013c057e046800a0043c053c054a
:1039a800bc043c0568001d4671e71eaa59460298ea
:1039b8001af030f8002840f0418121ac7de71e461e
:1039c800089b8ae7484b1293ab0640f150840736b0
:1039d80026f0070606f10803d6e900670593e9070c
:1039e8000bd556ea070308d030238df85c309df8d4
:1039f8000c308df85d3045f0020525f48065022312
:103a0800b4e302982df064fe4368109318462ef034
:103a180053fe0e9002982df05bfe836806930e9b72
:103a2800002bcdd0069b002bcad01b78002bc7d00b
:103a380045f48065c4e79df85b30002bc0d1202396
:103a48008df85b30bce745f00105b9e732680b92a9
:103a5800002a06f10403b2da52420b921e4645f0e0
:103a68000405ade78df85b70aae7089a089b127801
:103a780003922a2a03f1010311d04ff0000808939a
:103a8800039b303b092b3ff62caf0a2202fb083878
:103a9800089b1a4612f8013b03931346efe7326876
:103aa800089342eae27804368ae745f0800587e71a
:103ab80000230b93039b0b9a303b0a2101fb023333
:103ac8000b93089b1a4612f8013b0393039b089239
:103ad800303b092beed904e745f0080570e700bf35
:103ae8000000000000000000e9e54200089b1b7888
:103af800682b01bf089b0133089345f4007518bf74
:103b080045f040055ce7089b1b786c2b05d1089baa
:103b18000133089345f0200552e745f010054fe7bb
:103b2800331d059333688df8c43000238df85b305e
:103b38009a464ff001080c931f4607931e460df155
:103b4800c409c9e145f01005a90614d5073626f0c1
:103b5800070606f10803d6e900670593002e77f1fa
:103b6800000306da76424ff02d0367eb47078df81e
:103b78005b300123fde215f0100f06f1040303d0ba
:103b880036680593f717e9e76a0603d50593b6f98a
:103b98000060f7e73668059315f4007f18bf76b222
:103ba800f0e7073626f0070606f10803059396edb9
:103bb800009b9fed7f6bb0eec97bb4ee467bf1eec8
:103bc80010fa40f37b87b5eec09bf1ee10fa02d5f0
:103bd8002d238df85b30784b03991a1f4729ccbfea
:103be8009946914625f080054ff0000a4ff00308ea
:103bf800cdf830a000f09fbf039b23f02006412e94
:103c080025d130238df85c30039b612b14bf5823da
:103c18007823b8f1630f8df85d3045f0020521dd9a
:103c280008f10101029809f099fd8146002875d133
:103c3800bbf80c3043f04003abf80c30bbf80c3049
:103c480013f0400f0a9b18bf4ff0ff3306e6b8f198
:103c5800ff3f65d0472e02d1b8f1000f65d04ff075
:103c6800000a03e04ff0000a0df1c40945f480731f
:103c78000d9319ee903a002b5bdab1ee498b2d23a8
:103c8800412e0c9340f08980b0ee480b18a822f022
:103c9800ebffb4ee007b494a20ee070bb5ee400b74
:103ca800f1ee10fa08bf0123039908bf1893a2f197
:103cb8001103612908bf1a4608f1ff334946b3eedc
:103cc800007b20ee070bfdeec06b5f1c16ee900a22
:103cd800165c01f8016bb8eee66b1e4630ee460b3b
:103ce80006d0b5ee400bf1ee10fa03f1ff33e8d140
:103cf800b6ee007bb4eec70bf1ee10fa1ddcb4eea5
:103d0800470bf1ee10fa01d1c00716d40b4630204c
:103d1800f21ad14223d403f8010bf9e78246a5e74a
:103d28004ff0000a4ff00608a0e7c2464ff001081e
:103d38009ce7b0ee498b0023a2e7d67b1c91302785
:103d48001c98431e1c9310f8013cb34222d0392b17
:103d580016bf0133937adbb200f8013c0b46a3eba4
:103d680009030493039b462b05d0652b62dd039b57
:103d7800662b40f08481189b002b40f37881b8f1c2
:103d8800000f01d1e90702d5099a1344434466227a
:103d9800039289e100f8017cd2e7462e10d0452e27
:103da80040f0468108f1010702210be0aff30080e3
:103db800ffffffffffffef7fcce54200e9e5420090
:103dc800474603211cab019319ab00933a4618ab45
:103dd800b0ee480b029804f0bff9472e814601d196
:103de800eb0718d5462e09eb07020dd199f80030dc
:103df800302b07d1b5ee408bf1ee10fa1cbfc7f19e
:103e080001071897189b1a44b5ee408bf1ee10fa8b
:103e180040f017811c921c9b472ea3eb09030493c7
:103e2800a0d1189bde1c02db984580f22881039bf9
:103e3800023b0393039a189822f02002431e412a5a
:103e4800189340f04486039a0f32d2b20121002b16
:103e5800b8bfc0f101038df86820b4bf2d222b2212
:103e6800092b8df8692040f3f5800df177020a26b9
:103e78000a2093fbf0f006fb10333033092802f8d0
:103e8800013c02f1ff31034600f3dd80303301f8d5
:103e9800013c023a0df16a030df17700824219469e
:103ea800c0f0d380049a1aabcb1a012a119303eb02
:103eb800020801dce80701d5099b9844002725f48e
:103ec800806545f4807507973e460c9b23b12d23ea
:103ed8008df85b3000230c930c9b4345b8bf4346d9
:103ee8000d939df85b3013b10d9b01330d9315f0c5
:103ef800020313931ebf0d9b02330d9315f0840329
:103f0800149314d10b9b0d9a9b1a002b0fdda84a12
:103f18002260102b00f33682209a636013442093aa
:103f28001f9b0133072b1f9300f3458208349df82c
:103f38005b3073b10df15b03236001236360209b49
:103f4800013320931f9b0133072b1f9300f33d82fe
:103f58000834139b6bb117ab236002236360209b6b
:103f6800023320931f9b0133072b1f9300f33782e3
:103f78000834149b802b14d10b9b0d9a9b1a002b91
:103f88000fdd8c4a2260102b00f33382209a636085
:103f9800134420931f9b0133072b1f9300f3428286
:103fa80008340c9ba3eb0803002b0c9312dd0c9b2d
:103fb800102b804b236000f33f820c9b63600c9aac
:103fc800209b134420931f9b0133072b1f9300f35f
:103fd8004c820834eb0500f15582209bc4f8009010
:103fe8004344c4f8048020931f9b0133072b1f937d
:103ff80000f30e8508346b0700f113850a9b0b9ab2
:104008000d998a42acbf9b185b180a93209b3bb161
:104018001eaa5946029819f0fdfc002840f01e859a
:1040280000231f93baf1000f40f0378521ac72e0ee
:104038004746b9e6581c1c9019701c9b9a42f9d83f
:10404800e9e63021f9e70a4611e712f8011b03f8ff
:10405800011b23e741b930228df86a200df16b026c
:104068003033511c13701de70df16a02f8e7b8f1ff
:10407800000f01d1ea0714d5099b013386e6189a87
:10408800049b9a4205dbeb0722d5099b1344672260
:104098007ee6049b0999002a0b44f8dcc2f1010270
:1040a800f4e766230393012315f4806f189a20d050
:1040b800161e1edd00270797069a1278ff2a09d1d7
:1040c800079a0d9d02eb07080e9a02fb0838fce6da
:1040d8001346dce79642f3ddb61a069a527832b1f7
:1040e800079a01320792069a01320692e4e70137ed
:1040f800e2e70027164698460d9d0797e5e615f076
:10410800200f06f104030bd00a9a05933368104672
:10411800d117c3e90001059eddf82090fff7b6bb73
:10412800ef0604d5059333680a9a1a60f3e7680620
:1041380005d505933368bdf828201a80ebe7a90553
:10414800f0d5059333689df828201a70e3e745f009
:104158001005aa0625d5073626f0070606f1080336
:10416800d6e90067059325f48065002300228df8c1
:104178005b20b8f1ff3f00f0af8456ea070225f054
:10418800800a40f0ae84b8f1000f00f0e280012b05
:1041980000f08580022b00f0c8800026002700f080
:1041a800a6bc331d15f0100f059305d0366806e040
:1041b800e0264300f02643006b0602d53688002728
:1041c800d1e7af05f2d53678f9e7331d05933023eb
:1041d80078228df85c30aa4b129336688df85d20f2
:1041e800002745f0020502230392bfe7331dd6f8e6
:1041f800009005930026b8f1ff3f8df85b600fd063
:104208004246314648461ef0a7ff824600283ff442
:10421800efaca0eb0908b2460c96374607965be66a
:1042280048462ef049fab2468046e1e445f01005ca
:10423800a80609d5073626f0070606f10803d6e9c9
:1042480000670593012391e7331d15f0100f0593bf
:1042580001d0366802e0690602d536880027f1e702
:10426800aa05f6d53678f9e7854bfff7acbb331dc1
:1042780015f0100f059301d0366802e06f0603d5dc
:1042880036880027fff7abbba805f5d53678f8e7e1
:104298004b4600f02dbc002f08bf0a2e06d20df5a4
:1042a8009479303609f8016d00f03dbc0023049381
:1042b8000af480634aad07930a2200233046394640
:1042c8002af0b8fc049b01330493079b303205f1b4
:1042d800ff3905f8012cd3b1069b049a1b789a4242
:1042e80015d1ff2a13d0002f08bf0a2e0fd30e9b1b
:1042f8001099a9eb03091a4648462bf0e4f9069be6
:104308005b781bb1069b01330693002304930023bb
:10431800304639460a222af08dfc06460f4656eaf0
:10432800070300f000844d46c6e7002600270df578
:10433800947906f00f03129ad35c09f8013d33090a
:1043480043ea07733a091e46174656ea0703f0d1af
:10435800e9e30df59479002b40f0e583ea0744bfc3
:10436800302309f8013ddee3039b002b00f09b831b
:104378009df80c308df8c43000238df85b3005961d
:10438800fff7d6bb10226260209a103220921f9a43
:104398000132072a1f9202dc0834103bb7e51eaa37
:1043a80059460298159319f035fb002840f05683ba
:1043b80021ac159bf1e71eaa5946029819f02afb71
:1043c800002840f04b8321acb1e51eaa594602985b
:1043d80019f020fb002840f0418321acb9e51eaa62
:1043e8005946029819f016fb002840f0378321ac93
:1043f800bfe510226260209a103220921f9a013283
:10440800072a1f9202dc0834103bbae51eaa594657
:104418000298139319f0fefa002840f01f8321ac8c
:10442800139bf1e71eaa5946029819f0f3fa0028df
:1044380040f0148321acb4e510236360209b103353
:1044480020931f9b0133072b1f9304dc08340c9b1c
:10445800103b0c93abe51eaa5946029819f0dafafc
:10446800002840f0fb8221acf1e71eaa59460298c9
:1044780019f0d0fa002840f0f18221acaae500bf7b
:10448800d8e54200039b652b40f33882b5ee409b8c
:10449800f1ee10fa5cd16d4b236001236360209b21
:1044a800013320931f9b0133072b1f9325dc08340e
:1044b800189b049a934202dbef077ff59cad0f9b94
:1044c8002360099b6360099a209b134420931f9bd8
:1044d8000133072b1f931adc0834049b5e1e002e41
:1044e8007ff789ad5a4f4ff01008102e276018dc5f
:1044f8006660209b1e44209676e51eaa59460298bf
:1045080019f088fa002840f0a98221acd0e71eaa49
:104518005946029819f07efa002840f09f8221ac93
:10452800dbe7209bc4f80480103320931f9b0133e2
:10453800072b1f9302dc0834103ed6e71eaa594603
:10454800029819f067fa002840f0888221acf3e756
:10455800189b002b7edc3d4b236001236360209b6e
:10456800013320931f9b0133072b1f9344dc08342e
:10457800189b23b9049b13b9ee077ff53cad0f9b3d
:104588002360099b6360099a209b134420931f9b17
:104598000133072b1f9339dc04f10803189e002e02
:1045a80019da2b4f76421024102e1f6038dc209a1f
:1045b8005e6016441f9a20960132072a03f1080309
:1045c8001f9208dd1eaa5946029819f023fa0028fe
:1045d80040f0448221ab049a5a600499209ac3f8a7
:1045e80000900a4420921f9a0132072a1f9200f372
:1045f8000f8203f10804fee41eaa5946029819f036
:1046080009fa002840f02a8221acb1e71eaa5946cf
:10461800029819f0fff9002840f0208221abbde78d
:10462800209a5c60103220921f9a0132072a1f924a
:1046380002dc0833103eb7e71eaa5946029819f063
:10464800e9f9002840f00a8221abf3e7fae54200d5
:10465800f0264300049bb342a8bf3346002b98467c
:104668000bdd6360209bc4f80090434420931f9b9c
:104678000133072b1f9372dc0834b8f1000facbf6d
:10468800a6eb0808b046b8f1000f0fdd9a4b23607f
:10469800b8f1100f6ddc209bc4f8048043442093cc
:1046a8001f9b0133072b1f937bdc083468054e449e
:1046b80009d5079b002b7ed1002f7ed1049b4b444c
:1046c8009e4228bf1e46189b049a934201dbe907c5
:1046d8000ed50f9b2360099b6360099a209b1344a6
:1046e80020931f9b0133072b1f9300f3e7800834a7
:1046f800049b049a09eb0307bb1b189fd71b9f4217
:10470800a8bf1f46002f0bdd209b3b4420931f9b17
:104718000133072b84e8c0001f9300f3d9800834c5
:10472800189e049b002fa3eb0606a8bff61b002ebd
:104738007ff761ac704f4ff01008102e27607ff79d
:10474800d7ae209bc4f80480103320931f9b0133fd
:10475800072b1f9300f3c6800834103eede71eaa0e
:104768005946029819f056f9002840f0778121ac93
:1047780083e710236360209b103320931f9b013332
:10478800072b1f9303dc0834a8f110087ee71eaa44
:104798005946029819f03ef9002840f05f8121ac93
:1047a800f2e71eaa5946029819f034f9002840f099
:1047b800558121ac7ae7002f43d0013f109b23603d
:1047c8000e9b63600e9a209b134420931f9b01331a
:1047d800072b1f933cdc0834049b4b449a1b069b15
:1047e8001b789342a8bf1346002b98460add209bee
:1047f800434420931f9b0133072b84e840011f93f8
:1048080030dc0834069b1b78b8f1000facbfa3eb73
:1048180008089846b8f1000f0fdd374b2360b8f150
:10482800100f29dc209bc4f80480434420931f9b6d
:104838000133072b1f9337dc0834069b1b781e4473
:1048480037e7069b013b0693079b013b0793b5e7b8
:104858001eaa5946029819f0ddf8002840f0fe809b
:1048680021acb9e71eaa5946029819f0d3f80028d6
:1048780040f0f48021acc5e710236360209b10331f
:1048880020931f9b0133072b1f9303dc0834a8f1e7
:104898001008c2e71eaa5946029819f0bbf800286a
:1048a80040f0dc8021acf2e71eaa5946029819f0c4
:1048b800b1f8002840f0d28021acbee71eaa5946c4
:1048c800029819f0a7f8002840f0c88021ac0fe73b
:1048d8001eaa5946029819f09df8002840f0be809b
:1048e80021ac1de71eaa5946029819f093f8002832
:1048f80040f0b48021ac30e7f0264300049b012b44
:1049080001dcea0773d501236360209bc4f800909b
:10491800013320931f9b0133072b1f9334dc08348a
:104928000f9b2360099b6360099a209b1344209383
:104938001f9b0133072b1f932fdc04f10803049af4
:10494800b5ee409bf1ee10fa02f1ff362ed009f1d8
:10495800010283e84400209a0499013a0a4420920b
:104968001f9a0132072a1f9250dd1eaa5946029843
:1049780019f050f8002871d121ab1aaa1a60119abf
:104988005a601199209a2ce61eaa5946029819f0e5
:1049980041f8002862d121acc2e71eaa5946029804
:1049a80019f038f8002859d121abc8e7002ee4dd0a
:1049b800644f1024102e1f6004dc209a5e60164499
:1049c8002096cde7209a5c60103220921f9a01321f
:1049d800072a1f9202dc0833103eebe71eaa59464d
:1049e800029819f017f8002838d121abf4e7012311
:1049f8006360209bc4f80090013320931f9b013310
:104a0800072b1f93b1dc04f10803b6e70833b4e7ba
:104a18001eaa5946029818f0fdfff8b921acfff715
:104a2800eaba0b9b0d9a9d1a002d7ff7e7aa464e0e
:104a38001027102d26601bdc209b65601d441f9be2
:104a480020950133072b1f937ff7d8aa1eaa594632
:104a5800029818f0dfff00283ff4d0aabaf1000f3f
:104a68003ff4eca85146029814f052f8fff7e6b864
:104a7800209b6760103320931f9b0133072b1f93e4
:104a880002dc0834103dd4e71eaa5946029818f0f3
:104a9800c1ff0028e2d121acf4e75146029814f096
:104aa80037f8fff7c3ba209b002b3ff4c7a81eaa0c
:104ab8005946029818f0aefffff7c0b8b4ee499b0c
:104ac800f1ee10fafff598a8204bfff785b89df88e
:104ad8000c200021fff7bbb956ea0702aa463ff4ab
:104ae80056ab012b3ff4d7ab022b3ff420ac4aabbb
:104af800f10841ea4771f80806f0070207460e4632
:104b0800303256ea070103f1ff3903f8012c7ff42c
:104b1800bfab1af0010f06d0302a04d0302209f8b2
:104b2800012ca3f102094aabcdf830805546a3eb1e
:104b380009084ff0000a5746cdf81ca05646fff763
:104b4800cbb900bff0264300e0264300d4e542007d
:020000040000fa
:020000040040ba
:104b58002de9f04fa9b0329fbdf8cc90bdf8d040f8
:104b680002949df8d4b09df8d8a00225cd850028e0
:104b780033d003901c4605920d462cf0b7ff0490e5
:104b88001eae38687968ba68fb680fc622ae20681e
:104b98006168a268e3680fc64fea092343ea19234c
:104ba8009bb226934ff00008adf89c808df89e804c
:104bb8003a238df89f30424628211ea823f043fa55
:104bc800064642464946a86923f03dfaf643b6b27e
:104bd800864205d04ff6f673eb8529b0bde8f08f15
:104be800029928462df0fcfd14a928462df080ffd7
:104bf8009df85030852b00f08f800ed9882b19d85e
:104c0800872b80f09480baf1050fe6d00f220df1c2
:104c1800510128462ef048f81ee0ebb1042b15d9b7
:104c2800803b012b18d807220df1510128462ef0a0
:104c38003bf811e0892b0fd1baf1050fcdd027220f
:104c48000df1510128462ef02ff805e007220df14d
:104c5800510128462ef028f8bdf85220130a43eadd
:104c68000223adf852309df85030812b66d8802b46
:104c780080f0ba80022b40f0c580159b1a0e42eadc
:104c88000362190201f47f010a431b0a03f47f43fc
:104c980013431593a9f108039bb2272b9dd92846e6
:104ca8002ef008f900f1180128462ef049f81022d4
:104cb80022a928462df0f8ff9df88830ff2b00f038
:104cc8002f81022222a9039820f02efa06460028f6
:104cd80000f05681049b1b8f159a934238bf159399
:104ce800159b028b9a4240f22081038328f0fafc3c
:104cf800804689462df06effb54bb0fbf3f34ff4b9
:104d0800167a0afb03fab24a00234046494629f0bc
:104d180091ff5044706108e1baf1050f3ff45dafaf
:104d280007220df1510128462df0beff94e7172206
:104d38000df1510128462df0b7ff8de7862b61d183
:104d4800bdf85620130a43ea0223adf85630179be4
:104d58001a0e42ea0362190201f47f010a431b0a90
:104d680003f47f4313431793169b1a0e42ea036218
:104d7800190201f47f010a431b0a03f47f4313431a
:104d880016933946039820f097fd00f00f0002288b
:104d98007ff423afbbf1ff0f7ff41faf9df85130b5
:104da800002b7ff41aafb9f1100f7ff616af8df80c
:104db80048308df828308df82030029b03f1100a16
:104dc8001ffa8afa514628462df00afda9f1100962
:104dd8001ffa89f9b9f1000f00f0f4814e464ff03f
:104de800020b4ff0030889e1bdf854100a0a42eaa1
:104df8000122adf85420bdf856100a0a42ea0122f1
:104e0800adf85620802b00f0e78057d9872b00f0ab
:104e18001f8371d9882b00f0bc83892b7ff4ddae0a
:104e28003946039c204620f047fd00f00f00022879
:104e38007ff4d3aebbf1ff0f7ff4cfae9df85130b6
:104e4800002b7ff4caaeb9f1270f7ff6c6ae9df8e6
:104e58006830ff2b3ff4c1ae10221aa916a82cf017
:104e6800a3f940b116a9204620f026fd00f0300035
:104e780010287ff4b2ae1aa903981ef0ddfe014691
:104e880000283ff4aaae1022043138462cf08cf9e1
:104e980000287ff4a2ae0299283189b228462df065
:104ea8009ffca9f12804a4b200238df84830002cf7
:104eb80000f0a4840226012700f07dbc022b3ff4f9
:104ec800e9ae0dd9032b79d0042b7ff486ae14ab51
:104ed80000933b4622460421039827f03dfd7ce6db
:104ee800012b7ff47aae14ab00933b462246012196
:104ef800039827f031fd70e6812b0dd114ab009398
:104f08003b4622468121039c204627f025fd394651
:104f1800204629f08dff60e6862b7ff45eae30e7f1
:104f2800159b049a528f9a4211d82a4b1b68002b62
:104f38003ff453ae082128462df052fc14ab0093e1
:104f48003b4622460221039827f006fd45e6049acf
:104f5800538728f0c7fb804689462df03bfe1c4b43
:104f6800b0fbf3f34ff4167606fb03f6184a00235a
:104f78004046494629f05efe3044049a5063d4e71f
:104f8800159b049a128f9a42cfd9049a138728f056
:104f9800a9fb804689462df01dfe0d4bb0fbf3f3af
:104fa8004ff4167606fb03f6094a002340464946a5
:104fb80029f040fe3044049a5063b6e714ab0093de
:104fc8003b4622460321039827f0c6fc05e600bfae
:104fd800f0490200b85e402014ab00933b462246dd
:104fe8008021039c204627f0b7fc0299083189b23a
:104ff80028462df0f5fb394620461ef01dfe0446d6
:1050080000283ff4eaad059e0836baf1010f30d00a
:10501800aaf10303dbb2012b3ff6dfad00223946cc
:10502800ddf80c8040461cf0e9fa00283ff4d5adc5
:10503800bdf856300193bdf85430009381233a46a9
:105048003146404622f0c6fd064600283ff4c5ad6d
:10505800a9f10807bfb2394620f0eaf8a9f1080912
:10506800484532da4ff6ef73eb8530462cf046f9b7
:10507800b3e5bdf856300193bdf854300093812351
:105088003a463146039822f0a5fd064600283ff42b
:10509800a4ada9f10807bfb2394620f0c9f8a9f1b3
:1050a8000809484506da4ff6ef73eb8530462cf0d1
:1050b80025f992e53b460222294630461cf0e3f8e2
:1050c800746230462df07efb87e53b460222294676
:1050d80030461cf0d8f8746230462df073fb7ce53e
:1050e800062c7ff47aad01238df8483006220df1a5
:1050f8004a0128462df0d8fd002e63d05a4607a94c
:1051080028462df0d1fd9df81c209df81d10cb00e0
:1051180000293ff462adf61ab6b2023b9cb2032aec
:105128000bd0052a34d0012adad028462df0c2fe49
:10513800011928462df004fedee71e2c7ff44dad44
:105148008df828801e220df12a0128462df0acfd8d
:105158008df8288020238df829300b9b1a0e42eaff
:105168000362190201f47f010a431b0a03f47f4317
:1051780013430b930c9b1a0e42ea0362190201f4c3
:105188007f010a431b0a03f47f4313430c93b3e7dd
:10519800062c7ff422ad05238df8203006220df170
:1051a800220128462df080fd099b1a0e42ea03626f
:1051b800190201f47f010a431b0a03f47f431343d6
:1051c800099399e7039c204629f024fb0299284675
:1051d8002df006fb0022394620461ff0a5ff804629
:1051e80000286fd044689df8543013b1049a82f8af
:1051f8003c30169e9eb1049b9b6a9e420cd028f0c0
:1052080063fbc3b2803306fb03f31b0a4ff47a72c5
:10521800b3fbf2f3049ad362169b049a9362179b2a
:105228000bb1049a1363bdf85630002b00f08b8045
:10523800b8f1000f48d0bdf85630c8f8083028f04b
:1052480051faca4a002329f0f5fcc8f80c00d8f82e
:105258000440002c00f02d8394f8303043f0010313
:1052680084f830309df84830002b7ed19df82830e6
:10527800002b40f08c809df82030002b3ff4adac23
:10528800099ba3f5a062db2a3ff6a7ac049a138713
:1052980028f028fa06460f462df09cfcb34bb0fbcd
:1052a800f3f34ff4167505fb03f5b04a00233046b7
:1052b800394629f0bffc2844049d6863ab6d099a00
:1052c80091b2b8e000248ee70122394603981ff016
:1052d8002bff0446d0b19df848306bb106220df182
:1052e8004a0114302bf060ff30b104230df14a025b
:1052f8002146039822f078f8bdf8562021460398f5
:1053080027f0aafb8046002895d166e49df848302e
:1053180073b1059b01930123009304230df14a0205
:10532800394603981df046fc0446002ce4d154e4a9
:10533800059b0193012300930022394603981df031
:1053480039fc0446f1e7b8f1000f04d000224146c9
:1053580003981cf061fb002c7ff47eaf01223946d4
:1053680003981ff0e1fe044673e706220df14a0197
:1053780004f114002bf018ff00283ff477af042342
:105388000df14a022146039822f02ef86ee75146a5
:1053980028462df025fa02262ee01e220df12a01bc
:1053a80028462df081fc03238df8283002378df82c
:1053b80029700b9b1a0e42ea0362190201f47f015d
:1053c8000a431b0a03f47f4313430b930c9b1a0ee7
:1053d80042ea0362190201f47f010a431b0a03f43b
:1053e8007f4313430c930aa9039f384624f05ffcbc
:1053f8000aa938461bf0b6fbb9f1000f3ff43bafe2
:10540800324607a928462df04ffc9df81d30db00d9
:10541800a9eb03091ffa89f9023b9fb29df81c30da
:10542800032bbad028462df045fdc11928462df08a
:1054380087fce1e71b68002b3ff4cfabd8698442b7
:10544800f8d1188b8242f5d81983686b5861f1e757
:1054580016a9039820f030fa00f0300030283ff405
:10546800bcabbbf1ff0f7ff4b8ab9df85130002bfc
:105478007ff4b3abb9f1170f7ff6afab02991831d0
:1054880089b228462df0acf9a9f118081ffa88f856
:1054980000238df84830b8f1000f00f01c824ff05f
:1054a800020a4ff00109464608e028462df002fda1
:1054b80000eb080128462df043fc16b3524607a915
:1054c80028462df0f1fb9df81c209df81d30002b7f
:1054d8003ff483abdb00f61ab6b2023b1ffa83f83f
:1054e800012ae2d1b8f1060f7ff477ab8df8489026
:1054f8008df8499006220df14a0128462df0d4fb7b
:10550800dbe7102239461a482bf04efec0b20028bd
:1055180040f043829df84830012b3ff45eab2046b3
:1055280026f002f900283ff458ab052216a9039883
:1055380024f000f90346002800f0458200211846af
:1055480024f05cfdfff749bb06220df14a01143037
:105558002bf02afe002800f0f58104230df14a0201
:105568002146039821f040ffece100bff04902001a
:105578001025430020462bf0c1fefff72ebb002864
:1055880040f0e081fff729bb28462bf0b7fefff774
:1055980024bb16a9039820f08ff900f030003028ba
:1055a8003ff41babbbf1ff0f7ff417ab9df85130f5
:1055b800002b7ff412abb9f1170f7ff60eabbaf1df
:1055c800030f10d00299183189b228462df008f936
:1055d800a9f11804a4b200238df84830002c43d058
:1055e800022601271de09df8543013f0400f7ff488
:1055f800f4aa0299183189b228462df0f1f8a9f1d8
:105608001804a4b200238df84830002ce8d130e00b
:1056180028462df04ffc00eb080128462df090fba2
:1056280014b3324607a928462df03efb9df81c20ee
:105638009df81d30002b3ff4d0aadb00e41aa4b279
:10564800023b1ffa83f8022ae2d1b8f1060f7ff471
:10565800c4aa8df848608df8497006220df14a01f8
:1056680028462df021fbdbe7aaf10303dbb2012b6f
:1056780005d89df8543013f0400f7ff4aeaa0522e8
:1056880016a9039824f056f820b1012124f0b6fc9d
:10569800fff7a3ba012216a9039824f04bf80028b3
:1056a8007ff49baa012216a903981ff03dfd04462a
:1056b80000283ff492aa857e6b1edbb2012b1fd80f
:1056c8009df84830022b7ff488aa9df8543013f0d7
:1056d800400f14bf032304230df14a020146039827
:1056e80021f082fe9df95430002b94f83030b4bf7d
:1056f80043f001036ff3000384f83030fff76dba0d
:105708009df84830022b40f0518106220df14a01e4
:1057180014302bf049fd80b29df8543013f0200f5f
:105728000ad148b1032d7ff458aa042221460398d0
:105738001af028fbfff751ba002800f0398128aa8f
:1057480052f8561d61619288228313f0400f00f0d1
:1057580034810322214603981af014fb9df8543033
:10576800db0994f8302002f001029a423ff435aa8e
:1057780094f8302063f3000284f8302012f0010f0f
:105788007ff42baa002216a9039c20461ff0ccfc0c
:10579800014600283ff421aa002220461cf03cf9cb
:1057a800fff71bba28462df085fb00eb08012846b9
:1057b8002df0c6fa14b3324607a928462df074fa1c
:1057c8009df81c209df81d30002b3ff406aadb0035
:1057d800e41aa4b2023b1ffa83f8022ae2d1b8f114
:1057e800060f7ff4faa98df848608df849700622f3
:1057f8000df14a0128462df057fadbe710221aa9c5
:1058080016a82bf0d1fc0646051c18bf012501225d
:1058180016a903981ff088fc044658bb9df8483029
:10582800022b1cd1059b0193009504230df14a021c
:1058380016a903981df0bef90446002c3ff4cda923
:1058480002221aa903981ff06ffc78bb2346049a1a
:10585800128f1aa903981ef095fffff7beb9059b92
:10586800019300950123002216a903981df0a2f9bf
:105878000446e2e72eb190f8303043f0010380f897
:1058880030309df84830022bdad106220df14a015a
:1058980004f114002bf088fc0028d1d004230df16a
:1058a8004a022146039821f09ffdc9e7c461fff72a
:1058b80094b99df84830002b3ff4d8ac059b019370
:1058c8000123009304230df14a02394603981df081
:1058d80071f90446cae41022394656482bf064fc94
:1058e800c0b200283ff41bae052216a9039823f086
:1058f80021ff00287ff471a9012216a9039823f03b
:1059080019ff054600283ff468a901223946039883
:105918001ff00afc04469df84830012b7ff42fae97
:1059280000287ff411ae059b019300230093042304
:105938000df14a02394603981df03cf90446002847
:105948003ff44ba901260196009616ab221d05f1de
:105958000801039f38461ff02df8054602238df8ed
:1059680048308df849603b4653f83c2fcdf84a2023
:105978009b88adf84e3008211ff05afc00283ff4f0
:1059880003ae0823032212a928461bf07cfc6c6294
:1059980028462cf017fffff720b9052216a903980f
:1059a80023f0c8fe00287ff418a9a5e79df8543015
:1059b80013f0400f3ff4d2aecbe604222146039801
:1059c8001af0e0f9cae6012216a9039823f0b2fefc
:1059d800014600283ff401a9012301930023009305
:1059e80016ab154a0831039d28461ef0e3ff04460e
:1059f80000283ff4f2a802238df8483001238df8df
:105a080049302b4653f83c2fcdf84a209b88adf8f7
:105a18004e3008211ff00cfc00283ff4abad0823e2
:105a2800032212a920461bf02efc20462cf0cafea9
:0c5a3800fff7d3b810254300f024430012
:020000040000fa
:020000040040ba
:105a44002de9f04f97b0c36dc26803eb020ede4b35
:105a54009e44c26c0eebf262416d846d81ea040ec9
:105a6400016d0eea010e8eea040e9644026d4feab1
:105a7400b202416d81ea020cc16c0cea010c416d69
:105a84008cea010c21460469214419448c440ceb32
:105a9400fe6cc16c4feab107d0f8148082ea070aa1
:105aa4000aea0e0a8aea020a416d414419448a4408
:105ab4000aebfc6a4feabe0ed0f818b087ea0e096a
:105ac40009ea0c0989ea07090beb03010a4491442a
:105ad40009ebfa694feabc0c8eea0c0606ea0a06e0
:105ae40086ea0e06c2691a4417443e4406ebf96678
:105af4004feaba0a8cea0a0505ea090585ea0c05a3
:105b0400026a1a449644754405ebf6654feab909ee
:105b14008aea0904344084ea0a04426a1a4494442e
:105b2400644404ebf5644feab60689ea06012940a9
:105b340081ea0901826a1a449244514401ebf461f6
:105b44004feab50586ea050222407240c76a1f443f
:105b5400b9444a4402ebf1624feab40485ea04070b
:105b64000f4087ea050c076b07eb030e76440ceb3a
:105b7400060707ebf2674feab10184ea010e0eea69
:105b8400020e8eea040e466b1e443544ae440eeb00
:105b9400f76e4feab20281ea020c0cea070c8ceab7
:105ba400010c856b1d442c44a4440cebfe6c4feaa1
:105bb400b70782ea070a0aea0e0a8aea020ac46beb
:105bc4001c4421448a440aebfc6a4feabe0e87ea6d
:105bd4000e0909ea0c0989ea0709016c19440a4407
:105be400914409ebfa694feabc0c8eea0c0606ea0a
:105bf4000a0686ea0e06426c1a4417443e4406eb33
:105c0400f9664feaba0a8cea0a0505ea090585ea43
:105c14000c05826c1a449644754405ebf6654fea0c
:105c2400b909c26882ea080ec26a8eea020e026ce0
:105c34008eea020e4feafe728aea0904344084eacc
:105c44000a0401921a449444644404ebf5644fea50
:105c5400b606016981ea0b02016b4a40416c4a4075
:105c64004feaf2710f4689ea0601294081ea0901e7
:105c74000797fa189244514401ebf4614feab505d1
:105c8400c769be4688ea0702476b7a40876c7a4048
:105c94004feaf27786ea05022240724003971f44d6
:105ca400b9444a4402ebf1624feab409046a8bea4c
:105cb4000407846b6740019c67404feaf77485eae8
:105cc40009070f406f400494234433441f4407ebf7
:105cd400f2674feab101466a8eea0606c36b5e407c
:105ce400079b5e404feaf67389ea010888ea0208d6
:105cf4000293dff8d8e09e447544a84408ebf768a3
:105d04004feab202056a866a7540066c7540039ec6
:105d140075404feaf57381ea020c8cea070c039391
:105d2400dff8a8e09e4409eb0e04a4440cebf86ce5
:105d34004feab707456ac36a85ea0304456c6c40b9
:105d4400049d6c404feaf47382ea070e8eea080e53
:105d5400049303f1dd4909f5b30909f5d74909f1bc
:105d6400210949448e440eebfc6e4feab808816a5f
:105d74008946016b89ea0101846c6140029c61409f
:105d84004feaf17387ea080b8bea0c0b059303f1d6
:105d9400dd4909f5b30909f5d74909f121094a444f
:105da40093440bebfe6b4feabc0cc16a426b4a4056
:105db400019b5a4003994a404feaf27288ea0c0a5e
:105dc4008aea0e0a04e000bf9979825aa1ebd96edf
:105dd4000692dff8b89691444f44ba440aebfb6a42
:105de4004feabe0e016b846b81ea0407079a5740a1
:105df400049c67404feaf7773c468cea0e0989ea2f
:105e04000b0907f1dd4707f5b30707f5d747213736
:105e1400b844c14409ebfa694feabb0b416bc76b49
:105e24004f40774005994f404feaf7778eea0b08c9
:105e340088ea0a08079707f1dd4707f5b30707f56e
:105e4400d7472137bc44e04408ebf9684feaba0a63
:105e5400816b8c46016c8cea01076f4006994f40b8
:105e64004feaf77739468bea0a0787ea0907089168
:105e7400dff818c68c44e644774407ebf8674fea2a
:105e8400b909c16b8e46416c8eea010e02998eea05
:105e9400010e0d948eea040e4feafe7e71468aeae4
:105ea400090e8eea080e099101f1dd4c0cf5b30cd4
:105eb4000cf5d74c0cf1210ce344f3440bebf76bda
:105ec4004feab808046ca646846c8eea040e039c60
:105ed4008eea040e079c8eea040e4feafe7e744698
:105ee40089ea080e8eea070e0a9404f1dd4c0cf5db
:105ef400b30c0cf5d74c0cf1210ce244f2440aeb40
:105f0400fb6a4feab707416c81ea030e049c8eeaf0
:105f1400040e08998eea010e4feafe7e734688ea63
:105f2400070e8eea0b0e0e9303f1dd4c0cf5b30c49
:105f34000cf5d74c0cf1210ce144f14409ebfa695e
:105f44004feabb0b816c144681ea020e059a8eea75
:105f5400020e09998eea010e4feafe7e87ea0b0cc7
:105f64008cea0a0ccdf83ce00ef1dd4e0ef5b30ed2
:105f74000ef5d74e0ef1210ef044c4440cebf96c2f
:105f84004feaba0a019b9e4633468eea060e069aeb
:105f94008eea020e0a998eea010e4feafe768bea29
:105fa4000a0888ea09080b96dff8e0e4b644774467
:105fb400b84408ebfc684feab90984ea05070d9a6e
:105fc40057400e9e77404feaf7778aea090e8eea29
:105fd4000c0e0c9707f1dd4707f5b30707f5d74714
:105fe4002137bb44de440eebf86e4feabc0c029f33
:105ff4005f40079c67400f9c67404feaf7731c465d
:1060040089ea0c0787ea080703f1dd4b0bf5b30bac
:106014000bf5d74b0bf1210bda44574407ebfe6722
:106024004feab808039e85ea060a089b8aea030a2f
:106034000b9d8aea050a4feafa7a8cea080b8bea86
:106044000e0bcdf844a00af1dd4a0af5b30a0af5ad
