:020000040000fa
:020000040040ba
:10000000f8ef4520edf04300d9c84400dfc84400b4
:10001000ebc84400f1c84400f7c8440000000000e9
:1000200000000000000000000000000031a44400b7
:10003000e5c844000000000061f34300555d440042
:10004000c7714100c7714100c7714100c7714100cc
:10005000c7714100c7714100b9724400c7714100c6
:10006000c771410000000000c7714100c771410025
:10007000c7714100c771410045e34300c7714100aa
:10008000c7714100c7714100c7714100c77141008c
:10009000c7714100390f4200c771410031734400fc
:1000a000c7714100c7714100c7714100c77141006c
:1000b000c7714100c7714100c7714100c77141005c
:1000c000c7714100c7714100c7714100c77141004c
:1000d000c7714100c7714100c77141007fc744002b
:1000e000c7714100c7714100c7714100c77141002c
:1000f000c7714100c7714100c7714100c77141001c
:10010000c7714100c7714100c7714100c77141000b
:10011000c771410000000000000000000000000066
:10012000c7714100c7714100c7714100c7714100eb
:10013000c7714100c7714100c7714100c7714100db
:10014000c7714100c7714100c7714100c7714100cb
:10015000c7714100c7714100c7714100c7714100bb
:08016000c7714100c7714100a5
:020000040000fa
:020000040040ba
:10016800f8b500bff8bc08bc9e46704745c54400ba
:10017800a9dc4300f8b500bff8bc08bc9e46704730
:0401880085dc4300cf
:020000040000fa
:020000040040ba
:08018c00ac6701000100000056
:020000040000fa
:020000040040ba
:10019400f85c40201c00000000000000ac5f402020
:1001a40004000000000000006c4d4020000200002c
:1001b40000000000205f40200c000000010000004f
:1001c40000000000cca540000a10207dbc5b40204c
:1001d4002800000000000000b05f40200400000080
:1001e40000000000b45f4020040000000000000094
:1001f400b85f40200400000000000000bc5f402005
:100204000400000000000000c05f40200400000063
:1002140000000000c45f4020040000000000000053
:10022400c85f40200400000000000000ec5540209e
:10023400a800000000000000785d402014000000c9
:100244000100000088e24000b8e14000bce1400049
:10025400c4e14000c8e14000cc5f4020040000003d
:1002640000000000d05f40200400000000000000f7
:10027400aa5f402002000000000000006a4d4020f8
:100284000200000000000000d45f402004000000d1
:1002940000000000d85f40200400000000000000bf
:1002a400d75c40200100000000000000dc5f40201b
:1002b4000400000000000000e05f40200400000093
:1002c400000000002c5f40200c0000000000000033
:1002d400e45f40200400000000000000385f40207c
:1002e4000c000000000000004a58402002000000fa
:1002f4000000000012624020020000000000000024
:10030400e85f40200400000000000000445f40203b
:100314000c00000000000000ec5f4020040000001e
:1003240000000000146240200200000000000000f1
:10033400f75c40200100000000000000166240202d
:100344000200000000000000f05f402004000000f4
:1003540000000000f45f40200400000000000000e2
:10036400585c40202000000000000000f85f40209e
:100374000400000000000000fc5f402004000000b6
:1003840000000000006040200400000000000000a5
:1003940004604020040000000000000008604020c9
:1003a40004000000000000000c6040200400000075
:1003b4000000000010604020040000000000000065
:1003c4001460402004000000000000001860402079
:1003d4000400000000000000085440202801000030
:1003e4000100000028d84100a5eb430034d84100a7
:1003f40031d1430040d84100a1d143004cd8410041
:10040400a5a7440058d84100eda7440064d8410092
:10041400ada4430068d841009d6d430074d84100e9
:1004240011a844007cd8410035a8440084d8410078
:1004340059a844008cd84100258e430090d841002f
:100444004d26440094d841007da84400a0d8410022
:1004540011a14400a8d8410035ba4400b4d84100e1
:100464004dba4400c0d8410071624400ccd8410068
:10047400b1bc4300d8d841000dec4300e8d841009a
:100484006d7c4400fcd84100a126440008d94100f9
:10049400f526440014d941004927440024d94100d9
:1004a4009d27440030d94100f12744003cd9410044
:1004b4007135430044d94100dd4b440050d941001b
:1004c400316244005cd94100c1a0440068d94100b4
:1004d400e9a0440078d941001dba440088d94100fc
:1004e400d5b9440094d94100edb94400a0d94100e4
:1004f40005ba4400acd94100356c4200b4d941007e
:10050400c5f54300bcd9410029f643006c4f402097
:10051400a001000000000000a35f402001000000d3
:1005240000000000694d40200100000000000000b0
:100534009c5f402007000000010000003939393970
:100544003939390030554020bc000000000000005b
:100554001c604020040000000000000024474020ec
:100564003c02000000000000206040200400000065
:100574000000000000004020040000000000000013
:1005840010624020020000000000000024604020af
:100594000400000000000000286040200400000067
:1005a400000000002c604020040000000000000057
:1005b400306040200400000000000000346040204f
:1005c4000400000000000000386040200400000027
:1005d400000000003c604020040000000000000017
:1005e4004060402004000000000000001862402029
:1005f40002000000000000001a6240200200000017
:1006040000000000446040200400000000000000de
:100614004860402004000000000000000400402066
:1006240008000000000000004c60402004000000ae
:1006340000000000506040200400000000000000a2
:100644005460402004000000000000001c624020b0
:1006540002000000000000001e62402002000000b2
:1006640000000000206240200200000000000000a2
:100674005860402004000000000000005c6040203e
:10068400040000000000000060604020040000003e
:10069400000000008c5d40201400000000000000f9
:1006a400646040200400000000000000d05a402094
:1006b4004800000000000000a45f40200600000085
:1006c40001000000ffffffffffff00006860402003
:1006d40004000000000000006c60402004000000e2
:1006e40000000000a05d4020140000000000000095
:1006f4000c0040200800000000000000585b40206f
:10070400380000000000000094564020a0000000c3
:1007140000000000226240200200000001000000ee
:1007240001000000e05e4020100000000000000016
:10073400185b402040000000000000007060402072
:100744000400000000000000746040200400000069
:100754000000000078604020040000000000000059
:100764007c60402004000000000000008060402005
:100774000400000000000000846040200400000029
:100784000000000049584020010000000000000063
:100794008860402004000000000000008c604020bd
:1007a40004000000000000009060402004000000ed
:1007b40000000000946040200400000000000000dd
:1007c400b45d402014000000000000009860402048
:1007d40004000000000000009c60402004000000b1
:1007e40000000000a06040200400000000000000a1
:1007f400326240200100000000000000b85c40208c
:100804001f000000000000003362402001000000cf
:100814000100000001000000a4604020040000006a
:1008240000000000a8604020040000000000000058
:10083400140040200400000000000000ac604020d0
:100844000400000000000000b0604020040000002c
:1008540000000000b460402004000000000000001c
:10086400c85d40201400000000000000dc5d402052
:100874001400000000000000b860402004000000e4
:1008840000000000bc6040200400000000000000e4
:10089400c06040200400000000000000c46040204c
:1008a4000400000000000000f05d4020140000007f
:1008b40000000000c86040200400000000000000a8
:1008c400346240200100000000000000cc604020a1
:1008d4000400000000000000246240200200000028
:1008e400000000003562402001000000000000000c
:1008f400d060402004000000000000003662402068
:100904000100000000000000180040202800000042
:1009140000000000400040201c0300000000000014
:10092400266240200200000000000000d460402045
:100934000400000000000000d86040200400000013
:1009440000000000045e40201400000000000000cd
:10095400dc60402004000000000000002862402009
:100964000200000000000000185e40201400000097
:100974000000000037624020010000000000000079
:10098400e060402004000000000000005c03402000
:100994003000000000000000e4604020040000007b
:1009a40000000000e8604020040000000000000097
:1009b400ec60402004000000010000007c84410041
:1009c4002a62402002000000000000002c62402047
:1009d4000200000000000000f0604020040000005d
:1009e40000000000f460402004000000000000004b
:1009f400f86040200400000000000000fc6040207b
:100a04000400000000000000505f40200c000000c3
:100a1400000000005c5f40200c00000000000000ab
:100a24000061402004000000000000000461402038
:100a340004000000000000000861402004000000e1
:100a4400000000000c6140200400000000000000d1
:100a5400684b40200102000000000000905b402031
:100a64002c000000010000009c844100a48441008b
:100a7400ac844100b4844100c0844100cc84410072
:100a8400d8844100e4844100f0844100f8844100aa
:100a940000854100106140200400000000000000b7
:100aa400146140200400000000000000386240206f
:100ab4000100000000000000186140200400000054
:100ac400000000008c5f40200800000001000000ce
:100ad400ffffffffffffffff8c0340200800000023
:100ae40000000000145d40201c0000000100000014
:100af40005000000090000000300000008000000d9
:100b040004000000010000000400000094034020e1
:100b140001000000000000009803402008000000cd
:100b240000000000e45b40202800000001000000f9
:100b3400bb010300d10101004b0201003302030099
:100b44007c020300dd030300de030300e003030073
:100b5400e103010000000000685f40200c00000079
:100b64000100000078b543007cb5430080b5430024
:100b74001c614020040000000000000020614020af
:100b84000400000000000000246140200400000074
:100b94000000000028614020040000000000000064
:100ba4002c6140200400000000000000306140205f
:100bb4000400000000000000785c402020000000d9
:100bc400000000002c5e4020140000000000000023
:100bd400346140200400000001000000ffffffff1b
:100be4003861402004000000000000003c61402007
:100bf400040000000000000020fd45205002000019
:100c04000000000070ff452090000000000000007c
:100c1400396240200100000000000000f05e402026
:100c240010000000000000004061402004000000ab
:100c3400000000003a6240200100000000000000b3
:100c440044614020040000000000000020444020d3
:100c540004030000010000008420440000000000a0
:100c64000000000000000000000000000000000080
:100c74000000000000000000000000000000000070
:100c84000000000000000000000000000000000060
:100c94000000000000000000000000000000000050
:100f54000000000000000000000000004861402084
:100f640004000000000000003b624020010000007b
:100f74000000000000f04520f00000000000000028
:100f8400202440200020000000000000005f4020da
:100f94001000000000000000405e4020140000002b
:100fa4000100000001010000c5c64400b5c64400ac
:100fb400d5c64400c0fd0000785a40205800000007
:100fc400000000006049402008020000000000000a
:100fd400a003402018000000000000004c614020e5
:100fe40004000000000000005061402004000000e4
:100ff40000000000546140200400000000000000d4
:101004005861402004000000000000002e624020cf
:101014000200000001000000ffff00005c614020ae
:101024000400000000000000606140200400000093
:1010340000000000d85c40201f00000000000000f9
:10104400646140200400000000000000686140204a
:1010540004000000000000006c6140200400000057
:101064000000000070614020040000000000000047
:101074003c6240200100000000000000105f40209e
:1010840010000000000000003d624020010000004c
:1010940000000000985c40202000000000000000d8
:1010a4003e62402001000000000000007461402006
:1010b40004000000000000007861402004000000eb
:1010c40000000000345c4020240000000000000008
:1010d4007c6140200400000000000000806140208a
:1010e40004000000000000008461402004000000af
:1010f400000000008861402004000000000000009f
:101104008c61402004000000000000003062402098
:101114000200000000000000906140200400000074
:101124000000000094614020040000000000000062
:1011340034574020940000000000000098614020d3
:1011440004000000000000009c6140200400000036
:1011540000000000a0614020040000000000000026
:10116400a461402004000000000000004c5940200d
:101174006400000000000000a8614020040000009a
:1011840001000000e4b74300c0034020f81d000044
:1011940000000000545e4020140000000100000024
:1011a400e0a34400e4a34400e8a34400f0a3440003
:1011b400f4a34400305d402018000000010000004a
:1011c400c02140200024402098c7440000000000b3
:1011d4000022402000000000c02140205c020000ea
:1011e400000000000c5140209001000000000000ad
:1011f400485d40201800000000000000685e4020a8
:101204001400000001000000ff00000000000000c6
:1012140000000000ff000000ff0000003f624020cb
:101224000100000000000000745f40200c0000007a
:1012340000000000b05940206400000000000000dd
:10124400805f40200c0000000000000020f94520d1
:1012540000040000000000004c5840208000000002
:1012640000000000ac614020040000000000000009
:10127400605d40201800000000000000cc584020b1
:101284008000000000000000945f4020080000007f
:1012940000000000b06140200400000000000000d5
:1012a400c85740208100000000000000b4614020c5
:1012b4000400000000000000145a402064000000f4
:1012c400000000007c5e40201400000000000000cc
:1012d400905e40201400000000000000b86140202f
:1012e4000400000000000000bc6140200400000075
:1012f40000000000a45e4020140000000000000074
:10130400b85e40201400000000000000c0614020ce
:101314000400000000000000cc5e40201400000027
:1013240000000000c4614020040000000000000030
:10133400c86140200400000000000000cc6140208f
:101344000400000000000000d06140200400000000
:1013540000000000d46140200400000000000000f0
:10136400d86140200400000000000000dc6140203f
:101374000400000000000000e061402004000000c0
:1013840000000000e46140200400000000000000b0
:10139400e86140200400000000000000ec614020ef
:1013a4000400000000000000f06140200400000080
:1013b40001000000aaaaaaaaf461402004000000c7
:1013c40001000000f0f04520f0f045202804000062
:1013d4000100000000000000dcf3452044f4452037
:1013e400acf44520000000000000000000000000f4
:1013f40000000000000000000000000000000000e9
:1014040000000000000000000000000000000000d8
:1014140000000000000000000000000000000000c8
:1014240000000000000000000000000000000000b8
:1014340000000000000000000000000000000000a8
:101444000000000000000000000000000000000098
:101454000000000000000000000000000000000088
:101464000000000000000000000000000000000078
:101474000000000000000000000000000100000067
:10148400000000000e33cdab34126de6ecde050037
:101494000b0000000000000000000000000000003d
:1014a4000000000000000000000000000000000038
:1014b4000000000000000000000000000000000028
:1014c4000000000000000000000000000000000018
:1014d4000000000000000000000000000000000008
:1017f4000000000000000000000000009c52402097
:101804006c01000001000000430000000000000023
:1018140000000000000000000000000000000000c4
:101824000000000000000000430000000000000071
:1018340000000000000000000000000000000000a4
:101844000000000000000000430000000000000051
:101854000000000000000000000000000000000084
:101864000000000000000000430000000000000031
:101874000000000000000000000000000000000064
:101884000000000000000000430000000000000011
:101894000000000000000000000000000000000044
:1018a40000000000000000004300000000000000f1
:1018b4000000000000000000000000000000000024
:1018c40000000000000000004300000000000000d1
:1018d4000000000000000000000000000000000004
:1018e4000000000000000000a5b74400099b44006c
:1018f4000000000048b5420040c544003cc5440017
:101904003cc544003cc544003cc544003cc54400bf
:101914003cc544003cc544003cc544003cc54400af
:10192400ffffffffffffffffffffffffffff0000c1
:101934000100415343494900000000000000000039
:101944000000000000000000000000000000000093
:10195400000041534349490000000000000000001a
:101964000000000000000000000000000000000073
:10197400000000000c5c4020280000000000000073
:10198400f86140200400000000000000fc614020d9
:101994000400000000000000006240200400000079
:1019a4000000000018f545200804000001000000b4
:1019b400000000000000000018f5452018f545203f
:1019c40020f5452020f5452028f5452028f545201b
:1019d40030f5452030f5452038f5452038f54520cb
:1019e40040f5452040f5452048f5452048f545207b
:1019f40050f5452050f5452058f5452058f545202b
:101a040060f5452060f5452068f5452068f54520da
:101a140070f5452070f5452078f5452078f545208a
:101a240080f5452080f5452088f5452088f545203a
:101a340090f5452090f5452098f5452098f54520ea
:101a4400a0f54520a0f54520a8f54520a8f545209a
:101a5400b0f54520b0f54520b8f54520b8f545204a
:101a6400c0f54520c0f54520c8f54520c8f54520fa
:101a7400d0f54520d0f54520d8f54520d8f54520aa
:101a8400e0f54520e0f54520e8f54520e8f545205a
:101a9400f0f54520f0f54520f8f54520f8f545200a
:101aa40000f6452000f6452008f6452008f64520b6
:101ab40010f6452010f6452018f6452018f6452066
:101ac40020f6452020f6452028f6452028f6452016
:101ad40030f6452030f6452038f6452038f64520c6
:101ae40040f6452040f6452048f6452048f6452076
:101af40050f6452050f6452058f6452058f6452026
:101b040060f6452060f6452068f6452068f64520d5
:101b140070f6452070f6452078f6452078f6452085
:101b240080f6452080f6452088f6452088f6452035
:101b340090f6452090f6452098f6452098f64520e5
:101b4400a0f64520a0f64520a8f64520a8f6452095
:101b5400b0f64520b0f64520b8f64520b8f6452045
:101b6400c0f64520c0f64520c8f64520c8f64520f5
:101b7400d0f64520d0f64520d8f64520d8f64520a5
:101b8400e0f64520e0f64520e8f64520e8f6452055
:101b9400f0f64520f0f64520f8f64520f8f6452005
:101ba40000f7452000f7452008f7452008f74520b1
:101bb40010f7452010f7452018f7452018f7452061
:101bc40020f7452020f7452028f7452028f7452011
:101bd40030f7452030f7452038f7452038f74520c1
:101be40040f7452040f7452048f7452048f7452071
:101bf40050f7452050f7452058f7452058f7452021
:101c040060f7452060f7452068f7452068f74520d0
:101c140070f7452070f7452078f7452078f7452080
:101c240080f7452080f7452088f7452088f7452030
:101c340090f7452090f7452098f7452098f74520e0
:101c4400a0f74520a0f74520a8f74520a8f7452090
:101c5400b0f74520b0f74520b8f74520b8f7452040
:101c6400c0f74520c0f74520c8f74520c8f74520f0
:101c7400d0f74520d0f74520d8f74520d8f74520a0
:101c8400e0f74520e0f74520e8f74520e8f7452050
:101c9400f0f74520f0f74520f8f74520f8f7452000
:101ca40000f8452000f8452008f8452008f84520ac
:101cb40010f8452010f8452018f8452018f845205c
:101cc40020f8452020f8452028f8452028f845200c
:101cd40030f8452030f8452038f8452038f84520bc
:101ce40040f8452040f8452048f8452048f845206c
:101cf40050f8452050f8452058f8452058f845201c
:101d040060f8452060f8452068f8452068f84520cb
:101d140070f8452070f8452078f8452078f845207b
:101d240080f8452080f8452088f8452088f845202b
:101d340090f8452090f8452098f8452098f84520db
:101d4400a0f84520a0f84520a8f84520a8f845208b
:101d5400b0f84520b0f84520b8f84520b8f845203b
:101d6400c0f84520c0f84520c8f84520c8f84520eb
:101d7400d0f84520d0f84520d8f84520d8f845209b
:101d8400e0f84520e0f84520e8f84520e8f845204b
:101d9400f0f84520f0f84520f8f84520f8f84520fb
:101da40000f9452000f9452008f9452008f94520a7
:101db40010f9452010f94520046240200400000079
:101dc40001000000ffffffff086240200400000044
:101dd40001000000000002001c2440200400000058
:101de400000000000c62402004000000000000001d
:101df40000000000000000002222222222222222cf
:020000040000fa
:020000040040ba
:101e04006e6574696e666f003a20476574206e656e
:101e140074776f726b20696e666f726d6174696f2f
:101e24006e0000bf6465666e657400003a205365f9
:101e3400742f4765742064656661756c7420696edf
:101e4400746572666163650064686370000000bf56
:101e54003a204448435020636c69656e7420636f74
:101e64006d6d616e6473000064686370730000bf1d
:101e74003a205475726e204448435020736572763c
:101e84006572206f6e2f6f66660000bf7a636c6c9c
:101e9400000000bf3a205475726e205a434c4c2007
:101ea4006f6e2f6f66660000736574646e73000056
:101eb4003a2053657420444e532061646472657300
:101ec400730000bf73657469700000bf3a205365e6
:101ed40074204950206164647265737320616e6478
:101ee400206d61736b0000bf73657467770000bf7a
:101ef4003a20536574204761746577617920616481
:101f040064726573730000bf73657462696f7300f4
:101f14003a2053657420686f73742773204e657478
:101f240042494f53206e616d650000bf7365746d47
:101f3400616300003a20536574204d41432061647d
:101f440064726573730000bf696600003a204272d0
:101f5400696e6720616e20696e746572666163657f
:101f64002075702f646f776e000000bf7374616317
:101f74006b0000bf3a20537461636b207475726efa
:101f8400206f6e2f6f66660068656170696e666f9c
:101f9400000000bf3a20436865636b206865617088
:101fa4002073746174757300617270003a20415239
:101fb4005020636f6d6d616e64730000646e7363b3
:101fc400000000bf3a20444e5320636c69656e7470
:101fd40020636f6d6d616e64730000bf6d61636932
:101fe4006e666f003a20436865636b204d41432061
:101ff40073746174697374696373000068747470d2
:10200400000000bf3a204854545020696e666f7235
:102014006d6174696f6e0000737369003a205353e5
:102024004920696e666f726d6174696f6e0000bfde
:10203400616e6e6f756e6365000000bf3a20416e7d
:102044006e6f756e636500003a20737461636b2074
:10205400636f6d6d616e6473000000bf74637069bb
:10206400700000bf55736167653a206e6574696ed0
:10207400666f0d0a000000bf45783a206e657469ea
:102084006e666f0d0a0000bf2d2d2d2d2d2d2d2dcb
:102094002d2d20496e74657266616365203c25733d
:1020a4002f25733e202d2d2d2d2d2d2d2d2d2d2025
:1020b4000d0a0000496e7465726661636520697378
:1020c40020646f776e0d0a00486f7374204e616d43
:1020d400653a202573202d204e424e5320656e61b3
:1020e400626c65640d0a00004950763420416464d2
:1020f400726573733a2025730d0a00004d61736b8a
:102104003a2025730d0a0000476174657761793ab6
:102114002025730d0a0000bf444e533a2025730d49
:102124000a0000bf4d414320416464726573733af1
:102134002025730d0a0000bf4950763620556e697c
:1021440063617374206164647265737365733a0dbb
:102154000a0000bf2020202025730d0a000000bfc4
:1021640020202020556e6b6e6f776e0d0a0000bf25
:1021740049507636204d756c7469636173742061bf
:1021840064647265737365733a0d0a00646566610d
:10219400756c742049502061646472657373000027
:1021a4002573206973204f4e0d0a0000656e61622d
:1021b4006c65640064697361626c6564000000bfef
:1021c400646863702069732025730d0a000000bfe2
:1021d40055500000444f574e000000bf4c696e6bd1
:1021e4002069732025730d0a000000bf52656164e5
:1021f400790000bf4e6f742052656164790000bf9e
:102204005374617475733a2025730d0a000000bf7e
:1022140073657400556e6b6e6f776e20696e7465ae
:1022240072666163652073706563696669656420bd
:102234000d0a0000676574007375636365737366e4
:10224400756c00006661696c6564210044656661b3
:10225400756c7420696e746572666163652073655c
:10226400742025730d0a00004e6f6e65000000bfd8
:1022740044656661756c7420696e74657266616329
:10228400652069733a2025730d0a00005573616750
:10229400653a206465666e6574207365742f67659e
:1022a40074203c696e746572666163653e0d0a0054
:1022b40045783a206465666e65742073657420659c
:1022c4007468300d0a0000bf55736167653a2025b4
:1022d40073203c696e746572666163653e203c6f71
:1022e4006e2f6f66662f72656e65772f72657175d6
:1022f4006573742f696e666f3e200d0a000000bf7f
:1023040045783a202573205049433332494e5420ae
:102314006f6e200d0a0000bf556e6b6e6f776e20d6
:10232400696e746572666163650d0a006f6e000004
:102334006f66660072656e65770000bf72657175c1
:102344006573740052657175657374206e65656498
:102354007320616e20495020616464726573730d4b
:102364000a0000bf496e76616c696420495020619f
:1023740064647265737320737472696e67200d0ae6
:10238400000000bf696e666f000000bf4448435000
:10239400207374617475733a2025642028202564a1
:1023a400203d3d20426f756e64292c2074696d6553
:1023b4003a2025640d0a000044484350206c6561ae
:1023c40073652073746172743a2025642c206475db
:1023d400726174696f6e3a202564730d0a0000bf40
:1023e400444843502072656e65772074696d653a80
:1023f4002025642c20726562696e642074696d65a1
:102404003a2025640d0a0000444843502061646466
:10241400726573733a2025730d0a000044484350d3
:10242400207365727665723a2025730d0a0000bf29
:102434006e6f7420676976656e0000bf4448435030
:1024440020626f6f74206e616d653a2025730d0aea
:10245400000000bf444843503a206661696c6564db
:1024640020746f2067657420696e666f0d0a000022
:10247400556e6b6e6f776e206f7074696f6e0d0a98
:10248400000000bf73756363657373006661696cf4
:10249400000000bf25732025732025730d0a00005a
:1024a40055736167653a202573203c696e746572c3
:1024b400666163653e203c6f6e2f6f66663e200d3d
:1024c4000a0000bf656e61626c6500006469736137
:1024d400626c650025732025730d0a004661696ce2
:1024e400656420746f2025732025730d0a0000bfd6
:1024f400556e6b6e6f776e207365727669636520b7
:1025040025730d0a000000bf55736167653a207397
:1025140065746970203c696e746572666163653eba
:10252400203c697076342f3620616464726573735d
:102534003e203c697076346d61736b2f697076361a
:1025440020707265666978206c656e3e0d0a000025
:1025540045783a2073657469702050494333324991
:102564004e54203139322e3136382e302e38203226
:1025740035352e3235352e3235352e30200d0a00c4
:102584004e6f207375636820696e7465726661634b
:10259400652069732075700d0a0000bf416e2061cb
:1025a4006464726573732073657276696365206908
:1025b4007320616c72656164792072756e6e696ee8
:1025c400672e2053746f7020444843502c205a4384
:1025d4004c4c2c206574632e2066697273740d0a4a
:1025e400000000bf496e76616c6964204950206d1b
:1025f40061736b20737472696e67200d0a0000bfeb
:102604005365742069702061646472657373204f2c
:102614004b0d0a005365742069702061646472650f
:102624007373206661696c65640d0a005573616794
:10263400653a207365746777203c696e74657266c9
:102644006163653e203c697076342f362061646492
:10265400726573733e203c76616c696454696d6580
:102664003e200d0a000000bf45783a207365746768
:1026740077205049433332494e54203139322e3178
:1026840036382e302e31200d0a0000bf53657420d9
:10269400676174657761792061646472657373201e
:1026a4004f4b0d0a000000bf5365742067617465c9
:1026b4007761792061646472657373206661696c03
:1026c40065640d0a000000bf55736167653a2073a5
:1026d4006574646e73203c696e74657266616365cb
:1026e4003e203c782e782e782e783e200d0a00006d
:1026f40045783a20736574646e73205049433332cd
:10270400494e54203235352e3235352e3235352e5c
:1027140030200d0a000000bf53657420444e53203e
:1027240061646472657373206661696c65640d0a23
:10273400000000bf55736167653a202573203c6f24
:102744006e2f6f66663e203c696e746572666163c7
:10275400653e203c7374726963742f707265663ec3
:102764002f3c636c6561723e200d0a0045783a2067
:102774002573206f6e20657468300d0a000000bf59
:10278400737472696374000070726566000000bf40
:10279400636c6561720000bf55736167653a2064bc
:1027a4006e7363203c64656c2f696e666f2f6f6e69
:1027b4002f6f66662f6c6f6f6b75703e200d0a006d
:1027c40055736167653a20646e7363206c6f6f6b39
:1027d4007570203c747970653e203c686f73744e4c
:1027e400616d653e200d0a0048656c703a203c68b6
:1027f4006f73744e616d653e2855524c29202d200f
:102804006c6f6f6b20757020666f7220686f7374c5
:102814006e616d650d0a000048656c703a203c7469
:102824007970653e203a2061206f72204120666fe6
:102834007220495076342061646472657373206c2d
:102844006f6f6b75700d0a0048656c703a203c74ac
:102854007970653e203a2061616161206f72204188
:1028640041414120666f722049507636206164648c
:1028740072657373206c6f6f6b75700d0a0000bf07
:1028840048656c703a203c747970653e203a20614a
:102894006e7920666f7220626f74682049507634b6
:1028a40020616e64204950763620616464726573d9
:1028b40073206c6f6f6b75700d0a00005573616740
:1028c400653a20646e73632064656c203c686f73a2
:1028d400744e616d653e7c616c6c200d0a0000bf16
:1028e40048656c703a203c686f73744e616d653e48
:1028f4002855524c29202d2052656d6f7665207421
:10290400686520656e7472792069662065786973dc
:102914007473200d0a0000bf48656c703a20616c26
:102924006c202d2052656d6f766520616c6c20746f
:102934006865207265736f6c76656420656e747269
:1029440079200d0a000000bf616c6c005b25735d8b
:10295400206e6f742070617274206f6620746865d5
:1029640020444e5320436163686520656e74727918
:10297400200d0a00496e636f6d706c657465206389
:102984006f6d6d616e64200d0a0000bf496e766143
:102994006c696420496e70757420436f6d6d616e4f
:1029a40064203a5b202573205d200d0a000000bfdf
:1029b40064656c006c6f6f6b75700000b429400027
:1029c4000100000088234000020000003023400082
:1029d400030000003423400003000000b829400035
:1029e40004000000646e7363206c6f6f6b75703a43
:1029f40020636f6d6d616e6420696e2070726f6705
:102a0400726573732e205265747279206c617465db
:102a1400722e0d0a000000bf410000bf610000bf1c
:102a240041414141000000bf61616161000000bf9c
:102a3400414e5900616e7900646e7363206c6f6f50
:102a44006b75703a205b25735d204c6f6f6b7570ee
:102a54002054797065206e6f7420737570706f7276
:102a64007465642e0d0a0000646e7363206c6f6fce
:102a74006b75703a20486f7374206e616d652074b5
:102a84006f6f206c6f6e672e2052657472792e0df5
:102a94000a0000bf646e7363206c6f6f6b75703acd
:102aa400207265736f6c76696e6720686f73743a11
:102ab40020257320666f7220747970653a2573201f
:102ac4000d0a000055736167653a20646e736320d4
:102ad400696e666f200d0a0048656c703a2064695f
:102ae40073706c61792074686520444e532063616f
:102af40063686520656e7472792064657461696cbd
:102b040073200d0a000000bf444e5320436c6965d6
:102b14006e7420697320646f776e210d0a0000bf04
:102b24006e6f6e65000000bf444e5320436c6965b0
:102b34006e74204946202d205374726963743a20c0
:102b440025732c205072656665727265643a20257f
:102b5400730d0a00444e5320436c69656e74202d36
:102b64002074696d653a2025642c2070656e646953
:102b74006e673a2025642c2063757272656e743a10
:102b84002025642c20746f74616c3a2025640d0a2e
:102b9400000000bf486f73746e616d65203d202591
:102ba40073200d0a54696d656f7574203d2025648a
:102bb400200d0a0049507634203d25730d0a00008b
:102bc40049507636203d2025730d0a002d2d2d2ddc
:102bd4002d2d2d2d2d2d2d2d2d2d2d2d2d2d2d2d21
:102be4002d2d2d2d2d2d2d2d2d2d2d2d2d2d2d2d11
:102bf4002d2d2d2d2d2d2d2d2d2d2d2d2d2d2d2d01
:102c04000d0a00004e6f20444e5320436c69656edc
:102c14007420436163686520656e7472696573200e
:102c24000d0a000055736167653a20736574626923
:102c34006f73203c696e746572666163653e203c07
:102c4400782e782e782e783e200d0a0045783a208a
:102c540073657462696f73205049433332494e542b
:102c6400204d434850424f4152445f3239200d0aaf
:102c7400000000bf5365742042494f53204e616ddc
:102c840065204f4b0d0a00005365742042494f5391
:102c9400204e616d65206661696c65640d0a0000f3
:102ca40055736167653a207365746d6163203c698f
:102cb4006e746572666163653e203c783a783a7852
:102cc4003a783a783a783e200d0a000045783a205e
:102cd4007365746d6163205049433332494e542007
:102ce40061613a62623a63633a64643a65653a667a
:102cf40066200d0a000000bf617267765b325d3aa0
:102d04002025730d0a0000bf496e76616c6964204a
:102d14004d414320616464726573732073747269f6
:102d24006e67200d0a0000bf536574204d41432097
:102d340061646472657373206661696c65640d0a0d
:102d4400000000bf55736167653a206966203c69dd
:102d54006e746572666163653e203c646f776e2fa6
:102d640075703e200d0a000045783a2069662050af
:102d740049433332494e5420646f776e200d0a0064
:102d8400757000005468697320696e7465726661b9
:102d9400636520616c72656164792075700d0a0049
:102da400646f776e000000bf5468697320696e74a5
:102db40065726661636520616c7265616479206423
:102dc4006f776e0d0a0000bf57726f6e67207061d7
:102dd40072616d6574657220737065636966696597
:102de40064200d0a000000bf4f7065726174696f42
:102df4006e207375636365737366756c210d0a00c9
:102e04004f7065726174696f6e206661696c656488
:102e1400210d0a0055736167653a20737461636b11
:102e2400203c75702f646f776e3e203c7072657322
:102e3400657276653e0d0a0045783a2073746163c5
:102e44006b20646f776e2070726573657276650da2
:102e54000a0000bf537461636b20616c7265616426
:102e640079207570210d0a005475726e20537461b7
:102e7400636b20646f776e20616e64207468656e86
:102e8400207570210d0a00005265737461727469b3
:102e94006e672074686520737461636b207769744e
:102ea4006820256420696e746572666163652873a1
:102eb400290d0a00537461636b2075702066616983
:102ec4006c65640d0a0000bf537461636b207570f8
:102ed400207375636365656465640d0a000000bf53
:102ee400537461636b20646f776e3a2063616e6e16
:102ef4006f7420676574206120737461636b20684c
:102f0400616e646c650d0a00537461636b20646fb9
:102f1400776e207375636365656465640d0a0000ec
:102f240055736167653a2068656170696e666f20e4
:102f3400312f322f33200d0a000000bf45783a208c
:102f440068656170696e666f20310d0a000000bf0c
:102f5400696e7465726e616c000000bf706f6f6c97
:102f6400000000bf65787465726e616c000000bf7c
:102f7400756e6b6e6f776e004e6f206865617020a2
:102f8400696e666f2065786973747320666f72204a
:102f9400747970653a202573210d0a0048656170c3
:102fa40020747970653a2025732e20496e697469fe
:102fb400616c20637265617465642068656170206a
:102fc40073697a653a2025642042797465730d0a21
:102fd400000000bf416c6c6f6361626c6520626cc1
:102fe4006f636b20686561702073697a653a202588
:102ff400642042797465730d0a0000bf416c6c2033
:10300400617661696c61626c6520686561702073ca
:10301400697a653a2025642042797465732c2068a6
:103024006967682077617465726d61726b3a2025f7
:10303400640d0a004c6173742068656170206572c8
:10304400726f723a20307825780d0a004e6f205442
:103054007261636520696e666f2065786973747345
:103064002e0d0a0055736167653a206d6163696ec0
:10307400666f200d0a0000bf45783a206d616369d0
:103084006e666f200d0a0000496e74657266616396
:10309400653a202573204472697665722053746101
:1030a400746973746963730d0a0000bf0d0a2052ba
:1030b40065636569766520537461746973746963c3
:1030c400730d0a0009206e52784f6b5061636b6573
:1030d40074733a2025640d0a09206e527850656e87
:1030e40064427566666572733a2025640d0a092088
:1030f4006e52785363686564427566666572733aa6
:103104002025640d0a0000bf09206e5278457272b2
:103114006f725061636b6574733a2025640d0a09fc
:10312400206e5278467261676d656e744572726f77
:1031340072733a2025640d0a09206e52784275662e
:10314400664e6f74417661696c61626c653a2025e4
:10315400640d0a000d0a205472616e736d69742047
:10316400537461746973746963730d0a000000bf5a
:1031740009206e54784f6b5061636b6574733a2009
:1031840025640d0a09206e547850656e6442756694
:10319400666572733a2025640d0a09206e547845d9
:1031a40072726f725061636b6574733a2025640d9b
:1031b4000a09206e5478517565756546756c6c3acc
:1031c4002025640d0a0d0a00096e6f742073757052
:1031d400706f727465640d0a000000bf496e7465f7
:1031e40072666163653a2025732048617264776171
:1031f40072652052656769737465722053746174d3
:1032040075730d0a000000bf092025733a20307839
:1032140025780d0a000000bf444e53204c6f6f6b9d
:1032240075703a20444e53206661696c757265204e
:10323400666f722025730d0a000000bf444e5320b0
:103244004c6f6f6b75703a2072657175657374207d
:1032540074696d656f75742e0d0a00004c6f6f6b89
:10326400757020416e737765723a0d0a2d2d2d2de0
:103274002d2d2d2d2d2d2d2d2d2d2d2d2d2d2d2d7a
:103284002d2d0d0a000000bf4e6f204c6f6f6b7523
:103294007020656e74727920666f72205b25735d91
:1032a4000d0a00005b25735d2041204950763420cf
:1032b40041646472657373203a2025642e25642e5c
:1032c40025642e25640d0a005b25735d2041414170
:1032d4004120495076362041646472657373203a04
:1032e40025730d0a000000bf55736167653a2061bc
:1032f4007270203c696e746572666163653e203c41
:10330400722f712f642f6c3e203c6970416464728b
:103314003e200d0a000000bf45783a2061727020fb
:103324005049433332494e542072203139322e31c0
:1033340036382e312e313035200d0a006c0000bf96
:103344006172703a20256420736c6f747320696e07
:10335400207468652063616368650d0a000000bf1e
:103364006172703a204950763420616464726573e6
:10337400733a2025730000bf2c204d414320416443
:1033840064726573733a2025730000bf2c20636f49
:103394006d706c6574650d0a000000bf2c207065ab
:1033a400726d616e656e740d0a0000bf6172703ad1
:1033b400204950763420616464726573733a202521
:1033c400732c207175657565640d0a00720000bf69
:1033d4006172703a207265736f6c766564202d207b
:1033e4004950763420616464726573733a2025739e
:1033f4002c204d414320416464726573733a202547
:10340400730d0a006172703a2061646472657373ab
:1034140020616c7265616479207175657565640df0
:103424000a0000bf6172703a20616464726573734c
:10343400206e65776c79207175657565640d0a0079
:103444006172703a2071756575652066756c6c2fb4
:103454006572726f720d0a00710000bf6172703a7a
:10346400204950763420616464726573733a202570
:10347400732c204d414320416464726573733a2078
:1034840025730d0a000000bf6172703a206e6f2030
:103494007375636820656e7472790d0a000000bf4d
:1034a400640000bf6172703a2072656d6f76656466
:1034b4002025730d0a0000bf6172703a20556e6baf
:1034c4006e6f776e206f7074696f6e0d0a0000bfa7
:1034d40055736167653a206874747020696e666f0d
:1034e4002f737461740d0a004854545020636f6e36
:1034f4006e656374696f6e73202d206163746976e1
:10350400653a2025642c206f70656e3a2025640d81
:103514000a0000bf4854545020636f6e6e3a202551
:1035240064207374617475733a2030782534782c70
:1035340020736d3a2030782534782c206368756eba
:103544006b733a2025642c206368756e6b20656d5f
:103554007074793a2025642c2066696c6520656d49
:103564007074793a2025640d0a0000bf0948545448
:1035740050206368756e6b3a20256420666c616721
:10358400733a2030782534782c2073746174757301
:103594003a2030782534782c20664e616d653a20c7
:1035a40025730d0a000000bf094854545020636875
:1035b400756e6b3a2064796e206275666665727307
:1035c4003a2025642c20766172204e616d653a2084
:1035d40025730d0a000000bf485454503a20666118
:1035e400696c656420746f2067657420696e666f0a
:1035f40020666f7220636f6e6e3a2025640d0a0098
:1036040073746174000000bf4854545020636f6e9b
:103614006e656374696f6e733a2025642c20616350
:10362400746976653a2025642c206f70656e3a20a3
:1036340025640d0a000000bf4854545020706f6f79
:103644006c20656d7074793a2025642c206d617846
:103654002064657074683a2025642c20706172734c
:103664006520726574726965733a2025640d0a00d9
:10367400485454503a20756e6b6e6f776e207061ab
:1036840072616d657465720d0a0000bf55736167e0
:10369400653a2073736920696e666f0d0a0000bf76
:1036a400535349207661726961626c6520736c6f53
:1036b4007473202d206163746976653a2025642c27
:1036c40020746f74616c3a2025640d0a000000bff9
:1036d400535349207661726961626c6520256420c8
:1036e4006e616d653a2025732c2076616c75653aa0
:1036f4002025732c20747970653a2025640d0a0006
:1037040055736167653a20616e6e6f756e636520ef
:10371400302f310d0a0000bf4c696d697465640077
:103724004469726563746564000000bf2573206298
:1037340063617374207375626d69747465643a208f
:0837440025640d0a000000bf1e
:020000040000fa
:020000040040ba
:04374c0063825363de
:020000040000fa
:020000040040ba
:103750002de9f04f2ded068bcfb00c460591934629
:103760000a93119048f02cf80368179318462cf030
:10377000c7f8a38915901d0603d52369002b01f016
:10378000518100239fed7a8b9fed7b9b0f932493b8
:1037900023931493199312931893169303935e46ed
:1037a00025abdff8dca1ddf844b0229399463378ed
:1037b0003446e3b1252b02d119e0252b03d014f8b0
:1037c000013f002bf9d1a51b8db1239b249ac9f889
:1037d000006001332a44072bc9f804502492239334
:1037e00000f39d8009f10809039b2b440393237880
:1037f000002b01f0ca8000234ff0ff329846079358
:103800008df86b30671c637804922b2420250137d8
:10381000a3f120025a2a00f2e483dfe812f0a502a5
:10382000e203e203ae02e203e203e2035f00e2032b
:10383000e203b202bf02e2037c00cd02e203e70230
:10384000d203d203d203d203d203d203d203d203d0
:10385000d203e203e203e203e203e203e203e20350
:103860004a03e2037c0392034a034a034a03e20346
:10387000e203e203e203eb02e203e203ef02e2030c
:10388000e203e2030003e2032703e203e2039402fc
:10389000e203e203e203e203e203e203e203e20300
:1038a0004a03e2037c0354024a034a034a03c30265
:1038b00054025b00e203b003e203ba0323023803bd
:1038c0005b00e203000376003e02e203e203b30082
:1038d000e203760048f020083b7898e7584647f026
:1038e0006fff4368169318462cf00af81890584654
:1038f00047f066ff83681293189b33b1129b23b184
:10390000129b1b78002b41f083803b787fe7079a5e
:103910000a935242079248f004083b7877e722aabc
:103920000599584628f08cfb80b90df194095be7a6
:1039300022aa0599584628f083fb002800f08281ce
:10394000099b1bb1099911981bf0a6f9059bb3f9c6
:103950000c3013f0400f039b18bf4ff0ff3303935d
:1039600003984fb0bdec068bbde8f08faff300803d
:103970000000000000000000ffffffffffffef7fdf
:1039800004c744000d9318f0200fb44b149340f07b
:10399000e1810a9a18f0100f134640f09d8518f047
:1039a000400f41f01d8018f4007f00f0958504332e
:1039b00014780a93002518f0010f0bd054ea050380
:1039c00008d030239df834208df86d2048f002088f
:1039d0008df86c3028f48061022300228df86b2072
:1039e0000498421c00f0908154ea050221f08008fe
:1039f00040f08f81002840f00984002b40f0a28421
:103a000011f001034eae089302d0302306f8013db9
:103a10000023089a0993139310930e93049b9342e7
:103a2000b8bf13469df86b20029312b1029b01337d
:103a3000029318f002030b9302d0029b023302930d
:103a400018f084030c9340f0ea82079b02995c1af9
:103a5000002c40f3e482102c2499239a804d25dd1c
:103a600048461023c146b046059e04e0103c102c89
:103a700000f1080017dd01321031072a249123924a
:103a800005604360f2dd22aa31465846069328f0cd
:103a9000d7fa00287ff454af103c102c2499239ab5
:103aa000069b25a8e7dc4646c846814601326318d6
:103ab000072a24932392c9f80050c9f8044000f360
:103ac0008f849df86b2009f1080972b1239a0132a5
:103ad00001330df16b000121072a2493239289e819
:103ae000030000f3a98309f108090b9a6ab1239a2c
:103af000013202331ba80221072a2493239289e86a
:103b0000030000f3a58309f108090c9a802a00f04c
:103b1000eb82049a0899541a002c36dd102c239a53
:103b200026dd49461025a146059c06e0a9f11009ad
:103b3000b9f1100f01f1080118dd01321033072a25
:103b400024932392c1f800a04d60efdd22aa214604
:103b5000584628f075fa00287ff4f2aea9f1100952
:103b6000b9f1100f249b239a25a9e6dc4c4689461f
:103b700001322344072a24932392c9f800a0c9f8ec
:103b8000044000f34d8309f1080918f4807f40f0e8
:103b90004f82239a0898c9f8006001320344072a2b
:103ba0002493c9f80400239200f3248309f108093f
:103bb00018f0040f3bd0079a0299541a002c36ddf6
:103bc000102c239a264d1fdd1026ddf8148004e00a
:103bd000103c102c09f1080916dd01321033072ab8
:103be0002493239289e86000f2dd22aa41465846d8
:103bf00028f026fa00287ff4a3ae103c102c249b5a
:103c0000239a0df19409e8dc01322344072a249316
:103c10002392c9f80050c9f8044008dd22aa05998a
:103c2000584628f00dfa00287ff48aae249b039aa8
:103c3000079902988142acbf521812180392002bc8
:103c40007ff476ae00232393099b1bb10999584654
:103c50001bf022f80df194093e46a8e5005e4400f1
:103c6000f4c6440018f0200f0d9340f0ce800a9a5d
:103c700018f0100f134640f0198418f0400f40f070
:103c8000a28618f4007f00f01184043314780a939c
:103c9000002528f4806100239fe641468e060d939f
:103ca00000f1ea800a9acd06134600f105844c061d
:103cb00000f18f86880540f1ff83147804320025d7
:103cc00001230a9289e641468c060d9300f13f815b
:103cd000c80600f1f8834a0600f188868b0540f19a
:103ce000f2830a9890f90040e517043022462b46eb
:103cf0000a90002a73f10003c0f239810498421c33
:103d00004ff001037ff470ae54ea050200f07f82a9
:103d10008846012b00f01e83022b40f0a8821498e5
:103d20004eae230904f00f0143ea05732a091c462d
:103d30001546435c06f8013d54ea0503f1d14eab4c
:103d40009b1b089364e60d9318f0200fb54b14935a
:103d50003ff41fae0a9d073525f0070303f1080263
:103d60000a92d3e9004526e69df86b30002b7ff4dc
:103d7000ccad8df86b503b7849e548f001083b78b5
:103d800045e50a990b6807931a46002a0b4603f18a
:103d90000403fff6bcad0a933b7838e58df86b4021
:103da0003b7834e53b78682b03bf7b7848f4007898
:103db000013748f040082ae53b782a2b07f101013a
:103dc00001f01c81a3f13002092a0f4601f24a805a
:103dd0000023194617f8013b01eb810102eb410179
:103de000a3f13002092af5d9049111e548f08008c1
:103df0003b780ce548f008083b7808e548f01008e7
:103e000018f0200f0d933ff432af0a9d073525f0cf
:103e1000070303f108020a92d3e9004539e70a9a39
:103e20000d93166800248df86b40151d002e00f0d0
:103e30003d87049a531c00f09b862146304632f0a1
:103e40006ffe0990002800f08287099b04949b1b59
:103e50001a4622eae27208930a95234602920993cf
:103e6000139310930e939df86b20dee548f010013c
:103e70008e060d937ff516af0a9d073525f00703d3
:103e800003f10802d3e900450a920123a5e50a9847
:103e9000654b046814933022782304308df86d301c
:103ea0000d9348f002010a9000258df86c20022342
:103eb00093e50a9d0d9318f0080f05f1070500f032
:103ec000ed8425f0070393ed008b03f108020a92bd
:103ed000b0eec87bb4ee497bf1ee10fa40f33984c2
:103ee000b5eec08bf1ee10fa00f1f0869df86b2074
:103ef0004e4e0d9c0323002118460293331f099157
:103f000028f08008472cd8bf1e46089004911391d2
:103f100010910e9189e50a980d9301688df8d410df
:103f2000002301461a468df86b30043101230293b9
:103f300009920492139210920e920a91089335ae50
:103f400077e548f010018c060d937ff5c1ae0a9d10
:103f5000073525f00705d5e90023002a05f10800fb
:103f60001d4673f100030a901446bff6c7ae2d2319
:103f700064428df86b3065eb4505012330e53b78f5
:103f80006c2b03bf7b7848f02008013748f01008fd
:103f90003de418f0200f40f0098518f0100f35d1de
:103fa00018f0400f40f0788618f4007f2ed00a9a5f
:103fb000136804320a929df80c201a703e46fff7ef
:103fc000f6bba3f130020023194617f8013b01ebc1
:103fd000810102eb4101a3f13002092af5d90791d1
:103fe00016e419460d93002b00f0cf840023012026
:103ff0001a4602908df8d4108df86b300993049313
:10400000139310930e93089035ae12e50a9a136835
:1040100004320a92039a1a603e46fff7c8bb249bfb
:1040200053e500bfec5d4400005e4400e05d4400e9
:104030000d9a652a40f39680b5ee408bf1ee10faaa
:1040400040f03981239ac249c9f800100132013386
:104050000121072a24932392c9f8041000f3448411
:1040600009f108091c9b0f9a9342249b03db18f06b
:10407000010f3ff49dad239a15981799c9f80010c8
:1040800001320344072ac9f804002493239200f361
:10409000b28409f108090f9a541e002c7ff788aded
:1040a000102c239a40f308831025059e05e009f1a2
:1040b0000809103c102c40f3ff8201321033072a0c
:1040c00024932392c9f800a0c9f80450efdd22aa76
:1040d0003146584627f0b4ff00287ff431ac249bca
:1040e000239a0df19409e4e7079a0299541a002cd7
:1040f0007ff70fad102c239a26dd49461025a146e7
:10410000059c06e0a9f11009b9f1100f01f10801b1
:1041100018dd01321033072a24932392c1f800a03e
:104120004d60efdd22aa2146584627f089ff00287e
:104130007ff406aca9f11009b9f1100f249b239a62
:1041400025a9e6dc4c46894601322344072a2493fc
:104150002392c9f800a0c9f8044000f3e68209f1ef
:104160000809d6e40f9ac9f80060012a239a03f1de
:10417000010302f101024ff0010124932392c9f8d7
:10418000041040f3a582072a00f3b58209f108095b
:1041900015981799c9f8001001320344072a24938f
:1041a0002392c9f8040000f3b38209f10809b5eebf
:1041b000408bf1ee10fa0f9900f0218101390132a4
:1041c00001360b44072ac9f8006023922493c9f8ea
:1041d000041000f3468109f108091998c9f8040090
:1041e000013203441ea9072a24932392c9f8001020
:1041f0007ff7dcac22aa0599584627f021ff00285a
:104200007ff49eab249b0df19409d1e44146012b30
:1042100000f03581022b27d18846002400257ee559
:1042200022aa0599584627f00bff00287ff488ab97
:10423000249b0df19409a8e422aa0599584627f079
:10424000fffe00287ff47cab249b0df194094ce425
:1042500022aa0599584627f0f3fe00287ff470ab98
:10426000249b0df1940950e48846002400254ea9b2
:1042700000e03146e20842ea4572e80804f007032c
:1042800005461446303354ea050201f8013c01f1b9
:10429000ff36eed118f0010f3ff451ad302b3ff453
:1042a0004ead3023023906f8013c4eab5b1a089341
:1042b0000e46fff7adbb1c99002940f32f830e9ae1
:1042c0000f998a42a8bf0a46002a14460ddd239a98
:1042d000c9f8006001322344072a2493c9f8044036
:1042e000239200f3cc8409f108090e9a002ca8bf90
:1042f000121b002a144640f30081102c239a40f32d
:10430000d88249461025a146059c06e00831a9f14e
:104310001009b9f1100f40f3ca8201321033072a95
:1043200024932392c1f800a04d60efdd22aa21461c
:10433000584627f085fe00287ff402ab249b239a81
:1043400025a9e4e7049b08934eaefff761bb00bfcd
:104350001c5e4400002d08bf0a2cc0f08f8008f4ba
:10436000806300220297cdf81890cdf820b04eaeb1
:10437000c346ddf84890174698460ae000232046d9
:1043800029460a2244f0eaff04460d4654ea050392
:104390007ed00a2200232046294644f0dfff303237
:1043a00006f8012c0137013eb8f1000fe6d099f86c
:1043b00000309f42e2d1ff2fe0d0002d08bf0a2c31
:1043c000dcd3189b1699f61a30461a463bf052fb7e
:1043d00099f80170002fd1d009f101090027cde72c
:1043e00022aa0599584627f02bfe00287ff4a8aa98
:1043f0009df86b20249b0df19409fff766bb4c1ec2
:10440000002c7ff7eaae102c20dd1025059e04e07d
:10441000103c102c09f1080918dd01321033072a6d
:1044200024932392c9f800a0c9f80450f0dd22aa11
:104430003146584627f004fe00287ff481aa103c3c
:10444000102c249b239a0df19409e6dc01322344bd
:10445000072a24932392c9f800a0c9f804407ff7e3
:10446000baae22aa0599584627f0eafd00287ff443
:1044700067aa249b239a0df19409aee641464eaefd
:1044800030340123884606f8014d0893fff7c0ba7f
:104490004eab9b1bcdf84890d8460f97ddf820b067
:1044a000ddf81890029f0893fff7b2ba1c68043336
:1044b0000a930025fff7edbb04321c680a92012322
:1044c0000025fff78aba0a9a146813460433e517e1
:1044d0000a9322462b460ce41c6804330a930025f9
:1044e000fff769ba22aa0599584627f0a9fd0028c6
:1044f0007ff426aa249b0df194090e9a18f4806f7c
:104500003244154600f083800f9908961846109b98
:10451000cdf82c8071180491069749461646ddf8af
:104520006090ddf84c80059d002b5fd0b8f1000f46
:1045300000f0088108f1ff38239b169a0a600133c6
:104540004844072b2490c1f80490239300f3c880bb
:104550000831129a049c1378a41b9c42a8bf1c46e5
:10456000002c0bdd239b0e6001332044072b24908d
:104570004c60239300f3ab8113780831002cacbf5f
:104580001c1b1c46002c2ddd102c239a1ddd102732
:1045900004e0103c102c01f1080116dd013210304e
:1045a000072a24902392c1f800a04f60f1dd22aacf
:1045b0002946584627f044fd00287ff4c1a9103c45
:1045c000102c2498239a25a9e8dc01322044072adc
:1045d00024902392c1f800a04c6000f39181129bbb
:1045e0001b7808311e44109b002b9fd1b8f1000f9f
:1045f000a0d134460f9a089e069fddf82c80b21891
:1046000094428946214628bf114603460d461c9a0e
:104610000f998a4280f201822399159c1798c9f854
:1046200000000131234407292493c9f80440239151
:1046300000f38d8209f108090f997418641b8a1a16
:104640009442a8bf1446002c0ddd2399c9f80050f0
:104650000131234407292493c9f80440239100f32e
:10466000bc8309f10809002cacbf141b1446002cb4
:104670007ff79eaa102c239a1edd1025059e04e0cc
:1046800009f10809103c102c16dd01321033072afd
:1046900024932392c9f800a0c9f80450f0dd22aa9f
:1046a0003146584627f0ccfc00287ff449a9249bca
:1046b000239a0df19409e5e701322344072a249354
:1046c0002392c9f800a0c9f804407ff76faa91e5ca
:1046d00018f0010f7ff457ad072a7ff77cadc0e6d5
:1046e00022aa2946584627f0abfc00287ff428a9c7
:1046f000249825a92de722aa0599584627f0a0fc61
:1047000000287ff41da9249b239a0df194093fe50d
:1047100022aa0599584627f093fc00287ff410a997
:10472000249b239a0df1940941e522aa0599584644
:1047300027f086fc00287ff403a9249b0df194093f
:10474000fff7e7b9129b013b1293109b013b1093bb
:10475000f2e6b4ee488bf1ee10fa80f1e3830d9ba4
:10476000612b00f0b882412b00f07881049b01336b
:104770000d9b23f0200500f09d83472d04d1049b61
:10478000002b08bf0123049318ee903a48f480727e
:10479000002b02924ff00003c0f2b882b0ee48ab9b
:1047a000069309930d9b662b00f0ef82462b00f0d9
:1047b000d883b0ee4a0b452d0abf049b049c5c1cb9
:1047c00020aa1dab0192009322461cab0221584641
:1047d00005f0d6f80d9b672b064640f0958318f040
:1047e000010f40f04383209bc6469b1bddf80880e9
:1047f0000f93472d00f0cf810d9b462b00f0b38225
:10480000652b40f312840d9b662b00f0ac821c9b41
:104810000e930f9b0e9a19469142134600f3608245
:104820001ef0010f00f06383159a134408931ef4e1
:10483000806f00f010830e9b002b40f30c836723e6
:104840000d9312980e9a0023139310930378ff2b65
:104850000ed09a420cdd4178d21a002900f08481f2
:10486000109b013310930b46ff2b00f10100f0d198
:104870000e92109b139a089912901344189a02fbf7
:104880000313089323eae3730293069b002b40f083
:104890007b8104939df86b20fff7c7b825f00705cf
:1048a00005f1080395ed008b0a93fff711bb4c4609
:1048b000894601322344072a24932392c9f800a091
:1048c000c9f804403ff70eae09f1080915e622aa1f
:1048d0002946584627f0b4fb00287ff431a8129be4
:1048e00024981b7825a949e622aa0599584627f05d
:1048f000a7fb00287ff424a80df19409fff7b2bbb1
:1049000022aa2946584627f09bfb00287ff418a8c6
:10491000129b24981b7825a91e4464e6239ac2485a
:10492000c9f80000013201330120072a24932392a1
:10493000c9f8040000f3858009f1080929b90f9a24
:104940001ab918f0010f3ff433a9239a159c179850
:10495000c9f8000001322344072a2493c9f804400f
:10496000239200f36a8209f108090029c0f2448207
:104970000f98c9f8006001320344072a2493239258
:10498000c9f804007ff712a934e4249b002b3ef4fd
:10499000ddaf059c119822aa214627f051fb002883
:1049a0003ef4d4afb4f90c30fef7d3bf0a9a0399a2
:1049b0001368cd170846043229460a92c3e900015c
:1049c0003e46fef7f4be043314880a930025fff731
:1049d00060b914880432002501230a92fef7fdbf56
:1049e000043314880a930025fef7e5bf0a98b0f94e
:1049f0000040fff779b922aa0599584627f020fb15
:104a000000287ef49daf249b0df19409fff743bb72
:104a100048f480683b78fef7fabe18f0010f3ff4c7
:104a20000baef9e54021119808f07afe059a106066
:104a30001061002800f0f182059a40235361fef7cf
:104a4000a0be22aa0599584627f0fafa00287ef45b
:104a500077af1c99249b0df194096fe730238df8f3
:104a60006c3058238df86d30049b632b48f00204a2
:104a700000f340820023099335ae18ee903a002be4
:104a80000d9b48f481720292a04623f02005c0f2eb
:104a90003e81b0ee48ab002306930d9b612b00f0e6
:104aa000ec81412b7ff47eaeb0ee4a0b1ca836f0b1
:104ab00017ffb4ee007b20ee070bb5ee400bf1eed6
:104ac00010fa01d101231c93584c049bb3ee005bf8
:104ad000013b314605e0b5ee400bf1ee10fa14d083
:104ae000114620ee050bfdeec06b0a4616ee900a4d
:104af000b3f1ff3f205c02f8010bb8eee67b1846ed
:104b000030ee470b03f1ff33e5d1b6ee007bb4ee98
:104b1000c70bf1ee10fa00f3ff80b4ee470bf1ee95
:104b200010fa04d116ee903adb0700f1f580002868
:104b300007db1418302301f8013fa142fbd10130fb
:104b40000244931bc6460f93ddf8088051e622aa63
:104b50000599584627f074fa00287ef4f1ae1c9aa5
:104b6000249b0df1940967e51399013113916ee6c9
:104b7000304604942af0c4fe20eae07208900a95b8
:104b800002922346fff76bb92d2200238df86b208c
:104b90000493fef74bbf1c9b0e93da1c03db049ab5
:104ba00093427ff736ae0d9b023b0d9323f0200519
:104bb0000e9b412d03f1ff331c9300f059819df8aa
:104bc00034200021002bb8bf0e9b8df87820babf8f
:104bd000c3f101032d222b22092b8df8792040f3fc
:104be0005d810df187042046114d00e0104685fbe4
:104bf0000312d917c1eba20101eb8102a3eb420220
:104c00003032092900f8012c0b4600f1ff32eddcaf
:104c100030330238dbb2844202f8013c40f2fa81c0
:104c20000df17a00114607e01c5e4400ec5d440083
:104c30006766666611f8013b00f8013b8c42f9d1ca
:104c40000134a21a0df17a031a441eabd31a0f9a3b
:104c50001993012a1344089340f3ad81089b159ad8
:104c6000134408930023139310930e93089b2ef480
:104c7000806e23eae3734ef48078029305e622aa5d
:104c80000599584627f0dcf900287ef459ae249b9c
:104c90000df19409fff729bb0a9a136804320a92ae
:104ca000bdf80c201a803e46fef781bd049b13968a
:104cb000062b28bf06233246049610960e960996b8
:104cc00002930a950893ae4efef7afbe2d228df8e3
:104cd0006b20fff70db930238df86c307823c1e6d7
:104ce0000f9b159a134408930e9b002b40f34e81a3
:104cf00067230d931ef4806f7ff4a3ad089b23ea16
:104d0000e3730293002313931093bee509932d23bd
:104d10000693b1ee48abc0e6209112f8010ce37b9c
:104d2000834240f0508113464ff0300e03f801ecff
:104d3000209b591e209113f8011c8142f6d039297d
:104d400016bf0131a17ac9b203f8011cf9e6049b30
:104d50000293089304900a95139010900e909df87a
:104d60006b20fef762be1c9b0e93002b049b40f34e
:104d70002d81002b40f0ec801ef0010f40f0e88008
:104d80000e9b089366230d93b4e7049cb0ee4a0b88
:104d900020aa1dab0192009303211cab224658466a
:104da00004f0eefd064601193378302b00f0f9804f
:104db0001c9c2144b5ee40abf1ee10fa0bd0209bc9
:104dc00099427ff611ad30205a1c20921870209b1a
:104dd0009942f9d808e50b4606e522aa05995846f6
:104de00027f02ef900287ef4abad1c9a0f99249b76
:104df0008a1a0df1940936e44c4210315dda10251f
:104e000004e009f10809103c102c56dd0132103382
:104e1000072a24932392c9f800a0c9f80450f0ddb2
:104e200022aa0599584627f00bf900287ef488ad90
:104e3000249b239a0df19409e5e722aa0599584687
:104e400027f0fef800287ef47bad1c99249b239a62
:104e50000df1940989e5089b23eae3730293672324
:104e60000d934fe700220492fef7d2bc3119a1e75f
:104e70000d9a0f32d2b20121a4e6b0ee4a0b1ca863
:104e800036f02efdb4ee007b20ee070bb5ee400ba6
:104e9000f1ee10fa00f0af803a4c16e6002940f02f
:104ea0008f8030228df87a200df17b023033137021
:104eb0000132cae60623049366e401322344072a3a
:104ec000c9f800a0c9f804402493239209f1080905
:104ed0007ff74ead22aa0599584627f0b1f8002871
:104ee0007ef42ead249b239a0df1940940e50e9b90
:104ef00008939ce4591c584608f012fc064600280a
:104f000000f096800990b8e50d9b472baed118f0c4
:104f1000010f3ff468ac0d9b462b06eb04013ff4f8
:104f200043af47e7184e0d9c9df86b2000231946b0
:104f300003200993331f0491029028f08008472c26
:104f4000d8bf1e46139110910e910890fef76dbdcb
:104f5000159a0e9b1344049a1a44662308920d93e3
:104f6000c8e6049cb0ee4a0b20aa1dab0192009348
:104f700022461cab0321584604f002fd0646cae750
:104f8000145e4400005e4400e85d4400089ac3f1ea
:104f900001031a4422eae2730293672308920d93f5
:104fa000b0e6b5ee40abf1ee10fa3ff401afc4f15c
:104fb00001041c94fde61ef0010f3ff453ae4de6d4
:104fc0000df17a0272e701461346b8e613b91ef0f6
:104fd000010f0ad0159b049a01331a4422eae273a6
:104fe0000293662308920d938ce6012302930893a3
:104ff00066230d9386e601231c934de70a987b7880
:10500000026842eae2720492024604320f460a92b1
:10501000fef7fdbb0df17a0217e6119a0c2313601f
:105020004ff0ff330393fef79bbc1c9b0e93bfe531
:10503000059ab2f90c3043f040039381fef789bc26
:020000040000fa
:020000040040ba
:1050400090b599b000af786039607b68db6cfb6528
:105050007b681b6dbb657b685b6d7b657b689b6d4f
:105060003b657b68db6dfb647a6d3b6d5a40bb6dc5
:105070001a403b6d5a407b68db68fb60fb68d418c4
:105080000521f86d45f0c4ff0346e218a94b13440f
:10509000fa6c1344fb641e21b86d45f0b9ffb86586
:1050a000ba6d7b6d5a40fb6d1a407b6d5a407b6830
:1050b0001b693b613b69d4180521f86c45f0a8ffda
:1050c0000346e2189b4b13443a6d13443b651e2183
:1050d000f86d45f09dfff865fa6dbb6d5a40fb6cad
:1050e0001a40bb6d5a407b685b697b617b69d41851
:1050f0000521386d45f08cff0346e2188d4b1344b3
:105100007a6d13447b651e21f86c45f081fff864cd
:10511000fa6cfb6d5a403b6d1a40fb6d5a407b6840
:105120009b69bb61bb69d4180521786d45f070ffa0
:105130000346e2187f4b1344ba6d1344bb651e212e
:10514000386d45f065ff38653a6dfb6c5a407b6df4
:105150001a40fb6c5a407b68db69fb61fb69d41821
:105160000521b86d45f054ff0346e218714b134416
:10517000fa6d1344fb651e21786d45f049ff786593
:105180007a6d3b6d5a40bb6d1a403b6d5a407b684f
:105190001b6a3b623b6ad4180521f86d45f038ff65
:1051a0000346e218634b1344fa6c1344fb641e215c
:1051b000b86d45f02dffb865ba6d7b6d5a40fb6d3b
:1051c0001a407b6d5a407b685b6a7b627b6ad418ad
:1051d0000521f86c45f01cff0346e218554b1344bb
:1051e0003a6d13443b651e21f86d45f011fff865db
:1051f000fa6dbb6d5a40fb6c1a40bb6d5a407b6820
:105200009b6abb62bb6ad4180521386d45f000ff6c
:105210000346e218474b13447a6d13447b651e2105
:10522000f86c45f0f5fef864fa6cfb6d5a403b6d86
:105230001a40fb6d5a407b68db6afb62fb6ad4183c
:105240000521786d45f0e4fe0346e218394b13441e
:10525000ba6d1344bb651e21386d45f0d9fe386523
:105260003a6dfb6c5a407b6d1a40fb6c5a407b6870
:105270001b6b3b633b6bd4180521b86d45f0c8fe32
:105280000346e2182b4b1344fa6d1344fb651e21b1
:10529000786d45f0bdfe78657a6d3b6d5a40bb6d0b
:1052a0001a403b6d5a407b685b6b7b637b6bd41809
:1052b0000521f86d45f0acfe0346e2181d4b134482
:1052c000fa6c1344fb641e21b86d45f0a1feb8656d
:1052d000ba6d7b6d5a40fb6d1a407b6d5a407b68fe
:1052e0009b6bbb63bb6bd4180521f86c45f090fe3b
:1052f0000346e2180f4b13443a6d13443b651e21dd
:10530000f86d45f085fef865fa6dbb6d5a40fb6c93
:105310001a40bb6d5a407b68db6bfb63fb6bd41898
:105320000521386d45f074fe0346e218014b134425
:1053300002e000bf9979825a7a6d13447b651e2181
:10534000f86c45f065fef864fa6cfb6d5a403b6df5
:105350001a40fb6d5a407b681b6c3b643b6cd41855
:105360000521786d45f054fe0346e218b24b134414
:10537000ba6d1344bb651e21386d45f049fe386592
:105380003a6dfb6c5a407b6d1a40fb6c5a407b684f
:105390005b6c7b647b6cd4180521b86d45f038fede
:1053a0000346e218a44b1344fa6d1344fb651e2117
:1053b000786d45f02dfe78657a6d3b6d5a40bb6d7a
:1053c0001a403b6d5a407b689b6cbb64bb6cd41825
:1053d0000521f86d45f01cfe0346e218964b134478
:1053e000fa6c1344fb641e21b86d45f011feb865dc
:1053f000ba6d7b6d5a40fb6d1a407b6d82ea0304e7
:105400003a6cfb6a5a407b695a40fb685340012161
:10541000184645f0fdfd0346fb60fb681c44052172
:10542000f86c45f0f5fd0346e218834b13443a6de2
:1054300013443b651e21f86d45f0eafdf865fa6df1
:10544000bb6d5a40fb6c1a40bb6d82ea03047a6c58
:105450003b6b5a40bb695a403b6953400121184697
:1054600045f0d6fd03463b613b691c440521386d80
:1054700045f0cefd0346e2186f4b13447a6d13449a
:105480007b651e21f86c45f0c3fdf864fa6cfb6d7a
:105490005a403b6d1a40fb6d82ea0304ba6c7b6b89
:1054a0005a40fb695a407b6953400121184645f038
:1054b000affd03467b617b691c440521786d45f097
:1054c000a7fd0346e2185c4b1344ba6d1344bb6559
:1054d0001e21386d45f09cfd38653a6dfb6c5a40d5
:1054e0007b6d1a40fb6c82ea0304fa68bb6b5a407e
:1054f0003b6a5a40bb6953400121184645f088fd7c
:105500000346bb61bb691c440521b86d45f080fdb5
:105510000346e218484b1344fa6d1344fb651e2101
:10552000786d45f075fd7865ba6d7b6d5a403b6dc1
:1055300082ea03043a69fb6b5a407b6a5a40fb6972
:1055400053400121184645f063fd0346fb61fb69aa
:105550001c440521f86d45f05bfd0346e218374b0e
:105560001344fa6c1344fb641e21b86d45f050fde2
:10557000b865fa6dbb6d5a407b6d82ea03047a69a7
:105580003b6c5a40bb6a5a403b6a53400121184663
:1055900045f03efd03463b623b6a1c440521f86c26
:1055a00045f036fd0346e218244b13443a6d13448c
:1055b0003b651e21f86d45f02bfdf865fa6cfb6d1f
:1055c0005a40bb6d82ea0304ba697b6c5a40fb6a9d
:1055d0005a407b6a53400121184645f019fd0346a5
:1055e0007b627b6a1c440521386d45f011fd034642
:1055f000e218124b13447a6d13447b651e21f86c3c
:1056000045f006fdf8643a6dfb6c5a40fb6d82ea8a
:105610000304fa69bb6c5a403b6b5a40bb6a534067
:105620000121184645f0f4fc0346bb62bb6a1c44ea
:105630000521786d04e000bf9979825aa1ebd96efb
:1056400045f0e6fc0346e218b44b1344ba6d13442c
:10565000bb651e21386d45f0dbfc38657a6d3b6d0e
:105660005a40fb6c82ea03043a6afb685a407b6b3f
:105670005a40fb6a53400121184645f0c9fc0346d5
:10568000fb62fb6a1c440521b86d45f0c1fc034672
:10569000e218a24b1344fa6d1344fb651e21786d8a
:1056a00045f0b6fc7865ba6d7b6d5a403b6d82ea79
:1056b00003047a6a3b695a40bb6b5a403b6b5340c8
:1056c0000121184645f0a4fc03463b633b6b1c4498
:1056d0000521f86d45f09cfc0346e2188f4b1344fe
:1056e000fa6c1344fb641e21b86d45f091fcb8655b
:1056f000fa6dbb6d5a407b6d82ea0304ba6a7b691e
:105700005a40fb6b5a407b6b53400121184645f0d1
:105710007ffc03467b637b6b1c440521f86c45f0e2
:1057200077fc0346e2187d4b13443a6d13443b6506
:105730001e21f86d45f06cfcf865fa6cfb6d5a4063
:10574000bb6d82ea0304fa6abb695a403b6c5a405b
:10575000bb6b53400121184645f05afc0346bb631e
:10576000bb6b1c440521386d45f052fc0346e21822
:105770006a4b13447a6d13447b651e21f86c45f027
:1057800047fcf8643a6dfb6c5a40fb6d82ea0304f7
:105790003a6bfb695a407b6c5a40fb6b53400121ca
:1057a000184645f035fc0346fb63fb6b1c440521a2
:1057b000786d45f02dfc0346e218584b1344ba6d42
:1057c0001344bb651e21386d45f022fc38657a6da7
:1057d0003b6d5a40fb6c82ea03047a6b3b6a5a4089
:1057e000bb6c5a403b6c53400121184645f010fcfd
:1057f00003463b643b6c1c440521b86d45f008fc36
:105800000346e218454b1344fa6d1344fb651e2111
:10581000786d45f0fdfb7865ba6d7b6d5a403b6d48
:1058200082ea0304ba6b7b6a5a40fb685a407b6c7d
:1058300053400121184645f0ebfb03467b647b6c2b
:105840001c440521f86d45f0e3fb0346e218334b99
:105850001344fa6c1344fb641e21b86d45f0d8fb69
:10586000b865fa6dbb6d5a407b6d82ea0304fa6b32
:10587000bb6a5a403b695a40bb6c534001211846f1
:1058800045f0c6fb0346bb64bb6c1c440521f86ca9
:1058900045f0befb0346e218204b13443a6d134417
:1058a0003b651e21f86d45f0b3fbf865fa6cfb6da6
:1058b0005a40bb6d82ea03043a6cfb6a5a407b692a
:1058c0005a40fb6853400121184645f0a1fb0346ae
:1058d000fb60fb681c440521386d45f099fb0346cd
:1058e000e2180e4b13447a6d13447b651e21f86c4d
:1058f00045f08efbf8643a6dfb6c5a40fb6d82ea12
:1059000003047a6c3b6b5a40bb695a403b69534075
:105910000121184645f07cfb034601e0a1ebd96e5e
:105920003b613b691c440521786d45f071fb0346e2
:10593000e218b44b1344ba6d1344bb651e21386d95
:1059400045f066fb38657a6d3b6d5a40fb6c82ea28
:105950000304ba6c7b6b5a40fb695a407b69534025
:105960000121184645f054fb03467b617b691c44ca
:105970000521b86d45f04cfb0346e218a14b1344da
:10598000fa6d1344fb651e21786d45f041fb786587
:10599000ba6d7b6d5a403b6d82ea0304fa68bb6bbb
:1059a0005a403b6a5a40bb6953400121184645f0b2
:1059b0002ffb0346bb61bb691c440521f86d45f014
:1059c00027fb0346e2188f4b1344fa6c1344fb6425
:1059d0001e21b86d45f01cfbb865fa6dbb6d5a40d1
:1059e0007b6d82ea03043a69fb6b5a407b6a5a403a
:1059f000fb6953400121184645f00afb0346fb6151
:105a0000fb691c440521f86c45f002fb0346e218d3
:105a10007c4b13443a6d13443b651e21f86d45f0f1
:105a2000f7faf865fa6cfb6d5a40bb6d82ea030425
:105a30007a693b6c5a40bb6a5a403b6a5340012129
:105a4000184645f0e5fa03463b623b6a1c440521d3
:105a5000386d45f0ddfa0346e2186a4b13447a6d5f
:105a600013447b651e21f86c45f0d2faf8643a6d58
:105a7000fb6c5a40fb6d82ea0304ba697b6c5a40a6
:105a8000fb6a5a407b6a53400121184645f0c0fa30
:105a900003467b627b6a1c440521786d45f0b8faa9
:105aa0000346e218574b1344ba6d1344bb651e21dd
:105ab000386d45f0adfa38657a6d3b6d5a40fb6c38
:105ac00082ea0304fa69bb6c5a403b6b5a40bb6ada
:105ad00053400121184645f09bfa0346bb62bb6a5e
:105ae0001c440521b86d45f093fa0346e218454b76
:105af0001344fa6d1344fb651e21786d45f088fa56
:105b00007865ba6d7b6d1a40b96d7b6d19433b6d3d
:105b10000b4042ea03043a6afb685a407b6b5a40e6
:105b2000fb6a53400121184645f072fa0346fb62b6
:105b3000fb6a1c440521f86d45f06afa0346e21839
:105b4000314b1344fa6c1344fb641e21b86d45f0cd
:105b50005ffab865fa6dbb6d1a40f96dbb6d1943fc
:105b60007b6d0b4042ea03047a6a3b695a40bb6b87
:105b70005a403b6b53400121184645f049fa034611
:105b80003b633b6b1c440521f86c45f041fa03462e
:105b9000e2181d4b13443a6d13443b651e21f86d0a
:105ba00045f036faf865fa6cfb6d1a40f96cfb6d3e
:105bb0001943bb6d0b4042ea0304ba6a7b695a4041
:105bc000fb6b5a407b6b53400121184645f020fa8d
:105bd00003467b637b6b1c440521386d45f018fa46
:105be0000346e218084b13447a6d13447b651e216b
:105bf000f86c45f00dfaf8643a6dfb6c1a40396d9b
:105c000004e000bfa1ebd96edcbc1b8ffb6c194319
:105c1000fb6d0b4042ea0304fa6abb695a403b6cd5
:105c20005a40bb6b53400121184645f0f1f9034639
:105c3000bb63bb6b1c440521786d45f0e9f9034655
:105c4000e218b34b1344ba6d1344bb651e21386d83
:105c500045f0def938657a6d3b6d1a40796d3b6d24
:105c60001943fb6c0b4042ea03043a6bfb695a4050
:105c70007b6c5a40fb6b53400121184645f0c8f934
:105c80000346fb63fb6b1c440521b86d45f0c0f96e
:105c90000346e2189e4b1344fa6d1344fb651e2124
:105ca000786d45f0b5f97865ba6d7b6d1a40b96dc0
:105cb0007b6d19433b6d0b4042ea03047a6b3b6af0
:105cc0005a40bb6c5a403b6c53400121184645f08a
:105cd0009ff903463b643b6c1c440521f86d45f07d
:105ce00097f90346e2188a4b1344fa6c1344fb6499
:105cf0001e21b86d45f08cf9b865fa6dbb6d1a4080
:105d0000f96dbb6d19437b6d0b4042ea0304ba6b1e
:105d10007b6a5a40fb685a407b6c5340012118460d
:105d200045f076f903467b647b6c1c440521f86cd6
:105d300045f06ef90346e218754b13443a6d13446f
:105d40003b651e21f86d45f063f9f865fa6cfb6d53
:105d50001a40f96cfb6d1943bb6d0b4042ea03041a
:105d6000fa6bbb6a5a403b695a40bb6c53400121f5
:105d7000184645f04df90346bb64bb6c1c44052135
:105d8000386d45f045f90346e218614b13447a6dce
:105d900013447b651e21f86c45f03af9f8643a6dbe
:105da000fb6c1a40396dfb6c1943fb6d0b4042eaea
:105db00003043a6cfb6a5a407b695a40fb685340c3
:105dc0000121184645f024f90346fb60fb681c449a
:105dd0000521786d45f01cf90346e2184c4b13443d
:105de000ba6d1344bb651e21386d45f011f9386555
:105df0007a6d3b6d1a40796d3b6d1943fb6c0b401e
:105e000042ea03047a6c3b6b5a40bb695a403b69d7
:105e100053400121184645f0fbf803463b613b69be
:105e20001c440521b86d45f0f3f80346e218384be1
:105e30001344fa6d1344fb651e21786d45f0e8f8b4
:105e40007865ba6d7b6d1a40b96d7b6d19433b6dfa
:105e50000b4042ea0304ba6c7b6b5a40fb695a4020
:105e60007b6953400121184645f0d2f803467b6117
:105e70007b691c440521f86d45f0caf80346e21819
:105e8000234b1344fa6c1344fb641e21b86d45f098
:105e9000bff8b865fa6dbb6d1a40f96dbb6d19435b
:105ea0007b6d0b4042ea0304fa68bb6b5a403b6ac5
:105eb0005a40bb6953400121184645f0a9f80346f2
:105ec000bb61bb691c440521f86c45f0a1f8034691
:105ed000e2180f4b13443a6d13443b651e21f86dd5
:105ee00045f096f8f865fa6cfb6d1a40f96cfb6d9d
:105ef0001943bb6d0b4042ea03043a69fb6b5a40fd
:105f00007b6a5a40fb6953400121184602e000bffa
:105f1000dcbc1b8f45f07cf80346fb61fb691c442d
:105f20000521386d45f074f80346e218b34b13446d
:105f30007a6d13447b651e21f86c45f069f8f864ae
:105f40003a6dfb6c1a40396dfb6c1943fb6d0b40cd
:105f500042ea03047a693b6c5a40bb6a5a403b6a86
:105f600053400121184645f053f803463b623b6a13
:105f70001c440521786d45f04bf80346e2189f4b11
:105f80001344ba6d1344bb651e21386d45f040f8cb
:105f900038657a6d3b6d1a40796d3b6d1943fb6c2a
:105fa0000b4042ea0304ba697b6c5a40fb6a5a40d0
:105fb0007b6a53400121184645f02af803467b626c
:105fc0007b6a1c440521b86d45f022f80346e218af
:105fd0008a4b1344fa6d1344fb651e21786d45f01e
:105fe00017f87865ba6d7b6d1a40b96d7b6d1943f2
:105ff0003b6d0b4042ea0304fa69bb6c5a403b6bb1
:106000005a40bb6a53400121184645f001f8034647
:10601000bb62bb6a1c440521f86d44f0f9ff0346de
:10602000e218764b1344fa6c1344fb641e21b86dde
