:020000040000fa
:020000040040ba
:10000000f8ef4520b99f41001fff41004311420016
:10001000bf2142000b244200c72c42000000000018
:1000200000000000000000000000000091264300d6
:100030003f1542000000000051a442000d0b430098
:10004000dff74100dff74100dff74100dff7410054
:10005000dff74100dff7410049254300dff74100aa
:10006000dff7410000000000dff74100dff741004b
:10007000dff74100dff74100d1d74100dff7410052
:10008000dff74100dff74100dff741008da54100b8
:10009000dff7410069a84100dff741006d2543000b
:1000a000dff74100dff74100dff74100dff74100f4
:1000b000dff74100dff74100dff74100dff74100e4
:1000c000dff74100dff74100dff74100dff74100d4
:1000d000dff74100dff74100dff74100654b4300e8
:1000e000dff74100dff74100dff74100dff74100b4
:1000f000dff74100dff74100dff74100dff74100a4
:10010000dff74100dff74100dff74100dff7410093
:10011000dff74100000000000000000000000000c8
:10012000dff74100dff74100dff74100dff7410073
:10013000dff74100dff74100dff74100dff7410063
:10014000dff74100dff74100dff74100dff7410053
:10015000dff74100dff74100dff74100dff7410043
:08016000dff74100dff7410069
:020000040000fa
:020000040040ba
:10016800f8b500bff8bc08bc9e467047394243004a
:10017800a1944200f8b500bff8bc08bc9e46704781
:040188007d94420020
:020000040000fa
:020000040040ba
:08018c00241b0100010000002a
:020000040000fa
:020000040040ba
:10019400a42640201c00000000000000785a4020e3
:1001a400640000000000000008614020040000001a
:1001b40000000000375e4020010000000000000045
:1001c400c046402004030000010000001cb74200a8
:1001d400000000000000000000000000000000001b
:1001e400000000000000000000000000000000000b
:1001f40000000000000000000000000000000000fb
:1002040000000000000000000000000000000000ea
:1004d40000f04520f0000000000000008c56402091
:1004e400a8000000000000000000402004000000fc
:1004f400000000000c614020040000000000000027
:10050400d4574020940000000000000010614020f7
:1005140004000000000000001461402004000000fa
:1005240000000000186140200400000000000000ea
:10053400f45c402028000000000000001c61402002
:1005440004000000000000002061402004000000be
:1005540000000000246140200400000000000000ae
:100564002861402004000000000000002c614020ad
:10057400040000000000000030614020040000007e
:10058400000000003461402004000000000000006e
:10059400806040200c000000000000000661402044
:1005a4000200000000000000386140200400000048
:1005b400000000003c614020040000000000000036
:1005c400575e402001000000000000004061402010
:1005d400040000000000000044614020040000000a
:1005e400000000000a50402002000000000000004b
:1005f4004861402004000000000000004c614020dd
:1006040004000000000000005061402004000000cd
:1006140000000000546140200400000000000000bd
:100624008c6040200c00000000000000765940203f
:1006340002000000000000007a6340200200000075
:1006440000000000986040200c0000000000000042
:100654005861402004000000000000005c6140205c
:100664000400000000000000f760402001000000ca
:10067400000000007c634020020000000000000035
:100684007e6340200200000000000000b85d4020ae
:100694002000000000000000606140200400000011
:1006a400000000006461402004000000000000001d
:1006b4006861402004000000000000006c614020dc
:1006c40004000000000000007061402004000000ed
:1006d40000000000746140200400000000000000dd
:1006e400a05e40201400000001000000f0df400084
:1006f40068e240006ce2400074e2400078e24000ae
:10070400786340200200000000000000786140206f
:1007140004000000000000007c6140200400000090
:100724000000000080614020040000000000000080
:100734008461402004000000000000008063402029
:10074400020000000000000082634020020000005c
:100754000000000088614020040000000000000048
:100764008c614020040000000000000090614020e3
:100774000400000000000000946140200400000018
:100784000000000098614020040000000000000008
:100794009c614020040000000000000084634020ad
:1007a40002000000000000008663402002000000f8
:1007b40000000000a06140200400000000000000d0
:1007c400a46140200400000000000000a861402053
:1007d4000400000000000000ac61402004000000a0
:1007e40000000000b45e402014000000000000007f
:1007f400b061402004000000000000008863402035
:100804000200000000000000b46140200400000069
:1008140000000000fc5b40204800000000000000d5
:10082400006140200600000001000000ffffffff00
:10083400ffff0000b8614020040000000000000039
:10084400bc6140200400000000000000c85e40209d
:100854001400000000000000445c40204000000040
:1008640000000000c06140200400000000000000ff
:10087400c46140200400000000000000ff6040202c
:100884000100000000000000c861402004000000d6
:1008940000000000cc6140200400000000000000c3
:1008a400d06140200400000000000000d46140201a
:1008b4000400000000000000d86140200400000093
:1008c40000000000dc614020040000000000000083
:1008d400e06140200400000000000000306040207f
:1008e4001000000000000000dc5e40201400000046
:1008f40000000000e461402004000000000000004b
:10090400e86140200400000000000000185e402060
:100914001f00000000000000ec6140200400000003
:1009240000000000f061402004000000000000000e
:10093400f46140200400000000000000f861402041
:1009440004000000000000000950402001000000e5
:100954000000000075594020010000000100000063
:1009640001000000fc6140200400000000000000c1
:1009740000624020040000000000000004624020e7
:100984000400000000000000086240200400000091
:10099400000000000c624020040000000000000081
:1009a400f05e40201400000000000000045f4020be
:1009b4001400000000000000106240200400000049
:1009c4000000000014624020040000000000000049
:1009d400185f40201400000000000000186240204e
:1009e40004000000000000009a63402001000000a1
:1009f400000000001c624020040000000000000011
:100a04002062402004000000000000009b6340209e
:100a140001000000000000008a6340200200000082
:100a240000000000246240200400000000000000d8
:100a34002862402004000000000000002c5f4020d9
:100a440014000000000000009c634020010000002e
:100a5400000000008c634020020000000000000041
:100a64008e63402002000000000000002c62402041
:100a74000400000000000000405f4020140000005b
:100a8400000000003062402004000000000000006c
:100a9400346240200400000000000000386240205e
:100aa40004000000000000003c624020040000003c
:100ab400000000004062402004000000000000002c
:100ac400446240200400000000000000486240200e
:100ad40004000000000000004c62402004000000fc
:100ae40000000000a46040200c0000000000000092
:100af400b06040200c00000000000000084e4020c0
:100b040001020000000000005062402004000000c8
:100b140000000000546240200400000000000000b7
:100b24005862402004000000000000005c62402085
:100b34000400000000000000906340200200000058
:100b4400000000009263402002000000000000004a
:100b54006062402004000000000000001c5d402092
:100b64002800000001000000bb010300d1010100c6
:100b74004b020100330203007c020300dd03030087
:100b8400de030300e0030300e103010000000000b2
:100b940070ff4520900000000000000020fd45206b
:100ba40050020000000000006462402004000000c5
:100bb4000000000068624020040000000000000003
:100bc4006c624020040000000000000070624020bd
:100bd40004000000000000007462402004000000d3
:100be40000000000786240200400000000000000c3
:100bf4007c624020040000000000000040604020af
:100c04001000000000000000545f402014000000a9
:100c140000000000d85d402020000000000000001b
:100c24009d6340200100000000000000806240201d
:100c34000400000000000000846240200400000062
:100c440001000000ffffffff886240200400000055
:100c5400000000008c62402004000000000000003e
:100c64009e6340200100000000000000f85d402069
:100c740020000000000000009062402004000000fa
:100c8400000000009f6340200100000000000000fd
:100c940050604020100000000000000094624020da
:100ca40004000000000000009862402004000000de
:100cb400000000009c6240200400000000000000ce
:100cc400385e40201f00000000000000a0624020a9
:100cd4000400000000000000a063402001000000a8
:100ce40000000000a4624020040000000000000096
:100cf400a86240200400000000000000ac62402014
:100d04000400000000000000b06240200400000065
:100d14000000000094634020020000000100000075
:100d2400ffff0000945d402024000000000000004c
:100d3400b46240200400000000000000b8624020bb
:100d44000400000000000000bc6240200400000019
:100d540000000000c0624020040000000000000009
:100d6400966340200200000000000000c46240209e
:100d74000400000000000000c862402004000000dd
:100d840000000000cc6240200400000000000000cd
:100d9400040040201c03000000000000d06240203a
:100da40004000000000000002003402008000000b0
:100db40000000000a16340200100000000000000ca
:100dc40028034020280000000000000050034020b9
:100dd4000800000000000000445d402028000000de
:100de4000000000058034020300000000000000014
:100df400bc6040200c00000000000000dc5a4020d1
:100e04006400000000000000585e4020180000004c
:100e140000000000e0604020080000000000000026
:100e2400d4624020040000000000000078594020f3
:100e34008000000000000000c86040200c0000009a
:100e44000000000020f9452000040000000000001c
:100e5400d86240200400000000000000f85940203f
:100e64008000000000000000f458402081000000d1
:100e740000000000ac514020900100000000000080
:100e8400705e40201800000000000000a2634020b3
:100e94000100000000000000685f40201400000012
:100ea40001000000ff00000000000000000000003e
:100eb400ff000000ff000000a0034020f81d000018
:100ec40000000000885e40201800000001000000bf
:100ed400a0214020e0234020ec4a43000000000011
:100ee400e0214020000000007c5f4020140000004e
:100ef40001000000741d4300781d43007c1d430065
:100f0400841d4300881d4300a02140205c02000092
:100f140000000000845c4020380000000000000055
:100f240034574020a00000000000000098634020d7
:100f3400020000000100000001000000dc6240200b
:100f44000400000000000000fc2340200800000012
:100f5400000000006060402010000000000000005d
:100f6400c02640200020000000000000a45b4020b8
:100f74005800000000000000004c4020080200005f
:100f840000000000bc5c40203800000001000000ac
:100f9400e8834200f0834200fc8342001084420054
:100fa4002084420030844200308442004084420065
:100fb40048844200090000001cb742000000000001
:100fc4000000000000000000905f402014000000ba
:100fd4000100000001010000ad4543009d454300b0
:100fe400bd454300c0fd000004244020180000005b
:100ff40000000000e0624020040000000000000047
:10100400e46240200400000001000000aaaaaaaa89
:10101400e86240200400000000000000ec62402070
:101024000400000000000000f06240200400000002
:1010340000000000405b402064000000000000004d
:10104400f46240200400000000000000f862402028
:101054000400000000000000fc62402004000000c6
:1010640000000000006340200400000000000000b5
:1010740004634020040000000000000008634020d6
:101084000400000000000000a45f402014000000e1
:1010940000000000b85f40201400000000000000c1
:1010a4000c63402004000000000000001063402096
:1010b400040000000000000014634020040000004d
:1010c40000000000cc5f402014000000000000007d
:1010d400186340200400000000000000e05f40208e
:1010e4001400000000000000f45f40201400000021
:1010f400000000001c634020040000000000000009
:10110400206340200400000000000000246340200d
:1011140004000000000000002863402004000000d8
:1011240000000000086040201400000000000000df
:101134001c60402014000000000000002c634020cc
:1011440004000000000000003063402004000000a0
:101154000000000034634020040000000000000090
:101164003863402004000000000000001c244020dc
:101174000002000000000000d46040200c000000c9
:101184000100000000000000b49440000a10207d1b
:101194000c504020a001000000000000a854402092
:1011a400280100000100000048614100a1dc420068
:1011b400546141008dd3420060614100d9d34200a3
:1011c4006c614100714143007861410085414300f5
:1011d4008461410005ee42008861410071ce420005
:1011e40094614100994143009c614100ad41430039
:1011f400a4614100c1414300ac61410095b3420088
:10120400b061410089054300b4614100d541430008
:10121400c061410011424300c86141000d4e4300ca
:10122400d4614100114e4300e061410015154300b3
:10123400ec6141007dc74200f861410079dd420064
:1012440008624100452743001c62410045ee42000c
:101254002862410085ee420034624100c5ee42003e
:101264004462410005ef42005062410045ef4200f4
:101274005c624100218c420064624100cd0b43005a
:1012840070624100e91443007c624100e94143007b
:1012940088624100fd41430098624100094e4300c9
:1012a400a8624100fd4d4300b4624100014e430079
:1012b400c0624100054e4300cc62410041704200cf
:1012c400d4624100e9dc4200dc62410031dd4200cd
:1012d4003c6340200400000000000000a3634020a1
:1012e4000100000000000000a46340200100000091
:1012f40000000000706040201000000000000000aa
:10130400f06040200700000001000000393939393d
:1013140039393900685840208c0000000100000071
:10132400312e436f63612d436f6c61000000000038
:1013340000000000322e446965742d436f6b650014
:101344000000000000000000332e50657073690037
:10135400000000000000000000000000342e447271
:1013640020506570706572000000000000000000ed
:10137400352e53707269746500000000000000008f
:1013840000000000362e46616e746100000000000b
:101394000000000000000000372e446173616e6994
:1013a4000000000000000000000000001c26402097
:1013b4000800000000000000d0554020bc000000e0
:1013c40000000000a56340200100000000000000b0
:1013d400a66340200100000000000000406340209c
:1013e4000400000000000000c44940203c0200004a
:1013f40000000000446340200400000000000000de
:10140400f860402007000000010000003939393934
:10141400393939002426402004000000000000006f
:10142400a763402001000000000000004863402042
:1014340004000000000000004c6340200400000091
:101444000000000050634020040000000000000081
:10145400a863402001000000000000005463402005
:101464000400000001000000010000005863402057
:10147400040000000100000002000000e8604020b9
:101484000800000001000000ffffffffffffffff57
:101494002826402076000000000000005c63402005
:1014a4000400000001000000f0f04520f0f04520a9
:1014b400280400000100000000000000dcf34520c7
:1014c40044f44520acf44520000000000000000076
:1014d4000000000000000000000000000000000008
:1014e40000000000000000000000000000000000f8
:1014f40000000000000000000000000000000000e8
:1015040000000000000000000000000000000000d7
:1015140000000000000000000000000000000000c7
:1015240000000000000000000000000000000000b7
:1015340000000000000000000000000000000000a7
:101544000000000000000000000000000000000097
:101554000000000000000000000000000000000087
:1015640001000000000000000e33cdab34126de624
:10157400ecde05000b00000000000000000000008d
:101584000000000000000000000000000000000057
:101594000000000000000000000000000000000047
:1015a4000000000000000000000000000000000037
:1015b4000000000000000000000000000000000027
:1018e4003c5340206c010000010000004300000054
:1018f40000000000000000000000000000000000e4
:101904000000000000000000000000004300000090
:1019140000000000000000000000000000000000c3
:101924000000000000000000000000004300000070
:1019340000000000000000000000000000000000a3
:101944000000000000000000000000004300000050
:101954000000000000000000000000000000000083
:101964000000000000000000000000004300000030
:101974000000000000000000000000000000000063
:101984000000000000000000000000004300000010
:101994000000000000000000000000000000000043
:1019a40000000000000000000000000043000000f0
:1019b4000000000000000000000000000000000023
:1019c4000000000000000000000000001936430081
:1019d400411543000000000090e4410034424300fc
:1019e400304243003042430030424300304243001f
:1019f400304243003042430030424300304243000f
:101a040030424300ffffffffffffffffffffffff29
:101a1400ffff00000100415343494900000000005a
:101a240000000000000000000000000000000000b2
:101a34000000000000004153434949000000000039
:101a44000000000000000000000000000000000092
:101a540000000000000000006c5d40202800000031
:101a6400000000006063402004000000000000004b
:101a7400646340200400000000000000686340200c
:101a8400040000000000000018f5452008040000d0
:101a940001000000000000000000000018f54520cf
:101aa40018f5452020f5452020f5452028f545204a
:101ab40028f5452030f5452030f5452038f54520fa
:101ac40038f5452040f5452040f5452048f54520aa
:101ad40048f5452050f5452050f5452058f545205a
:101ae40058f5452060f5452060f5452068f545200a
:101af40068f5452070f5452070f5452078f54520ba
:101b040078f5452080f5452080f5452088f5452069
:101b140088f5452090f5452090f5452098f5452019
:101b240098f54520a0f54520a0f54520a8f54520c9
:101b3400a8f54520b0f54520b0f54520b8f5452079
:101b4400b8f54520c0f54520c0f54520c8f5452029
:101b5400c8f54520d0f54520d0f54520d8f54520d9
:101b6400d8f54520e0f54520e0f54520e8f5452089
:101b7400e8f54520f0f54520f0f54520f8f5452039
:101b8400f8f5452000f6452000f6452008f64520e6
:101b940008f6452010f6452010f6452018f6452095
:101ba40018f6452020f6452020f6452028f6452045
:101bb40028f6452030f6452030f6452038f64520f5
:101bc40038f6452040f6452040f6452048f64520a5
:101bd40048f6452050f6452050f6452058f6452055
:101be40058f6452060f6452060f6452068f6452005
:101bf40068f6452070f6452070f6452078f64520b5
:101c040078f6452080f6452080f6452088f6452064
:101c140088f6452090f6452090f6452098f6452014
:101c240098f64520a0f64520a0f64520a8f64520c4
:101c3400a8f64520b0f64520b0f64520b8f6452074
:101c4400b8f64520c0f64520c0f64520c8f6452024
:101c5400c8f64520d0f64520d0f64520d8f64520d4
:101c6400d8f64520e0f64520e0f64520e8f6452084
:101c7400e8f64520f0f64520f0f64520f8f6452034
:101c8400f8f6452000f7452000f7452008f74520e1
:101c940008f7452010f7452010f7452018f7452090
:101ca40018f7452020f7452020f7452028f7452040
:101cb40028f7452030f7452030f7452038f74520f0
:101cc40038f7452040f7452040f7452048f74520a0
:101cd40048f7452050f7452050f7452058f7452050
:101ce40058f7452060f7452060f7452068f7452000
:101cf40068f7452070f7452070f7452078f74520b0
:101d040078f7452080f7452080f7452088f745205f
:101d140088f7452090f7452090f7452098f745200f
:101d240098f74520a0f74520a0f74520a8f74520bf
:101d3400a8f74520b0f74520b0f74520b8f745206f
:101d4400b8f74520c0f74520c0f74520c8f745201f
:101d5400c8f74520d0f74520d0f74520d8f74520cf
:101d6400d8f74520e0f74520e0f74520e8f745207f
:101d7400e8f74520f0f74520f0f74520f8f745202f
:101d8400f8f7452000f8452000f8452008f84520dc
:101d940008f8452010f8452010f8452018f845208b
:101da40018f8452020f8452020f8452028f845203b
:101db40028f8452030f8452030f8452038f84520eb
:101dc40038f8452040f8452040f8452048f845209b
:101dd40048f8452050f8452050f8452058f845204b
:101de40058f8452060f8452060f8452068f84520fb
:101df40068f8452070f8452070f8452078f84520ab
:101e040078f8452080f8452080f8452088f845205a
:101e140088f8452090f8452090f8452098f845200a
:101e240098f84520a0f84520a0f84520a8f84520ba
:101e3400a8f84520b0f84520b0f84520b8f845206a
:101e4400b8f84520c0f84520c0f84520c8f845201a
:101e5400c8f84520d0f84520d0f84520d8f84520ca
:101e6400d8f84520e0f84520e0f84520e8f845207a
:101e7400e8f84520f0f84520f0f84520f8f845202a
:101e8400f8f8452000f9452000f9452008f94520d7
:101e940008f9452010f9452010f945206c634020cd
:101ea4000400000001000000ffffffff70634020fa
:101eb400040000000100000000000200a0264020f1
:101ec40004000000000000007463402004000000cf
:101ed4000000000000000000000000002222222276
:020000040000fa
:020000040040ba
:101ee4004c696d6974656400446972656374656402
:101ef4000000000055736167653a20616e6e6f756e
:101f04006e636520302f310d0a00000025732062b6
:101f140063617374207375626d69747465643a20c7
:101f240025640d0a0000000055736167653a20734b
:101f3400736920696e666f0d0a000000696e666f32
:101f440000000000535349207661726961626c6538
:101f540020736c6f7473202d206163746976653a05
:101f64002025642c20746f74616c3a2025640d0a5a
:101f740000000000535349207661726961626c6508
:101f8400202564206e616d653a2025732c207661ce
:101f94006c75653a2025732c20747970653a202578
:101fa400640d0a0055736167653a20687474702083
:101fb400696e666f2f737461740d0a00485454502f
:101fc40020636f6e6e656374696f6e73202d20617c
:101fd40063746976653a2025642c206f70656e3ac7
:101fe4002025640d0a0000004854545020636f6e8d
:101ff4006e3a202564207374617475733a203078c6
:102004002534782c20736d3a2030782534782c20b0
:102014006368756e6b733a2025642c206368756e53
:102024006b20656d7074793a2025642c2066696c88
:102034006520656d7074793a2025640d0a000000ee
:102044000948545450206368756e6b3a2025642007
:10205400666c6167733a2030782534782c20737469
:10206400617475733a2030782534782c20664e617b
:102074006d653a2025730d0a000000000948545488
:1020840050206368756e6b3a2064796e20627566c1
:10209400666572733a2025642c20766172204e6145
:1020a4006d653a2025730d0a000000004854545011
:1020b4003a206661696c656420746f2067657420da
:1020c400696e666f20666f7220636f6e6e3a2025ac
:1020d400640d0a0073746174000000004854545085
:1020e40020636f6e6e656374696f6e733a20256446
:1020f4002c206163746976653a2025642c206f7006
:10210400656e3a2025640d0a0000000048545450be
:1021140020706f6f6c20656d7074793a2025642c83
:10212400206d61782064657074683a2025642c20e1
:10213400706172736520726574726965733a2025e3
:10214400640d0a00485454503a20756e6b6e6f77d4
:102154006e20706172616d657465720d0a00000015
:1021640055736167653a206d6163696e666f200d12
:102174000a00000045783a206d6163696e666f203d
:102184000d0a0000496e746572666163653a202524
:102194007320447269766572205374617469737430
:1021a4006963730d0a0000000d0a205265636569b6
:1021b400766520537461746973746963730d0a00de
:1021c40009206e52784f6b5061636b6574733a20cb
:1021d40025640d0a09206e527850656e6442756656
:1021e400666572733a2025640d0a09206e5278538d
:1021f40063686564427566666572733a2025640d8a
:102204000a00000009206e52784572726f725061a4
:10221400636b6574733a2025640d0a09206e527845
:10222400467261676d656e744572726f72733a209f
:1022340025640d0a09206e5278427566664e6f74e5
:10224400417661696c61626c653a2025640d0a000f
:102254000d0a205472616e736d6974205374617435
:102264006973746963730d0a0000000009206e54d9
:10227400784f6b5061636b6574733a2025640d0a63
:1022840009206e547850656e644275666665727393
:102294003a2025640d0a09206e54784572726f72d3
:1022a4005061636b6574733a2025640d0a09206ece
:1022b4005478517565756546756c6c3a2025640dc6
:1022c4000a0d0a00096e6f7420737570706f727452
:1022d40065640d0a00000000496e746572666163ee
:1022e400653a2025732048617264776172652052d3
:1022f40065676973746572205374617475730d0a2c
:1023040000000000092025733a20307825780d0a52
:102314000000000064697361626c65640000000081
:1023240064697361626c6500656e61626c6564000a
:10233400656e61626c65000055736167653a2025be
:1023440073203c696e746572666163653e203c6f00
:102354006e2f6f66663e200d0a00000045783a2015
:102364002573205049433332494e54206f6e200d5b
:102374000a000000556e6b6e6f776e20696e74658f
:1023840072666163650d0a006f6e00006f66660019
:10239400556e6b6e6f776e206f7074696f6e0d0a79
:1023a4000000000025732025730d0a004661696c46
:1023b400656420746f2025732025730d0a000000c6
:1023c400556e6b6e6f776e207365727669636520e8
:1023d40025730d0a000000006e6f6e65000000009a
:1023e400e035400001000000401f400002000000f2
:1023f4008c234000030000009023400003000000f1
:10240400e43540000400000055736167653a2064b8
:102414006e7363203c64656c2f696e666f2f6f6efc
:102424002f6f66662f6c6f6f6b75703e200d0a0000
:1024340055736167653a202573203c6f6e2f6f6674
:10244400663e203c696e746572666163653e203c3d
:102454007374726963742f707265663e2f3c636c8b
:102464006561723e200d0a0045783a202573206f7d
:102474006e20657468300d0a000000007374726980
:10248400637400007072656600000000636c65612f
:102494007200000055736167653a20646e736320af
:1024a4006c6f6f6b7570203c747970653e203c686e
:1024b4006f73744e616d653e200d0a0048656c7043
:1024c4003a203c686f73744e616d653e2855524cda
:1024d40029202d206c6f6f6b20757020666f722021
:1024e400686f73746e616d650d0a000048656c70e9
:1024f4003a203c747970653e203a2061206f722046
:102504004120666f7220495076342061646472659c
:102514007373206c6f6f6b75700d0a0048656c7077
:102524003a203c747970653e203a206161616120f3
:102534006f72204141414120666f722049507636c6
:102544002061646472657373206c6f6f6b75700dba
:102554000a00000048656c703a203c747970653e4e
:10256400203a20616e7920666f7220626f74682051
:102574004950763420616e64204950763620616477
:102584006472657373206c6f6f6b75700d0a000055
:10259400646e7363206c6f6f6b75703a20636f6d3c
:1025a4006d616e6420696e2070726f6772657373fb
:1025b4002e205265747279206c617465722e0d0a36
:1025c4000000000041000000610000004141414161
:1025d400000000006161616100000000414e59008b
:1025e400616e7900646e7363206c6f6f6b75703a03
:1025f400205b25735d204c6f6f6b75702054797070
:1026040065206e6f7420737570706f727465642ebc
:102614000d0a0000646e7363206c6f6f6b75703a03
:1026240020486f7374206e616d6520746f6f206c29
:102634006f6e672e2052657472792e0d0a000000a9
:10264400646e7363206c6f6f6b75703a2072657380
:102654006f6c76696e6720686f73743a20257320f7
:10266400666f7220747970653a2573200d0a000034
:1026740055736167653a20646e73632064656c20ea
:102684003c686f73744e616d653e7c616c6c200dab
:102694000a00000048656c703a203c686f73744e01
:1026a400616d653e2855524c29202d2052656d6f71
:1026b40076652074686520656e7472792069662079
:1026c400657869737473200d0a00000048656c70a6
:1026d4003a20616c6c202d2052656d6f7665206107
:1026e4006c6c20746865207265736f6c7665642009
:1026f400656e747279200d0a00000000616c6c0034
:102704005b25735d206e6f742070617274206f6638
:102714002074686520444e532043616368652065d6
:102724006e747279200d0a00496e636f6d706c656a
:10273400746520636f6d6d616e64200d0a00000086
:1027440055736167653a20646e736320696e666fc2
:10275400200d0a0048656c703a20646973706c61de
:10276400792074686520444e532063616368652052
:10277400656e7472792064657461696c73200d0ae6
:1027840000000000444e5320436c69656e74206958
:102794007320646f776e210d0a000000444e5320ad
:1027a400436c69656e74204946202d205374726908
:1027b40063743a2025732c205072656665727265c5
:1027c400643a2025730d0a00444e5320436c696516
:1027d4006e74202d2074696d653a2025642c207058
:1027e400656e64696e673a2025642c206375727285
:1027f400656e743a2025642c20746f74616c3a20e1
:1028040025640d0a00000000486f73746e616d65e5
:10281400203d202573200d0a54696d656f75742061
:102824003d202564200d0a0049507634203d25734f
:102834000d0a000049507636203d2025730d0a000c
:102844002d2d2d2d2d2d2d2d2d2d2d2d2d2d2d2db4
:102854002d2d2d2d2d2d2d2d2d2d2d2d2d2d2d2da4
:102864002d2d2d2d2d2d2d2d2d2d2d2d2d2d2d2d94
:102874002d2d2d2d0d0a00004e6f20444e53204364
:102884006c69656e7420436163686520656e74725b
:10289400696573200d0a0000496e76616c696420d5
:1028a400496e70757420436f6d6d616e64203a5b80
:1028b400202573205d200d0a000000006172703a2b
:1028c400206164647265737320616c7265616479fc
:1028d400207175657565640d0a0000006172703ab7
:1028e4002061646472657373206e65776c792071fe
:1028f40075657565640d0a006172703a20717565bd
:1029040075652066756c6c2f6572726f720d0a00a6
:1029140055736167653a20617270203c696e746515
:1029240072666163653e203c722f712f642f6c3e8a
:10293400203c6970416464723e200d0a000000006e
:1029440045783a20617270205049433332494e54dd
:102954002072203139322e3136382e312e31303535
:10296400200d0a006c0000006172703a202564207a
:10297400736c6f747320696e20746865206361637f
:1029840068650d0a000000006172703a20495076b3
:102994003420616464726573733a20257300000007
:1029a4002c204d414320416464726573733a2025a1
:1029b400730000002c20636f6d706c6574650d0ae4
:1029c400000000002c207065726d616e656e740de0
:1029d4000a0000006172703a204950763420616424
:1029e40064726573733a2025732c2071756575655f
:1029f400640d0a00496e76616c6964204950206157
:102a040064647265737320737472696e67200d0a4f
:102a140000000000720000006172703a2072657359
:102a24006f6c766564202d2049507634206164648f
:102a3400726573733a2025732c204d414320416401
:102a440064726573733a2025730d0a0071000000e7
:102a54006172703a204950763420616464726573ff
:102a6400733a2025732c204d4143204164647265e0
:102a740073733a2025730d0a000000006172703ae6
:102a8400206e6f207375636820656e7472790d0a09
:102a940000000000640000006172703a2072656ded
:102aa4006f7665642025730d0a0000006172703a28
:102ab40020556e6b6e6f776e206f7074696f6e0d3c
:102ac4000a000000696e7465726e616c000000009b
:102ad400706f6f6c0000000065787465726e616cd5
:102ae40000000000756e6b6e6f776e005573616742
:102af400653a2068656170696e666f20312f322fe8
:102b040033200d0a0000000045783a2068656170a2
:102b1400696e666f20310d0a000000004e6f206858
:102b240065617020696e666f2065786973747320bf
:102b3400666f7220747970653a202573210d0a003e
:102b44004865617020747970653a2025732e204998
:102b54006e697469616c2063726561746564206870
:102b64006561702073697a653a202564204279741e
:102b740065730d0a00000000416c6c6f6361626c48
:102b84006520626c6f636b20686561702073697a7d
:102b9400653a2025642042797465730d0a000000ab
:102ba400416c6c20617661696c61626c652068655a
:102bb40061702073697a653a2025642042797465ce
:102bc400732c20686967682077617465726d61721f
:102bd4006b3a2025640d0a004c61737420686561aa
:102be40070206572726f723a20307825780d0a0071
:102bf4004e6f20547261636520696e666f2065783c
:102c0400697374732e0d0a00537461636b207570bd
:102c1400206661696c65640d0a0000005374616389
:102c24006b207570207375636365656465640d0a54
:102c34000000000055736167653a20737461636b2b
:102c4400203c75702f646f776e3e203c7072657304
:102c5400657276653e0d0a0045783a2073746163a7
:102c64006b20646f776e2070726573657276650d84
:102c74000a00000075700000537461636b20616c7e
:102c84007265616479207570210d0a005475726e45
:102c940020537461636b20646f776e20616e6420cf
:102ca4007468656e207570210d0a00005265737496
:102cb400617274696e672074686520737461636bf4
:102cc400207769746820256420696e746572666172
:102cd40063652873290d0a00646f776e0000000095
:102ce400537461636b20646f776e3a2063616e6e18
:102cf4006f7420676574206120737461636b20684e
:102d0400616e646c650d0a00537461636b20646fbb
:102d1400776e207375636365656465640d0a0000ee
:102d240055736167653a206966203c696e74657203
:102d3400666163653e203c646f776e2f75703e203c
:102d44000d0a000045783a20696620504943333221
:102d5400494e5420646f776e200d0a00556e6b6ed9
:102d64006f776e20696e7465726661636520737037
:102d740065636966696564200d0a000054686973b7
:102d840020696e7465726661636520616c72656149
:102d940064792075700d0a005468697320696e7433
:102da40065726661636520616c7265616479206433
:102db4006f776e0d0a00000057726f6e67207061a6
:102dc40072616d65746572207370656369666965a7
:102dd40064200d0a000000004f7065726174696f11
:102de4006e207375636365737366756c210d0a00d9
:102df4004f7065726174696f6e206661696c656499
:102e0400210d0a0055736167653a207365746d611d
:102e140063203c696e746572666163653e203c782c
:102e24003a783a783a783a783a783e200d0a0000af
:102e340045783a207365746d616320504943333299
:102e4400494e542061613a62623a63633a64643a77
:102e540065653a6666200d0a0000000061726776b7
:102e64005b325d3a2025730d0a000000496e7661dd
:102e74006c6964204d4143206164647265737320fe
:102e8400737472696e67200d0a0000005365742024
:102e94004d41432061646472657373206661696c9b
:102ea40065640d0a000000005365742042494f53c5
:102eb400204e616d65204f4b0d0a00005365742050
:102ec40042494f53204e616d65206661696c6564ab
:102ed4000d0a000055736167653a20736574626971
:102ee4006f73203c696e746572666163653e203c55
:102ef400782e782e782e783e200d0a0045783a20d8
:102f040073657462696f73205049433332494e5478
:102f1400204d434850424f4152445f3239200d0afc
:102f2400000000005365742067617465776179203f
:102f340061646472657373204f4b0d0a00000000d6
:102f44005365742067617465776179206164647284
:102f5400657373206661696c65640d0a0000000086
:102f640055736167653a207365746777203c696eb1
:102f7400746572666163653e203c697076342f36f1
:102f840020616464726573733e203c76616c69648d
:102f940054696d653e200d0a0000000045783a2012
:102fa4007365746777205049433332494e54203156
:102fb40039322e3136382e302e31200d0a000000e1
:102fc4005365742069702061646472657373204f63
:102fd4004b0d0a0053657420697020616464726546
:102fe4007373206661696c65640d0a0055736167cb
:102ff400653a207365746970203c696e7465726605
:103004006163653e203c697076342f3620616464c8
:10301400726573733e203c697076346d61736b2ff7
:103024006970763620707265666978206c656e3ecc
:103034000d0a000045783a20736574697020504980
:10304400433332494e54203139322e3136382e3002
:103054002e38203235352e3235352e3235352e3058
:10306400200d0a00416e20616464726573732073dd
:1030740065727669636520697320616c7265616449
:10308400792072756e6e696e672e2053746f70208e
:10309400444843502c205a434c4c2c206574632ed6
:1030a4002066697273740d0a00000000496e76612f
:1030b4006c6964204950206d61736b20737472696c
:1030c4006e67200d0a0000004e6f20737563682040
:1030d400696e746572666163652069732075700d2d
:1030e4000a00000055736167653a20736574646e65
:1030f40073203c696e746572666163653e203c783a
:103104002e782e782e783e200d0a000045783a203d
:10311400736574646e73205049433332494e5420ae
:103124003235352e3235352e3235352e30200d0ad6
:103134000000000053657420444e5320616464729f
:10314400657373206661696c65640d0a0000000094
:103154006e6f7420676976656e0000007375636333
:10316400657373006661696c0000000055736167e4
:10317400653a202573203c696e74657266616365e7
:103184003e203c6f6e2f6f66662f72656e65772fdb
:10319400726571756573742f696e666f3e200d0ad2
:1031a4000000000072656e6577000000726571753d
:1031b4006573740052657175657374206e6565641a
:1031c4007320616e20495020616464726573730dcd
:1031d4000a00000044484350207374617475733ac4
:1031e4002025642028202564203d3d20426f756ef3
:1031f40064292c2074696d653a2025640d0a000049
:1032040044484350206c6561736520737461727423
:103214003a2025642c206475726174696f6e3a20bb
:103224002564730d0a000000444843502072656e03
:1032340065772074696d653a2025642c2072656277
:10324400696e642074696d653a2025640d0a000076
:103254004448435020616464726573733a20257353
:103264000d0a000044484350207365727665723a33
:103274002025730d0a0000004448435020626f6ffc
:1032840074206e616d653a2025730d0a00000000fc
:10329400444843503a206661696c656420746f2029
:1032a40067657420696e666f0d0a0000257320251a
:1032b400732025730d0a0000737563636573736669
:1032c400756c00006661696c656421004e6f6e6503
:1032d40000000000736574006765740044656661ee
:1032e400756c7420696e74657266616365207365bc
:1032f400742025730d0a000044656661756c7420a2
:10330400696e746572666163652069733a2025731a
:103314000d0a000055736167653a206465666e6541
:1033240074207365742f676574203c696e746572cc
:10333400666163653e0d0a0045783a206465666ef1
:1033440065742073657420657468300d0a0000008c
:1033540055500000444f574e000000005265616410
:10336400790000004e6f742052656164790000009a
:1033740055736167653a206e6574696e666f0d0af0
:103384000000000045783a206e6574696e666f0d22
:103394000a0000002d2d2d2d2d2d2d2d2d2d2049f4
:1033a4006e74657266616365203c25732f25733ed8
:1033b400202d2d2d2d2d2d2d2d2d2d200d0a0000f0
:1033c400496e7465726661636520697320646f7702
:1033d4006e0d0a00486f7374204e616d653a2025a6
:1033e40073202d204e424e5320656e61626c6564dd
:1033f4000d0a000049507634204164647265737389
:103404003a2025730d0a00004d61736b3a20257331
:103414000d0a0000476174657761793a2025730dc0
:103424000a000000444e533a2025730d0a000000a0
:103434004d414320416464726573733a2025730dd2
:103444000a0000004950763620556e696361737432
:10345400206164647265737365733a0d0a00000039
:103464002020202025730d0a0000000020202020a9
:10347400556e6b6e6f776e0d0a00000049507636fc
:10348400204d756c74696361737420616464726542
:10349400737365733a0d0a0064686370206973205e
:1034a40025730d0a000000004c696e6b20697320bf
:1034b40025730d0a000000005374617475733a207b
:1034c40025730d0a0000000064656661756c742044
:1034d4004950206164647265737300002573206928
:1034e40073204f4e0d0a00006468637000000000f2
:1034f400444e53204c6f6f6b75703a20444e5320ea
:103504006661696c75726520666f722025730d0a99
:1035140000000000444e53204c6f6f6b75703a20ce
:10352400726571756573742074696d656f75742e39
:103534000d0a00004c6f6f6b757020416e737765d8
:10354400723a0d0a2d2d2d2d2d2d2d2d2d2d2d2d98
:103554002d2d2d2d2d2d2d2d2d2d0d0a000000008e
:103564004e6f204c6f6f6b757020656e747279208e
:10357400666f72205b25735d0d0a00005b25735d29
:10358400204120495076342041646472657373206d
:103594003a2025642e25642e25642e25640d0a0008
:1035a4005b25735d204141414120495076362041dd
:1035b400646472657373203a25730d0a0000000079
:1035c4003a20737461636b20636f6d6d616e647315
:1035d40000000000746370697000000064656c0092
:1035e4006c6f6f6b757000006e6574696e666f004a
:1035f4003a20476574206e6574776f726b20696e2c
:10360400666f726d6174696f6e0000006465666e4a
:10361400657400003a205365742f4765742064650f
:103624006661756c7420696e7465726661636500a9
:103634003a204448435020636c69656e7420636f7c
:103644006d6d616e647300006468637073000000e4
:103654003a205475726e2044484350207365727644
:103664006572206f6e2f6f66660000007a636c6c63
:10367400000000003a205475726e205a434c4c20ce
:103684006f6e2f6f66660000736574646e7300005e
:103694003a2053657420444e532061646472657308
:1036a4007300000073657469700000003a2053656c
:1036b40074204950206164647265737320616e6480
:1036c400206d61736b000000736574677700000000
:1036d4003a20536574204761746577617920616489
:1036e400647265737300000073657462696f7300bc
:1036f4003a2053657420686f73742773204e657481
:1037040042494f53206e616d650000007365746d0e
:10371400616300003a20536574204d414320616485
:103724006472657373000000696600003a20427297
:10373400696e6720616e20696e7465726661636587
:103744002075702f646f776e0000000073746163de
:103754006b0000003a20537461636b207475726ec1
:10376400206f6e2f6f66660068656170696e666fa4
:10377400000000003a20436865636b20686561704f
:103784002073746174757300617270003a20415241
:103794005020636f6d6d616e64730000646e7363bb
:1037a400000000003a20444e5320636c69656e7437
:1037b40020636f6d6d616e64730000006d616369f9
:1037c4006e666f003a20436865636b204d41432069
:1037d40073746174697374696373000068747470da
:1037e400000000003a204854545020696e666f72fd
:1037f4006d6174696f6e0000737369003a205353ee
:103804004920696e666f726d6174696f6e000000a5
:10381400616e6e6f756e6365000000003a20416e44
:083824006e6f756e6365000014
:020000040000fa
:020000040040ba
:04382c0001207047c0
:020000040000fa
:020000040040ba
:103830002de9f04f2ded068bcfb00c460591934648
:103840000a9311902ff0f6fe0368179318461df0a7
:10385000b7f8a38915901d0603d52369002b01f045
:10386000518100239fed7a8b9fed7b9b0f932493d7
:1038700023931493199312931893169303935e460c
:1038800025abdff8dca1ddf844b02293994633780c
:103890003446e3b1252b02d119e0252b03d014f8cf
:1038a000013f002bf9d1a51b8db1239b249ac9f8a8
:1038b000006001332a44072bc9f804502492239353
:1038c00000f39d8009f10809039b2b44039323789f
:1038d000002b01f0ca8000234ff0ff329846079377
:1038e0008df86b30671c637804922b2420250137f8
:1038f000a3f120025a2a00f2e483dfe812f0a502c5
:10390000e203e203ae02e203e203e2035f00e2034a
:10391000e203b202bf02e2037c00cd02e203e7024f
:10392000d203d203d203d203d203d203d203d203ef
:10393000d203e203e203e203e203e203e203e2036f
:103940004a03e2037c0392034a034a034a03e20365
:10395000e203e203e203eb02e203e203ef02e2032b
:10396000e203e2030003e2032703e203e20394021b
:10397000e203e203e203e203e203e203e203e2031f
:103980004a03e2037c0354024a034a034a03c30284
:1039900054025b00e203b003e203ba0323023803dc
:1039a0005b00e203000376003e02e203e203b300a1
:1039b000e203760048f020083b7898e758462ff05d
:1039c00039fe4368169318461cf0faff18905846c3
:1039d0002ff030fe83681293189b33b1129b23b1f2
:1039e000129b1b78002b41f083803b787fe7079a7e
:1039f0000a935242079248f004083b7877e722aadc
:103a0000059958461bf03cf980b90df194095be724
:103a100022aa059958461bf033f9002800f082814c
:103a2000099b1bb10999119813f0c0fc059bb3f9d0
:103a30000c3013f0400f039b18bf4ff0ff3303937c
:103a400003984fb0bdec068bbde8f08faff300805c
:103a50000000000000000000ffffffffffffef7ffe
:103a6000ec4543000d9318f0200fb44b149340f035
:103a7000e1810a9a18f0100f134640f09d8518f066
:103a8000400f41f01d8018f4007f00f0958504334d
:103a900014780a93002518f0010f0bd054ea05039f
:103aa00008d030239df834208df86d2048f00208ae
:103ab0008df86c3028f48061022300228df86b2091
:103ac0000498421c00f0908154ea050221f080081d
:103ad00040f08f81002840f00984002b40f0a28440
:103ae00011f001034eae089302d0302306f8013dd9
:103af0000023089a0993139310930e93049b934207
:103b0000b8bf13469df86b20029312b1029b01339c
:103b1000029318f002030b9302d0029b023302932c
:103b200018f084030c9340f0ea82079b02995c1a18
:103b3000002c40f3e482102c2499239a804d25dd3b
:103b400048461023c146b046059e04e0103c102ca8
:103b500000f1080017dd01321031072a2491239269
:103b600005604360f2dd22aa3146584606931bf0f9
:103b700087f800287ff454af103c102c2499239a26
:103b8000069b25a8e7dc4646c846814601326318f5
:103b9000072a24932392c9f80050c9f8044000f37f
:103ba0008f849df86b2009f1080972b1239a0132c4
:103bb00001330df16b000121072a2493239289e838
:103bc000030000f3a98309f108090b9a6ab1239a4b
:103bd000013202331ba80221072a2493239289e889
:103be000030000f3a58309f108090c9a802a00f06c
:103bf000eb82049a0899541a002c36dd102c239a73
:103c000026dd49461025a146059c06e0a9f11009cc
:103c1000b9f1100f01f1080118dd01321033072a44
:103c200024932392c1f800a04d60efdd22aa214623
:103c300058461bf025f800287ff4f2aea9f11009d0
:103c4000b9f1100f249b239a25a9e6dc4c4689463e
:103c500001322344072a24932392c9f800a0c9f80b
:103c6000044000f34d8309f1080918f4807f40f007
:103c70004f82239a0898c9f8006001320344072a4a
:103c80002493c9f80400239200f3248309f108095e
:103c900018f0040f3bd0079a0299541a002c36dd15
:103ca000102c239a264d1fdd1026ddf8148004e029
:103cb000103c102c09f1080916dd01321033072ad7
:103cc0002493239289e86000f2dd22aa41465846f7
:103cd0001af0d6ff00287ff4a3ae103c102c249bd2
:103ce000239a0df19409e8dc01322344072a249336
:103cf0002392c9f80050c9f8044008dd22aa0599aa
:103d000058461af0bdff00287ff48aae249b039a20
:103d1000079902988142acbf521812180392002be7
:103d20007ff476ae00232393099b1bb10999584673
:103d300013f03cfb0df194093e46a8e5d4e44200a3
:103d4000dc45430018f0200f0d9340f0ce800a9a16
:103d500018f0100f134640f0198418f0400f40f08f
:103d6000a28618f4007f00f01184043314780a93bb
:103d7000002528f4806100239fe641468e060d93be
:103d800000f1ea800a9acd06134600f105844c063c
:103d900000f18f86880540f1ff83147804320025f6
:103da00001230a9289e641468c060d9300f13f817a
:103db000c80600f1f8834a0600f188868b0540f1b9
:103dc000f2830a9890f90040e517043022462b460a
:103dd0000a90002a73f10003c0f239810498421c52
:103de0004ff001037ff470ae54ea050200f07f82c9
:103df0008846012b00f01e83022b40f0a882149805
:103e00004eae230904f00f0143ea05732a091c464c
:103e10001546435c06f8013d54ea0503f1d14eab6b
:103e20009b1b089364e60d9318f0200fb54b149379
:103e30003ff41fae0a9d073525f0070303f1080282
:103e40000a92d3e9004526e69df86b30002b7ff4fb
:103e5000ccad8df86b503b7849e548f001083b78d4
:103e600045e50a990b6807931a46002a0b4603f1a9
:103e70000403fff6bcad0a933b7838e58df86b4040
:103e80003b7834e53b78682b03bf7b7848f40078b7
:103e9000013748f040082ae53b782a2b07f1010159
:103ea00001f01c81a3f13002092a0f4601f24a8079
:103eb0000023194617f8013b01eb810102eb410198
:103ec000a3f13002092af5d9049111e548f08008e0
:103ed0003b780ce548f008083b7808e548f0100806
:103ee00018f0200f0d933ff432af0a9d073525f0ef
:103ef000070303f108020a92d3e9004539e70a9a59
:103f00000d93166800248df86b40151d002e00f0ef
:103f10003d87049a531c00f09b862146304621f0d1
:103f200097f80990002800f08287099b04949b1b56
:103f30001a4622eae27208930a95234602920993ee
:103f4000139310930e939df86b20dee548f010015b
:103f50008e060d937ff516af0a9d073525f00703f2
:103f600003f10802d3e900450a920123a5e50a9866
:103f7000654b046814933022782304308df86d303b
:103f80000d9348f002010a9000258df86c20022361
:103f900093e50a9d0d9318f0080f05f1070500f051
:103fa000ed8425f0070393ed008b03f108020a92dc
:103fb000b0eec87bb4ee497bf1ee10fa40f33984e1
:103fc000b5eec08bf1ee10fa00f1f0869df86b2093
:103fd0004e4e0d9c0323002118460293331f099176
:103fe00028f08008472cd8bf1e46089004911391f2
:103ff00010910e9189e50a980d9301688df8d410ff
:10400000002301461a468df86b30043101230293d8
:1040100009920492139210920e920a91089335ae6f
:1040200077e548f010018c060d937ff5c1ae0a9d2f
:10403000073525f00705d5e90023002a05f108001a
:104040001d4673f100030a901446bff6c7ae2d2338
:1040500064428df86b3065eb4505012330e53b7814
:104060006c2b03bf7b7848f02008013748f010081c
:104070003de418f0200f40f0098518f0100f35d1fd
:1040800018f0400f40f0788618f4007f2ed00a9a7e
:10409000136804320a929df80c201a703e46fff70e
:1040a000f6bba3f130020023194617f8013b01ebe0
:1040b000810102eb4101a3f13002092af5d90791f0
:1040c00016e419460d93002b00f0cf840023012045
:1040d0001a4602908df8d4108df86b300993049332
:1040e000139310930e93089035ae12e50a9a136855
:1040f00004320a92039a1a603e46fff7c8bb249b1b
:1041000053e500bfc0e44200d4e44200b4e44200fe
:104110000d9a652a40f39680b5ee408bf1ee10fac9
:1041200040f03981239ac249c9f8001001320133a5
:104130000121072a24932392c9f8041000f3448430
:1041400009f108091c9b0f9a9342249b03db18f08a
:10415000010f3ff49dad239a15981799c9f80010e7
:1041600001320344072ac9f804002493239200f380
:10417000b28409f108090f9a541e002c7ff788ad0c
:10418000102c239a40f308831025059e05e009f1c1
:104190000809103c102c40f3ff8201321033072a2b
:1041a00024932392c9f800a0c9f80450efdd22aa95
:1041b000314658461af064fd00287ff431ac249b48
:1041c000239a0df19409e4e7079a0299541a002cf6
:1041d0007ff70fad102c239a26dd49461025a14606
:1041e000059c06e0a9f11009b9f1100f01f10801d1
:1041f00018dd01321033072a24932392c1f800a05e
:104200004d60efdd22aa214658461af039fd0028fc
:104210007ff406aca9f11009b9f1100f249b239a81
:1042200025a9e6dc4c46894601322344072a24931b
:104230002392c9f800a0c9f8044000f3e68209f10e
:104240000809d6e40f9ac9f80060012a239a03f1fd
:10425000010302f101024ff0010124932392c9f8f6
:10426000041040f3a582072a00f3b58209f108097a
:1042700015981799c9f8001001320344072a2493ae
:104280002392c9f8040000f3b38209f10809b5eede
:10429000408bf1ee10fa0f9900f0218101390132c3
:1042a00001360b44072ac9f8006023922493c9f809
:1042b000041000f3468109f108091998c9f80400af
:1042c000013203441ea9072a24932392c9f800103f
:1042d0007ff7dcac22aa059958461af0d1fc0028d9
:1042e0007ff49eab249b0df19409d1e44146012b50
:1042f00000f03581022b27d18846002400257ee579
:1043000022aa059958461af0bbfc00287ff488ab16
:10431000249b0df19409a8e422aa059958461af0a5
:10432000affc00287ff47cab249b0df194094ce496
:1043300022aa059958461af0a3fc00287ff470ab16
:10434000249b0df1940950e48846002400254ea9d1
:1043500000e03146e20842ea4572e80804f007034b
:1043600005461446303354ea050201f8013c01f1d8
:10437000ff36eed118f0010f3ff451ad302b3ff472
:104380004ead3023023906f8013c4eab5b1a089360
:104390000e46fff7adbb1c99002940f32f830e9a00
:1043a0000f998a42a8bf0a46002a14460ddd239ab7
:1043b000c9f8006001322344072a2493c9f8044055
:1043c000239200f3cc8409f108090e9a002ca8bfaf
:1043d000121b002a144640f30081102c239a40f34c
:1043e000d88249461025a146059c06e00831a9f16e
:1043f0001009b9f1100f40f3ca8201321033072ab5
:1044000024932392c1f800a04d60efdd22aa21463b
:1044100058461af035fc00287ff402ab249b239aff
:1044200025a9e4e7049b08934eaefff761bb00bfec
:10443000f0e44200002d08bf0a2cc0f08f8008f481
:10444000806300220297cdf81890cdf820b04eaed0
:10445000c346ddf84890174698460ae000232046f8
:1044600029460a222cf0cafb04460d4654ea0503ed
:104470007ed00a220023204629462cf0bffb303292
:1044800006f8012c0137013eb8f1000fe6d099f88b
:1044900000309f42e2d1ff2fe0d0002d08bf0a2c50
:1044a000dcd3189b1699f61a30461a4626f034f8d3
:1044b00099f80170002fd1d009f101090027cde74b
:1044c00022aa059958461af0dbfb00287ff4a8aa17
:1044d0009df86b20249b0df19409fff766bb4c1ee1
:1044e000002c7ff7eaae102c20dd1025059e04e09d
:1044f000103c102c09f1080918dd01321033072a8d
:1045000024932392c9f800a0c9f80450f0dd22aa30
:10451000314658461af0b4fb00287ff481aa103cbb
:10452000102c249b239a0df19409e6dc01322344dc
:10453000072a24932392c9f800a0c9f804407ff702
:10454000baae22aa059958461af09afb00287ff4c1
:1045500067aa249b239a0df19409aee641464eae1c
:1045600030340123884606f8014d0893fff7c0ba9e
:104570004eab9b1bcdf84890d8460f97ddf820b086
:10458000ddf81890029f0893fff7b2ba1c68043355
:104590000a930025fff7edbb04321c680a92012341
:1045a0000025fff78aba0a9a146813460433e51700
:1045b0000a9322462b460ce41c6804330a93002518
:1045c000fff769ba22aa059958461af059fb002844
:1045d0007ff426aa249b0df194090e9a18f4806f9b
:1045e0003244154600f083800f9908961846109bb8
:1045f000cdf82c8071180491069749461646ddf8cf
:104600006090ddf84c80059d002b5fd0b8f1000f65
:1046100000f0088108f1ff38239b169a0a600133e5
:104620004844072b2490c1f80490239300f3c880da
:104630000831129a049c1378a41b9c42a8bf1c4604
:10464000002c0bdd239b0e6001332044072b2490ac
:104650004c60239300f3ab8113780831002cacbf7e
:104660001c1b1c46002c2ddd102c239a1ddd102751
:1046700004e0103c102c01f1080116dd013210306d
:10468000072a24902392c1f800a04f60f1dd22aaee
:10469000294658461af0f4fa00287ff4c1a9103cc4
:1046a000102c2498239a25a9e8dc01322044072afb
:1046b00024902392c1f800a04c6000f39181129bda
:1046c0001b7808311e44109b002b9fd1b8f1000fbe
:1046d000a0d134460f9a089e069fddf82c80b218b0
:1046e00094428946214628bf114603460d461c9a2e
:1046f0000f998a4280f201822399159c1798c9f874
:1047000000000131234407292493c9f80440239170
:1047100000f38d8209f108090f997418641b8a1a35
:104720009442a8bf1446002c0ddd2399c9f800500f
:104730000131234407292493c9f80440239100f34d
:10474000bc8309f10809002cacbf141b1446002cd3
:104750007ff79eaa102c239a1edd1025059e04e0eb
:1047600009f10809103c102c16dd01321033072a1c
:1047700024932392c9f800a0c9f80450f0dd22aabe
:10478000314658461af07cfa00287ff449a9249b48
:10479000239a0df19409e5e701322344072a249373
:1047a0002392c9f800a0c9f804407ff76faa91e5e9
:1047b00018f0010f7ff457ad072a7ff77cadc0e6f4
:1047c00022aa294658461af05bfa00287ff428a945
:1047d000249825a92de722aa059958461af050fadf
:1047e00000287ff41da9249b239a0df194093fe52d
:1047f00022aa059958461af043fa00287ff410a916
:10480000249b239a0df1940941e522aa0599584663
:104810001af036fa00287ff403a9249b0df19409bd
:10482000fff7e7b9129b013b1293109b013b1093da
:10483000f2e6b4ee488bf1ee10fa80f1e3830d9bc3
:10484000612b00f0b882412b00f07881049b01338a
:104850000d9b23f0200500f09d83472d04d1049b80
:10486000002b08bf0123049318ee903a48f480729d
:10487000002b02924ff00003c0f2b882b0ee48abba
:10488000069309930d9b662b00f0ef82462b00f0f8
:10489000d883b0ee4a0b452d0abf049b049c5c1cd8
:1048a00020aa1dab0192009322461cab0221584660
:1048b00003f0daff0d9b672b064640f0958318f056
:1048c000010f40f04383209bc6469b1bddf8088008
:1048d0000f93472d00f0cf810d9b462b00f0b38244
:1048e000652b40f312840d9b662b00f0ac821c9b61
:1048f0000e930f9b0e9a19469142134600f3608265
:104900001ef0010f00f06383159a134408931ef400
:10491000806f00f010830e9b002b40f30c83672305
:104920000d9312980e9a0023139310930378ff2b84
:104930000ed09a420cdd4178d21a002900f0848111
:10494000109b013310930b46ff2b00f10100f0d1b7
:104950000e92109b139a089912901344189a02fb16
:104960000313089323eae3730293069b002b40f0a2
:104970007b8104939df86b20fff7c7b825f00705ee
:1049800005f1080395ed008b0a93fff711bb4c4628
:10499000894601322344072a24932392c9f800a0b0
:1049a000c9f804403ff70eae09f1080915e622aa3e
:1049b000294658461af064f900287ff431a8129b62
:1049c00024981b7825a949e622aa059958461af089
:1049d00057f900287ff424a80df19409fff7b2bb22
:1049e00022aa294658461af04bf900287ff418a845
:1049f000129b24981b7825a91e4464e6239ac2487a
:104a0000c9f80000013201330120072a24932392c0
:104a1000c9f8040000f3858009f1080929b90f9a43
:104a20001ab918f0010f3ff433a9239a159c17986f
:104a3000c9f8000001322344072a2493c9f804402e
:104a4000239200f36a8209f108090029c0f2448226
:104a50000f98c9f8006001320344072a2493239277
:104a6000c9f804007ff712a934e4249b002b3ef41c
:104a7000ddaf059c119822aa21461af001f9002801
:104a80003ef4d4afb4f90c30fef7d3bf0a9a0399c1
:104a90001368cd170846043229460a92c3e900017b
:104aa0003e46fef7f4be043314880a930025fff750
:104ab00060b914880432002501230a92fef7fdbf75
:104ac000043314880a930025fef7e5bf0a98b0f96d
:104ad0000040fff779b922aa059958461af0d0f894
:104ae00000287ef49daf249b0df19409fff743bb92
:104af00048f480683b78fef7fabe18f0010f3ff4e7
:104b00000baef9e54021119808f044fc059a1060bd
:104b10001061002800f0f182059a40235361fef7ee
:104b2000a0be22aa059958461af0aaf800287ef4d9
:104b300077af1c99249b0df194096fe730238df812
:104b40006c3058238df86d30049b632b48f00204c1
:104b500000f340820023099335ae18ee903a002b03
:104b60000d9b48f481720292a04623f02005c0f20a
:104b70003e81b0ee48ab002306930d9b612b00f005
:104b8000ec81412b7ff47eaeb0ee4a0b1ca823f0e3
:104b9000cff9b4ee007b20ee070bb5ee400bf1ee43
:104ba00010fa01d101231c93584c049bb3ee005b17
:104bb000013b314605e0b5ee400bf1ee10fa14d0a2
:104bc000114620ee050bfdeec06b0a4616ee900a6c
:104bd000b3f1ff3f205c02f8010bb8eee67b18460c
:104be00030ee470b03f1ff33e5d1b6ee007bb4eeb8
:104bf000c70bf1ee10fa00f3ff80b4ee470bf1eeb5
:104c000010fa04d116ee903adb0700f1f580002887
:104c100007db1418302301f8013fa142fbd101301a
:104c20000244931bc6460f93ddf8088051e622aa82
:104c3000059958461af024f800287ef4f1ae1c9a23
:104c4000249b0df1940967e51399013113916ee6e8
:104c5000304604941bf0b4fe20eae07208900a95f6
:104c600002922346fff76bb92d2200238df86b20ab
:104c70000493fef74bbf1c9b0e93da1c03db049ad4
:104c800093427ff736ae0d9b023b0d9323f0200538
:104c90000e9b412d03f1ff331c9300f059819df8c9
:104ca00034200021002bb8bf0e9b8df87820babfae
:104cb000c3f101032d222b22092b8df8792040f31b
:104cc0005d810df187042046114d00e0104685fb03
:104cd0000312d917c1eba20101eb8102a3eb42023f
:104ce0003032092900f8012c0b4600f1ff32eddccf
:104cf00030330238dbb2844202f8013c40f2fa81e0
:104d00000df17a00114607e0f0e44200c0e44200f1
:104d10006766666611f8013b00f8013b8c42f9d1e9
:104d20000134a21a0df17a031a441eabd31a0f9a5a
:104d30001993012a1344089340f3ad81089b159af7
:104d4000134408930023139310930e93089b2ef49f
:104d5000806e23eae3734ef48078029305e622aa7c
:104d60000599584619f08cff00287ef459ae249b13
:104d70000df19409fff729bb0a9a136804320a92cd
:104d8000bdf80c201a803e46fef781bd049b1396a9
:104d9000062b28bf06233246049610960e960996d7
:104da00002930a950893ae4efef7afbe2d228df802
:104db0006b20fff70db930238df86c307823c1e6f6
:104dc0000f9b159a134408930e9b002b40f34e81c2
:104dd00067230d931ef4806f7ff4a3ad089b23ea35
:104de000e3730293002313931093bee509932d23dd
:104df0000693b1ee48abc0e6209112f8010ce37bbc
:104e0000834240f0508113464ff0300e03f801ec1e
:104e1000209b591e209113f8011c8142f6d039299c
:104e200016bf0131a17ac9b203f8011cf9e6049b4f
:104e30000293089304900a95139010900e909df899
:104e40006b20fef762be1c9b0e93002b049b40f36d
:104e50002d81002b40f0ec801ef0010f40f0e88027
:104e60000e9b089366230d93b4e7049cb0ee4a0ba7
:104e700020aa1dab0192009303211cab2246584689
:104e800003f0f2fc064601193378302b00f0f9806c
:104e90001c9c2144b5ee40abf1ee10fa0bd0209be8
:104ea00099427ff611ad30205a1c20921870209b39
:104eb0009942f9d808e50b4606e522aa0599584615
:104ec00019f0defe00287ef4abad1c9a0f99249bee
:104ed0008a1a0df1940936e44c4210315dda10253e
:104ee00004e009f10809103c102c56dd01321033a2
:104ef000072a24932392c9f800a0c9f80450f0ddd2
:104f000022aa0599584619f0bbfe00287ef488ad08
:104f1000249b239a0df19409e5e722aa05995846a6
:104f200019f0aefe00287ef47bad1c99249b239ad9
:104f30000df1940989e5089b23eae3730293672343
:104f40000d934fe700220492fef7d2bc3119a1e77e
:104f50000d9a0f32d2b20121a4e6b0ee4a0b1ca882
:104f600022f0e6ffb4ee007b20ee070bb5ee400b1f
:104f7000f1ee10fa00f0af803a4c16e6002940f04e
:104f80008f8030228df87a200df17b023033137040
:104f90000132cae60623049366e401322344072a59
:104fa000c9f800a0c9f804402493239209f1080924
:104fb0007ff74ead22aa0599584619f061fe0028e8
:104fc0007ef42ead249b239a0df1940940e50e9baf
:104fd00008939ce4591c584608f0dcf90646002862
:104fe00000f096800990b8e50d9b472baed118f0e4
:104ff000010f3ff468ac0d9b462b06eb04013ff418
:1050000043af47e7184e0d9c9df86b2000231946cf
:1050100003200993331f0491029028f08008472c45
:10502000d8bf1e46139110910e910890fef76dbdea
:10503000159a0e9b1344049a1a44662308920d9302
:10504000c8e6049cb0ee4a0b20aa1dab0192009367
:1050500022461cab0321584603f006fc0646cae76d
:10506000e8e44200d4e44200bce44200089ac3f100
:1050700001031a4422eae2730293672308920d9314
:10508000b0e6b5ee40abf1ee10fa3ff401afc4f17b
:1050900001041c94fde61ef0010f3ff453ae4de6f3
:1050a0000df17a0272e701461346b8e613b91ef015
:1050b000010f0ad0159b049a01331a4422eae273c5
:1050c0000293662308920d938ce6012302930893c2
:1050d00066230d9386e601231c934de70a987b789f
:1050e000026842eae2720492024604320f460a92d1
:1050f000fef7fdbb0df17a0217e6119a0c2313603f
:105100004ff0ff330393fef79bbc1c9b0e93bfe550
:10511000059ab2f90c3043f040039381fef789bc45
:020000040000fa
:020000040040ba
:105120002de9f04fa9b0329fbdf8cc90bdf8d0402a
:1051300002949df8d4b09df8d8a00225cd85002812
:1051400033d003901c4605920d462ef073fc04905c
:105150001eae38687968ba68fb680fc622ae206850
:105160006168a268e3680fc64fea092343ea19237e
:105170009bb226934ff00008adf89c808df89e807e
:105180003a238df89f30424628211ea824f003ffc1
:10519000064642464946a86924f0fdfef643b6b2eb
:1051a000864205d04ff6f673eb8529b0bde8f08f47
:1051b000029928462ff096fa14a928462ff018fcd9
:1051c0009df85030852b00f08f800ed9882b19d890
:1051d000872b80f09480baf1050fe6d00f220df1f5
:1051e000510128462ff0e6fc1ee0ebb1042b15d947
:1051f000803b012b18d807220df1510128462ff0d2
:10520000d9fc11e0892b0fd1baf1050fcdd027229f
:105210000df1510128462ff0cdfc05e007220df1dc
:10522000510128462ff0c6fcbdf85220130a43ea6c
:105230000223adf852309df85030812b66d8802b78
:1052400080f0ba80022b40f0c580159b1a0e42ea0e
:105250000362190201f47f010a431b0a03f47f432e
:1052600013431593a9f108039bb2272b9dd9284618
:105270002ff0a2fd00f1180128462ff0e3fc1022c8
:1052800022a928462ff096fc9df88830ff2b00f0cd
:105290002f81022222a9039821f05aff06460028f6
:1052a00000f05681049b1b8f159a934238bf1593cb
:1052b000159b028b9a4240f2208103832af04afa1e
:1052c000804689462ff006fcb54bb0fbf3f34ff454
:1052d000167a0afb03fab24a0023404649462bf0ed
:1052e0008dfc5044706108e1baf1050f3ff45dafe9
:1052f00007220df1510128462ff05cfc94e717229c
:105300000df1510128462ff055fc8de7862b61d118
:10531000bdf85620130a43ea0223adf85630179b16
:105320001a0e42ea0362190201f47f010a431b0ac2
:1053300003f47f4313431793169b1a0e42ea03624a
:10534000190201f47f010a431b0a03f47f4313434c
:1053500016933946039822f001fb00f00f00022853
:105360007ff423afbbf1ff0f7ff41faf9df85130e7
:10537000002b7ff41aafb9f1100f7ff616af8df83e
:1053800048308df828308df82030029b03f1100a48
:105390001ffa8afa514628462ff0a4f9a9f11009fc
:1053a0001ffa89f9b9f1000f00f0f4814e464ff071
:1053b000020b4ff0030889e1bdf854100a0a42ead3
:1053c0000122adf85420bdf856100a0a42ea012223
:1053d000adf85620802b00f0e78057d9872b00f0de
:1053e0001f8371d9882b00f0bc83892b7ff4ddae3d
:1053f0003946039c204622f0b1fa00f00f00022843
:105400007ff4d3aebbf1ff0f7ff4cfae9df85130e8
:10541000002b7ff4caaeb9f1270f7ff6c6ae9df818
:105420006830ff2b3ff4c1ae10221aa916a825f050
:105430006dfc40b116a9204622f090fa00f0300031
:1054400010287ff4b2ae1aa9039820f00dfc014693
:1054500000283ff4aaae10220431384625f056fc4d
:1054600000287ff4a2ae0299283189b228462ff095
:1054700039f9a9f12804a4b200238df84830002c92
:1054800000f0a4840226012700f07dbc022b3ff42b
:10549000e9ae0dd9032b79d0042b7ff486ae14ab83
:1054a00000933b4622460421039829f08bfa7ce6c0
:1054b000012b7ff47aae14ab00933b4622460121c8
:1054c000039829f07ffa70e6812b0dd114ab00937d
:1054d0003b4622468121039c204629f073fa394637
:1054e00020462bf0a1fc60e6862b7ff45eae30e711
:1054f000159b049a528f9a4211d82a4b1b68002b95
:105500003ff453ae082128462ff0ecf814ab00937b
:105510003b4622460221039829f054fa45e6049ab4
:1055200053872af017f9804689462ff0d3fa1c4b8f
:10553000b0fbf3f34ff4167606fb03f6184a00238c
:10554000404649462bf05afb3044049a5063d4e756
:10555000159b049a128f9a42cfd9049a13872af086
:10556000f9f8804689462ff0b5fa0d4bb0fbf3f3fe
:105570004ff4167606fb03f6094a002340464946d7
:105580002bf03cfb3044049a5063b6e714ab009315
:105590003b4622460321039829f014fa05e600bf92
:1055a000f0490200c85e402014ab00933b462246ff
:1055b0008021039c204629f005fa0299083189b21e
:1055c00028462ff08ff83946204620f04dfb044640
:1055d00000283ff4eaad059e0836baf1010f30d03d
:1055e000aaf10303dbb2012b3ff6dfad00223946ff
:1055f000ddf80c8040461df089fe00283ff4d5ad53
:10560000bdf856300193bdf85430009381233a46db
:105610003146404624f0bafa064600283ff4c5adac
:10562000a9f10807bfb2394621f016fea9f1080911
:10563000484532da4ff6ef73eb8530462df02cfefd
:10564000b3e5bdf856300193bdf854300093812383
:105650003a463146039824f099fa064600283ff46a
:10566000a4ada9f10807bfb2394621f0f5fda9f1b3
:105670000809484506da4ff6ef73eb8530462df002
:105680000bfe92e53b460222294630461df083fc84
:10569000746230462ff018f887e53b46022229460f
:1056a00030461df078fc746230462ff00df87ce532
:1056b000062c7ff47aad01238df8483006220df1d7
:1056c0004a0128462ff076fa002e63d05a4607a9e1
:1056d00028462ff06ffa9df81c209df81d10cb0076
:1056e00000293ff462adf61ab6b2023b9cb2032a1f
:1056f0000bd0052a34d0012adad028462ff05cfbe3
:10570000011928462ff09efadee71e2c7ff44dadde
:105710008df828801e220df12a0128462ff04afa22
:105720008df8288020238df829300b9b1a0e42ea31
:105730000362190201f47f010a431b0a03f47f4349
:1057400013430b930c9b1a0e42ea0362190201f4f5
:105750007f010a431b0a03f47f4313430c93b3e70f
:10576000062c7ff422ad05238df8203006220df1a2
:10577000220128462ff01efa099b1a0e42ea036204
:10578000190201f47f010a431b0a03f47f43134308
:10579000099399e7039c20462bf020f802992846ac
:1057a0002ef0a0ff00223946204621f0d1fc804691
:1057b00000286fd044689df8543013b1049a82f8e1
:1057c0003c30169e9eb1049b9b6a9e420cd029f0f1
:1057d000d9fbc3b2803306fb03f31b0a4ff47a7282
:1057e000b3fbf2f3049ad362169b049a9362179b5d
:1057f0000bb1049a1363bdf85630002b00f08b8078
:10580000b8f1000f48d0bdf85630c8f8083029f07c
:10581000a1ffca4a00232bf0f1f9c8f80c00d8f810
:105820000440002c00f02d8394f8303043f0010345
:1058300084f830309df84830002b7ed19df8283018
:10584000002b40f08c809df82030002b3ff4adac55
:10585000099ba3f5a062db2a3ff6a7ac049a138745
:1058600029f078ff06460f462ff034f9b34bb0fb12
:10587000f3f34ff4167505fb03f5b04a00233046e9
:1058800039462bf0bbf92844049d6863ab6d099a37
:1058900091b2b8e000248ee701223946039821f046
:1058a00057fc0446d0b19df848306bb106220df18b
:1058b0004a01143025f02afa30b104230df14a02ce
:1058c0002146039823f06cfdbdf85620214603982d
:1058d00029f0f8f88046002895d166e49df8483014
:1058e00073b1059b01930123009304230df14a0238
:1058f000394603981ff08af80446002ce4d154e49a
:10590000059b0193012300930022394603981ff061
:105910007df80446f1e7b8f1000f04d000224146bb
:1059200003981df001ff002c7ff47eaf0122394661
:10593000039821f00dfc044673e706220df14a019d
:1059400004f1140025f0e2f900283ff477af0423b6
:105950000df14a022146039823f022fd6ee75146dd
:1059600028462ef0bffe02262ee01e220df12a014f
:1059700028462ff01ff903238df8283002378df8c1
:1059800029700b9b1a0e42ea0362190201f47f018f
:105990000a431b0a03f47f4313430b930c9b1a0e19
:1059a00042ea0362190201f47f010a431b0a03f46d
:1059b0007f4313430c930aa9039f384626f01bfa32
:1059c0000aa938461cf0fcfeb9f1000f3ff43bafca
:1059d000324607a928462ff0edf89df81d30db0070
:1059e000a9eb03091ffa89f9023b9fb29df81c300d
:1059f000032bbad028462ff0dff9c11928462ff023
:105a000021f9e1e71b68002b3ff4cfabd869844252
:105a1000f8d1188b8242f5d81983686b5861f1e789
:105a200016a9039821f09aff00f0300030283ff4c7
:105a3000bcabbbf1ff0f7ff4b8ab9df85130002b2e
:105a40007ff4b3abb9f1170f7ff6afab0299183102
:105a500089b228462ef046fea9f118081ffa88f8e8
:105a600000238df84830b8f1000f00f01c824ff091
:105a7000020a4ff00109464608e028462ff09cf93b
:105a800000eb080128462ff0ddf816b3524607a9af
:105a900028462ff08ff89df81c209df81d30002b14
:105aa0003ff483abdb00f61ab6b2023b1ffa83f871
:105ab000012ae2d1b8f1060f7ff477ab8df8489058
:105ac0008df8499006220df14a0128462ff072f810
:105ad000dbe7102239461a4825f018f9c0b2002831
:105ae00040f043829df84830012b3ff45eab2046e6
:105af00027f0bafe00283ff458ab052216a90398f8
:105b000025f0e8fe0346002800f0458200211846f3
:105b100026f0ecfafff749bb06220df14a011430da
:105b200025f0f4f8002800f0f58104230df14a0275
:105b30002146039823f034fcece100bff049020059
:105b40003c44430020462df0a7fbfff72ebb002866
:105b500040f0e081fff729bb28462df09dfbfff7c1
:105b600024bb16a9039821f0f9fe00f0300030287c
:105b70003ff41babbbf1ff0f7ff417ab9df8513027
:105b8000002b7ff412abb9f1170f7ff60eabbaf111
:105b9000030f10d00299183189b228462ef0a2fdc9
:105ba000a9f11804a4b200238df84830002c43d08a
:105bb000022601271de09df8543013f0400f7ff4ba
:105bc000f4aa0299183189b228462ef08bfda9f16a
:105bd0001804a4b200238df84830002ce8d130e03e
:105be00028462ff0e9f800eb080128462ff02af8a4
:105bf00014b3324607a928462ef0dcff9df81c207e
:105c00009df81d30002b3ff4d0aadb00e41aa4b2ab
:105c1000023b1ffa83f8022ae2d1b8f1060f7ff4a3
:105c2000c4aa8df848608df8497006220df14a012a
:105c300028462ef0bfffdbe7aaf10303dbb2012bfe
:105c400005d89df8543013f0400f7ff4aeaa05221a
:105c500016a9039825f03efe20b1012126f046fa50
:105c6000fff7a3ba012216a9039825f033fe0028f6
:105c70007ff49baa012216a9039821f069fa044631
:105c800000283ff492aa857e6b1edbb2012b1fd841
:105c90009df84830022b7ff488aa9df8543013f009
:105ca000400f14bf032304230df14a020146039859
:105cb00023f076fb9df95430002b94f83030b4bfbc
:105cc00043f001036ff3000384f83030fff76dba3f
:105cd0009df84830022b40f0518106220df14a0117
:105ce000143025f013f880b29df8543013f0200fd3
:105cf0000ad148b1032d7ff458aa04222146039803
:105d00001bf04afdfff751ba002800f0398128aa9c
:105d100052f8561d61619288228313f0400f00f003
:105d200034810322214603981bf036fd9df8543040
:105d3000db0994f8302002f001029a423ff435aac0
:105d400094f8302063f3000284f8302012f0010f41
:105d50007ff42baa002216a9039c204621f0f8f913
:105d6000014600283ff421aa002220461df0dcfc59
:105d7000fff71bba28462ff01ff800eb0801284652
:105d80002ef060ff14b3324607a928462ef012ff0a
:105d90009df81c209df81d30002b3ff406aadb0067
:105da000e41aa4b2023b1ffa83f8022ae2d1b8f146
:105db000060f7ff4faa98df848608df84970062225
:105dc0000df14a0128462ef0f5fedbe710221aa954
:105dd00016a824f09bff0646051c18bf01250122ca
:105de00016a9039821f0b4f9044658bb9df8483031
:105df000022b1cd1059b0193009504230df14a024f
:105e000016a903981ef002fe0446002c3ff4cda90b
:105e100002221aa9039821f09bf978bb2346049a21
:105e2000128f1aa9039820f07dfcfff7beb9059bdd
:105e3000019300950123002216a903981ef0e6fda8
:105e40000446e2e72eb190f8303043f0010380f8c9
:105e500030309df84830022bdad106220df14a018c
:105e600004f1140024f052ff0028d1d004230df1d6
:105e70004a022146039823f093fac9e7c461fff769
:105e800094b99df84830002b3ff4d8ac059b0193a2
:105e90000123009304230df14a02394603981ef0b2
:105ea000b5fd0446cae410223946564824f02effb8
:105eb000c0b200283ff41bae052216a9039825f0b6
:105ec00009fd00287ff471a9012216a9039825f085
:105ed00001fd054600283ff468a9012239460398d0
:105ee00021f036f904469df84830012b7ff42fae9f
:105ef00000287ff411ae059b019300230093042337
:105f00000df14a02394603981ef080fd0446002830
:105f10003ff44ba901260196009616ab221d05f110
:105f20000801039f384620f015fd054602238df831
:105f300048308df849603b4653f83c2fcdf84a2055
:105f40009b88adf84e30082121f086f900283ff4f7
:105f500003ae0823032212a928461df01cf86c6228
:105f600028462ef0b1fbfff720b9052216a90398a9
:105f700025f0b0fc00287ff418a9a5e79df854305f
:105f800013f0400f3ff4d2aecbe604222146039833
:105f90001bf002fccae6012216a9039825f09afc20
:105fa000014600283ff401a9012301930023009337
:105fb00016ab154a0831039d284620f0cbfc044659
:105fc00000283ff4f2a802238df8483001238df811
:105fd00049302b4653f83c2fcdf84a209b88adf82a
:105fe0004e30082121f038f900283ff4abad0823ea
:105ff000032212a920461cf0ceff20462ef064fb9f
:0c600000fff7d3b83c4443001c444300ad
:020000040000fa
:020000040040ba
:10600c002de9f04f97b0c36dc26803eb020ede4b67
:10601c009e44c26c0eebf262416d846d81ea040efb
:10602c00016d0eea010e8eea040e9644026d4feae3
:10603c00b202416d81ea020cc16c0cea010c416d9b
